ARM GAS  /tmp/ccvbvPNS.s 			page 1


   1              		.cpu cortex-m4
   2              		.eabi_attribute 27, 1
   3              		.eabi_attribute 28, 1
   4              		.eabi_attribute 20, 1
   5              		.eabi_attribute 21, 1
   6              		.eabi_attribute 23, 3
   7              		.eabi_attribute 24, 1
   8              		.eabi_attribute 25, 1
   9              		.eabi_attribute 26, 1
  10              		.eabi_attribute 30, 1
  11              		.eabi_attribute 34, 1
  12              		.eabi_attribute 18, 4
  13              		.file	"stm32l4xx_hal_exti.c"
  14              		.text
  15              	.Ltext0:
  16              		.cfi_sections	.debug_frame
  17              		.section	.text.HAL_EXTI_SetConfigLine,"ax",%progbits
  18              		.align	1
  19              		.global	HAL_EXTI_SetConfigLine
  20              		.arch armv7e-m
  21              		.syntax unified
  22              		.thumb
  23              		.thumb_func
  24              		.fpu fpv4-sp-d16
  26              	HAL_EXTI_SetConfigLine:
  27              	.LVL0:
  28              	.LFB132:
  29              		.file 1 "Drivers/STM32L4xx_HAL_Driver/Src/stm32l4xx_hal_exti.c"
   1:Drivers/STM32L4xx_HAL_Driver/Src/stm32l4xx_hal_exti.c **** /**
   2:Drivers/STM32L4xx_HAL_Driver/Src/stm32l4xx_hal_exti.c ****   ******************************************************************************
   3:Drivers/STM32L4xx_HAL_Driver/Src/stm32l4xx_hal_exti.c ****   * @file    stm32l4xx_hal_exti.c
   4:Drivers/STM32L4xx_HAL_Driver/Src/stm32l4xx_hal_exti.c ****   * @author  MCD Application Team
   5:Drivers/STM32L4xx_HAL_Driver/Src/stm32l4xx_hal_exti.c ****   * @brief   EXTI HAL module driver.
   6:Drivers/STM32L4xx_HAL_Driver/Src/stm32l4xx_hal_exti.c ****   *          This file provides firmware functions to manage the following
   7:Drivers/STM32L4xx_HAL_Driver/Src/stm32l4xx_hal_exti.c ****   *          functionalities of the Extended Interrupts and events controller (EXTI) peripheral:
   8:Drivers/STM32L4xx_HAL_Driver/Src/stm32l4xx_hal_exti.c ****   *           + Initialization and de-initialization functions
   9:Drivers/STM32L4xx_HAL_Driver/Src/stm32l4xx_hal_exti.c ****   *           + IO operation functions
  10:Drivers/STM32L4xx_HAL_Driver/Src/stm32l4xx_hal_exti.c ****   *
  11:Drivers/STM32L4xx_HAL_Driver/Src/stm32l4xx_hal_exti.c ****   ******************************************************************************
  12:Drivers/STM32L4xx_HAL_Driver/Src/stm32l4xx_hal_exti.c ****   * @attention
  13:Drivers/STM32L4xx_HAL_Driver/Src/stm32l4xx_hal_exti.c ****   *
  14:Drivers/STM32L4xx_HAL_Driver/Src/stm32l4xx_hal_exti.c ****   * Copyright (c) 2018 STMicroelectronics.
  15:Drivers/STM32L4xx_HAL_Driver/Src/stm32l4xx_hal_exti.c ****   * All rights reserved.
  16:Drivers/STM32L4xx_HAL_Driver/Src/stm32l4xx_hal_exti.c ****   *
  17:Drivers/STM32L4xx_HAL_Driver/Src/stm32l4xx_hal_exti.c ****   * This software is licensed under terms that can be found in the LICENSE file
  18:Drivers/STM32L4xx_HAL_Driver/Src/stm32l4xx_hal_exti.c ****   * in the root directory of this software component.
  19:Drivers/STM32L4xx_HAL_Driver/Src/stm32l4xx_hal_exti.c ****   * If no LICENSE file comes with this software, it is provided AS-IS.
  20:Drivers/STM32L4xx_HAL_Driver/Src/stm32l4xx_hal_exti.c ****   *
  21:Drivers/STM32L4xx_HAL_Driver/Src/stm32l4xx_hal_exti.c ****   ******************************************************************************
  22:Drivers/STM32L4xx_HAL_Driver/Src/stm32l4xx_hal_exti.c ****   @verbatim
  23:Drivers/STM32L4xx_HAL_Driver/Src/stm32l4xx_hal_exti.c ****   ==============================================================================
  24:Drivers/STM32L4xx_HAL_Driver/Src/stm32l4xx_hal_exti.c ****                     ##### EXTI Peripheral features #####
  25:Drivers/STM32L4xx_HAL_Driver/Src/stm32l4xx_hal_exti.c ****   ==============================================================================
  26:Drivers/STM32L4xx_HAL_Driver/Src/stm32l4xx_hal_exti.c ****   [..]
  27:Drivers/STM32L4xx_HAL_Driver/Src/stm32l4xx_hal_exti.c ****     (+) Each Exti line can be configured within this driver.
  28:Drivers/STM32L4xx_HAL_Driver/Src/stm32l4xx_hal_exti.c **** 
  29:Drivers/STM32L4xx_HAL_Driver/Src/stm32l4xx_hal_exti.c ****     (+) Exti line can be configured in 3 different modes
ARM GAS  /tmp/ccvbvPNS.s 			page 2


  30:Drivers/STM32L4xx_HAL_Driver/Src/stm32l4xx_hal_exti.c ****         (++) Interrupt
  31:Drivers/STM32L4xx_HAL_Driver/Src/stm32l4xx_hal_exti.c ****         (++) Event
  32:Drivers/STM32L4xx_HAL_Driver/Src/stm32l4xx_hal_exti.c ****         (++) Both of them
  33:Drivers/STM32L4xx_HAL_Driver/Src/stm32l4xx_hal_exti.c **** 
  34:Drivers/STM32L4xx_HAL_Driver/Src/stm32l4xx_hal_exti.c ****     (+) Configurable Exti lines can be configured with 3 different triggers
  35:Drivers/STM32L4xx_HAL_Driver/Src/stm32l4xx_hal_exti.c ****         (++) Rising
  36:Drivers/STM32L4xx_HAL_Driver/Src/stm32l4xx_hal_exti.c ****         (++) Falling
  37:Drivers/STM32L4xx_HAL_Driver/Src/stm32l4xx_hal_exti.c ****         (++) Both of them
  38:Drivers/STM32L4xx_HAL_Driver/Src/stm32l4xx_hal_exti.c **** 
  39:Drivers/STM32L4xx_HAL_Driver/Src/stm32l4xx_hal_exti.c ****     (+) When set in interrupt mode, configurable Exti lines have two different
  40:Drivers/STM32L4xx_HAL_Driver/Src/stm32l4xx_hal_exti.c ****         interrupts pending registers which allow to distinguish which transition
  41:Drivers/STM32L4xx_HAL_Driver/Src/stm32l4xx_hal_exti.c ****         occurs:
  42:Drivers/STM32L4xx_HAL_Driver/Src/stm32l4xx_hal_exti.c ****         (++) Rising edge pending interrupt
  43:Drivers/STM32L4xx_HAL_Driver/Src/stm32l4xx_hal_exti.c ****         (++) Falling
  44:Drivers/STM32L4xx_HAL_Driver/Src/stm32l4xx_hal_exti.c **** 
  45:Drivers/STM32L4xx_HAL_Driver/Src/stm32l4xx_hal_exti.c ****     (+) Exti lines 0 to 15 are linked to gpio pin number 0 to 15. Gpio port can
  46:Drivers/STM32L4xx_HAL_Driver/Src/stm32l4xx_hal_exti.c ****         be selected through multiplexer.
  47:Drivers/STM32L4xx_HAL_Driver/Src/stm32l4xx_hal_exti.c **** 
  48:Drivers/STM32L4xx_HAL_Driver/Src/stm32l4xx_hal_exti.c ****                      ##### How to use this driver #####
  49:Drivers/STM32L4xx_HAL_Driver/Src/stm32l4xx_hal_exti.c ****   ==============================================================================
  50:Drivers/STM32L4xx_HAL_Driver/Src/stm32l4xx_hal_exti.c ****   [..]
  51:Drivers/STM32L4xx_HAL_Driver/Src/stm32l4xx_hal_exti.c **** 
  52:Drivers/STM32L4xx_HAL_Driver/Src/stm32l4xx_hal_exti.c ****     (#) Configure the EXTI line using HAL_EXTI_SetConfigLine().
  53:Drivers/STM32L4xx_HAL_Driver/Src/stm32l4xx_hal_exti.c ****         (++) Choose the interrupt line number by setting "Line" member from
  54:Drivers/STM32L4xx_HAL_Driver/Src/stm32l4xx_hal_exti.c ****              EXTI_ConfigTypeDef structure.
  55:Drivers/STM32L4xx_HAL_Driver/Src/stm32l4xx_hal_exti.c ****         (++) Configure the interrupt and/or event mode using "Mode" member from
  56:Drivers/STM32L4xx_HAL_Driver/Src/stm32l4xx_hal_exti.c ****              EXTI_ConfigTypeDef structure.
  57:Drivers/STM32L4xx_HAL_Driver/Src/stm32l4xx_hal_exti.c ****         (++) For configurable lines, configure rising and/or falling trigger
  58:Drivers/STM32L4xx_HAL_Driver/Src/stm32l4xx_hal_exti.c ****              "Trigger" member from EXTI_ConfigTypeDef structure.
  59:Drivers/STM32L4xx_HAL_Driver/Src/stm32l4xx_hal_exti.c ****         (++) For Exti lines linked to gpio, choose gpio port using "GPIOSel"
  60:Drivers/STM32L4xx_HAL_Driver/Src/stm32l4xx_hal_exti.c ****              member from GPIO_InitTypeDef structure.
  61:Drivers/STM32L4xx_HAL_Driver/Src/stm32l4xx_hal_exti.c **** 
  62:Drivers/STM32L4xx_HAL_Driver/Src/stm32l4xx_hal_exti.c ****     (#) Get current Exti configuration of a dedicated line using
  63:Drivers/STM32L4xx_HAL_Driver/Src/stm32l4xx_hal_exti.c ****         HAL_EXTI_GetConfigLine().
  64:Drivers/STM32L4xx_HAL_Driver/Src/stm32l4xx_hal_exti.c ****         (++) Provide exiting handle as parameter.
  65:Drivers/STM32L4xx_HAL_Driver/Src/stm32l4xx_hal_exti.c ****         (++) Provide pointer on EXTI_ConfigTypeDef structure as second parameter.
  66:Drivers/STM32L4xx_HAL_Driver/Src/stm32l4xx_hal_exti.c **** 
  67:Drivers/STM32L4xx_HAL_Driver/Src/stm32l4xx_hal_exti.c ****     (#) Clear Exti configuration of a dedicated line using HAL_EXTI_GetConfigLine().
  68:Drivers/STM32L4xx_HAL_Driver/Src/stm32l4xx_hal_exti.c ****         (++) Provide exiting handle as parameter.
  69:Drivers/STM32L4xx_HAL_Driver/Src/stm32l4xx_hal_exti.c **** 
  70:Drivers/STM32L4xx_HAL_Driver/Src/stm32l4xx_hal_exti.c ****     (#) Register callback to treat Exti interrupts using HAL_EXTI_RegisterCallback().
  71:Drivers/STM32L4xx_HAL_Driver/Src/stm32l4xx_hal_exti.c ****         (++) Provide exiting handle as first parameter.
  72:Drivers/STM32L4xx_HAL_Driver/Src/stm32l4xx_hal_exti.c ****         (++) Provide which callback will be registered using one value from
  73:Drivers/STM32L4xx_HAL_Driver/Src/stm32l4xx_hal_exti.c ****              EXTI_CallbackIDTypeDef.
  74:Drivers/STM32L4xx_HAL_Driver/Src/stm32l4xx_hal_exti.c ****         (++) Provide callback function pointer.
  75:Drivers/STM32L4xx_HAL_Driver/Src/stm32l4xx_hal_exti.c **** 
  76:Drivers/STM32L4xx_HAL_Driver/Src/stm32l4xx_hal_exti.c ****     (#) Get interrupt pending bit using HAL_EXTI_GetPending().
  77:Drivers/STM32L4xx_HAL_Driver/Src/stm32l4xx_hal_exti.c **** 
  78:Drivers/STM32L4xx_HAL_Driver/Src/stm32l4xx_hal_exti.c ****     (#) Clear interrupt pending bit using HAL_EXTI_GetPending().
  79:Drivers/STM32L4xx_HAL_Driver/Src/stm32l4xx_hal_exti.c **** 
  80:Drivers/STM32L4xx_HAL_Driver/Src/stm32l4xx_hal_exti.c ****     (#) Generate software interrupt using HAL_EXTI_GenerateSWI().
  81:Drivers/STM32L4xx_HAL_Driver/Src/stm32l4xx_hal_exti.c **** 
  82:Drivers/STM32L4xx_HAL_Driver/Src/stm32l4xx_hal_exti.c ****   @endverbatim
  83:Drivers/STM32L4xx_HAL_Driver/Src/stm32l4xx_hal_exti.c ****   */
  84:Drivers/STM32L4xx_HAL_Driver/Src/stm32l4xx_hal_exti.c **** 
  85:Drivers/STM32L4xx_HAL_Driver/Src/stm32l4xx_hal_exti.c **** /* Includes ------------------------------------------------------------------*/
  86:Drivers/STM32L4xx_HAL_Driver/Src/stm32l4xx_hal_exti.c **** #include "stm32l4xx_hal.h"
ARM GAS  /tmp/ccvbvPNS.s 			page 3


  87:Drivers/STM32L4xx_HAL_Driver/Src/stm32l4xx_hal_exti.c **** 
  88:Drivers/STM32L4xx_HAL_Driver/Src/stm32l4xx_hal_exti.c **** /** @addtogroup STM32L4xx_HAL_Driver
  89:Drivers/STM32L4xx_HAL_Driver/Src/stm32l4xx_hal_exti.c ****   * @{
  90:Drivers/STM32L4xx_HAL_Driver/Src/stm32l4xx_hal_exti.c ****   */
  91:Drivers/STM32L4xx_HAL_Driver/Src/stm32l4xx_hal_exti.c **** 
  92:Drivers/STM32L4xx_HAL_Driver/Src/stm32l4xx_hal_exti.c **** /** @addtogroup EXTI
  93:Drivers/STM32L4xx_HAL_Driver/Src/stm32l4xx_hal_exti.c ****   * @{
  94:Drivers/STM32L4xx_HAL_Driver/Src/stm32l4xx_hal_exti.c ****   */
  95:Drivers/STM32L4xx_HAL_Driver/Src/stm32l4xx_hal_exti.c **** /** MISRA C:2012 deviation rule has been granted for following rule:
  96:Drivers/STM32L4xx_HAL_Driver/Src/stm32l4xx_hal_exti.c ****   * Rule-18.1_b - Medium: Array `EXTICR' 1st subscript interval [0,7] may be out
  97:Drivers/STM32L4xx_HAL_Driver/Src/stm32l4xx_hal_exti.c ****   * of bounds [0,3] in following API :
  98:Drivers/STM32L4xx_HAL_Driver/Src/stm32l4xx_hal_exti.c ****   * HAL_EXTI_SetConfigLine
  99:Drivers/STM32L4xx_HAL_Driver/Src/stm32l4xx_hal_exti.c ****   * HAL_EXTI_GetConfigLine
 100:Drivers/STM32L4xx_HAL_Driver/Src/stm32l4xx_hal_exti.c ****   * HAL_EXTI_ClearConfigLine
 101:Drivers/STM32L4xx_HAL_Driver/Src/stm32l4xx_hal_exti.c ****   */
 102:Drivers/STM32L4xx_HAL_Driver/Src/stm32l4xx_hal_exti.c **** 
 103:Drivers/STM32L4xx_HAL_Driver/Src/stm32l4xx_hal_exti.c **** #ifdef HAL_EXTI_MODULE_ENABLED
 104:Drivers/STM32L4xx_HAL_Driver/Src/stm32l4xx_hal_exti.c **** 
 105:Drivers/STM32L4xx_HAL_Driver/Src/stm32l4xx_hal_exti.c **** /* Private typedef -----------------------------------------------------------*/
 106:Drivers/STM32L4xx_HAL_Driver/Src/stm32l4xx_hal_exti.c **** /* Private defines ------------------------------------------------------------*/
 107:Drivers/STM32L4xx_HAL_Driver/Src/stm32l4xx_hal_exti.c **** /** @defgroup EXTI_Private_Constants EXTI Private Constants
 108:Drivers/STM32L4xx_HAL_Driver/Src/stm32l4xx_hal_exti.c ****   * @{
 109:Drivers/STM32L4xx_HAL_Driver/Src/stm32l4xx_hal_exti.c ****   */
 110:Drivers/STM32L4xx_HAL_Driver/Src/stm32l4xx_hal_exti.c **** #define EXTI_MODE_OFFSET                    0x08u   /* 0x20: offset between MCU IMR/EMR registers *
 111:Drivers/STM32L4xx_HAL_Driver/Src/stm32l4xx_hal_exti.c **** #define EXTI_CONFIG_OFFSET                  0x08u   /* 0x20: offset between MCU Rising/Falling conf
 112:Drivers/STM32L4xx_HAL_Driver/Src/stm32l4xx_hal_exti.c **** /**
 113:Drivers/STM32L4xx_HAL_Driver/Src/stm32l4xx_hal_exti.c ****   * @}
 114:Drivers/STM32L4xx_HAL_Driver/Src/stm32l4xx_hal_exti.c ****   */
 115:Drivers/STM32L4xx_HAL_Driver/Src/stm32l4xx_hal_exti.c **** 
 116:Drivers/STM32L4xx_HAL_Driver/Src/stm32l4xx_hal_exti.c **** /* Private macros ------------------------------------------------------------*/
 117:Drivers/STM32L4xx_HAL_Driver/Src/stm32l4xx_hal_exti.c **** /* Private variables ---------------------------------------------------------*/
 118:Drivers/STM32L4xx_HAL_Driver/Src/stm32l4xx_hal_exti.c **** /* Private function prototypes -----------------------------------------------*/
 119:Drivers/STM32L4xx_HAL_Driver/Src/stm32l4xx_hal_exti.c **** /* Exported functions --------------------------------------------------------*/
 120:Drivers/STM32L4xx_HAL_Driver/Src/stm32l4xx_hal_exti.c **** 
 121:Drivers/STM32L4xx_HAL_Driver/Src/stm32l4xx_hal_exti.c **** /** @addtogroup EXTI_Exported_Functions
 122:Drivers/STM32L4xx_HAL_Driver/Src/stm32l4xx_hal_exti.c ****   * @{
 123:Drivers/STM32L4xx_HAL_Driver/Src/stm32l4xx_hal_exti.c ****   */
 124:Drivers/STM32L4xx_HAL_Driver/Src/stm32l4xx_hal_exti.c **** 
 125:Drivers/STM32L4xx_HAL_Driver/Src/stm32l4xx_hal_exti.c **** /** @addtogroup EXTI_Exported_Functions_Group1
 126:Drivers/STM32L4xx_HAL_Driver/Src/stm32l4xx_hal_exti.c ****  *  @brief    Configuration functions
 127:Drivers/STM32L4xx_HAL_Driver/Src/stm32l4xx_hal_exti.c ****  *
 128:Drivers/STM32L4xx_HAL_Driver/Src/stm32l4xx_hal_exti.c **** @verbatim
 129:Drivers/STM32L4xx_HAL_Driver/Src/stm32l4xx_hal_exti.c ****  ===============================================================================
 130:Drivers/STM32L4xx_HAL_Driver/Src/stm32l4xx_hal_exti.c ****               ##### Configuration functions #####
 131:Drivers/STM32L4xx_HAL_Driver/Src/stm32l4xx_hal_exti.c ****  ===============================================================================
 132:Drivers/STM32L4xx_HAL_Driver/Src/stm32l4xx_hal_exti.c **** 
 133:Drivers/STM32L4xx_HAL_Driver/Src/stm32l4xx_hal_exti.c **** @endverbatim
 134:Drivers/STM32L4xx_HAL_Driver/Src/stm32l4xx_hal_exti.c ****   * @{
 135:Drivers/STM32L4xx_HAL_Driver/Src/stm32l4xx_hal_exti.c ****   */
 136:Drivers/STM32L4xx_HAL_Driver/Src/stm32l4xx_hal_exti.c **** 
 137:Drivers/STM32L4xx_HAL_Driver/Src/stm32l4xx_hal_exti.c **** /**
 138:Drivers/STM32L4xx_HAL_Driver/Src/stm32l4xx_hal_exti.c ****   * @brief  Set configuration of a dedicated Exti line.
 139:Drivers/STM32L4xx_HAL_Driver/Src/stm32l4xx_hal_exti.c ****   * @param  hexti Exti handle.
 140:Drivers/STM32L4xx_HAL_Driver/Src/stm32l4xx_hal_exti.c ****   * @param  pExtiConfig Pointer on EXTI configuration to be set.
 141:Drivers/STM32L4xx_HAL_Driver/Src/stm32l4xx_hal_exti.c ****   * @retval HAL Status.
 142:Drivers/STM32L4xx_HAL_Driver/Src/stm32l4xx_hal_exti.c ****   */
 143:Drivers/STM32L4xx_HAL_Driver/Src/stm32l4xx_hal_exti.c **** HAL_StatusTypeDef HAL_EXTI_SetConfigLine(EXTI_HandleTypeDef *hexti, EXTI_ConfigTypeDef *pExtiConfig
ARM GAS  /tmp/ccvbvPNS.s 			page 4


 144:Drivers/STM32L4xx_HAL_Driver/Src/stm32l4xx_hal_exti.c **** {
  30              		.loc 1 144 1 view -0
  31              		.cfi_startproc
  32              		@ args = 0, pretend = 0, frame = 0
  33              		@ frame_needed = 0, uses_anonymous_args = 0
  34              		@ link register save eliminated.
 145:Drivers/STM32L4xx_HAL_Driver/Src/stm32l4xx_hal_exti.c ****   __IO uint32_t *regaddr;
  35              		.loc 1 145 3 view .LVU1
 146:Drivers/STM32L4xx_HAL_Driver/Src/stm32l4xx_hal_exti.c ****   uint32_t regval;
  36              		.loc 1 146 3 view .LVU2
 147:Drivers/STM32L4xx_HAL_Driver/Src/stm32l4xx_hal_exti.c ****   uint32_t linepos;
  37              		.loc 1 147 3 view .LVU3
 148:Drivers/STM32L4xx_HAL_Driver/Src/stm32l4xx_hal_exti.c ****   uint32_t maskline;
  38              		.loc 1 148 3 view .LVU4
 149:Drivers/STM32L4xx_HAL_Driver/Src/stm32l4xx_hal_exti.c ****   uint32_t offset;
  39              		.loc 1 149 3 view .LVU5
 150:Drivers/STM32L4xx_HAL_Driver/Src/stm32l4xx_hal_exti.c **** 
 151:Drivers/STM32L4xx_HAL_Driver/Src/stm32l4xx_hal_exti.c ****   /* Check null pointer */
 152:Drivers/STM32L4xx_HAL_Driver/Src/stm32l4xx_hal_exti.c ****   if ((hexti == NULL) || (pExtiConfig == NULL))
  40              		.loc 1 152 3 view .LVU6
  41              		.loc 1 152 6 is_stmt 0 view .LVU7
  42 0000 0028     		cmp	r0, #0
  43 0002 5FD0     		beq	.L12
  44              		.loc 1 152 23 discriminator 1 view .LVU8
  45 0004 0029     		cmp	r1, #0
  46 0006 5FD0     		beq	.L13
 144:Drivers/STM32L4xx_HAL_Driver/Src/stm32l4xx_hal_exti.c ****   __IO uint32_t *regaddr;
  47              		.loc 1 144 1 view .LVU9
  48 0008 F0B4     		push	{r4, r5, r6, r7}
  49              	.LCFI0:
  50              		.cfi_def_cfa_offset 16
  51              		.cfi_offset 4, -16
  52              		.cfi_offset 5, -12
  53              		.cfi_offset 6, -8
  54              		.cfi_offset 7, -4
 153:Drivers/STM32L4xx_HAL_Driver/Src/stm32l4xx_hal_exti.c ****   {
 154:Drivers/STM32L4xx_HAL_Driver/Src/stm32l4xx_hal_exti.c ****     return HAL_ERROR;
 155:Drivers/STM32L4xx_HAL_Driver/Src/stm32l4xx_hal_exti.c ****   }
 156:Drivers/STM32L4xx_HAL_Driver/Src/stm32l4xx_hal_exti.c **** 
 157:Drivers/STM32L4xx_HAL_Driver/Src/stm32l4xx_hal_exti.c ****   /* Check parameters */
 158:Drivers/STM32L4xx_HAL_Driver/Src/stm32l4xx_hal_exti.c ****   assert_param(IS_EXTI_LINE(pExtiConfig->Line));
  55              		.loc 1 158 3 is_stmt 1 view .LVU10
 159:Drivers/STM32L4xx_HAL_Driver/Src/stm32l4xx_hal_exti.c ****   assert_param(IS_EXTI_MODE(pExtiConfig->Mode));
  56              		.loc 1 159 3 view .LVU11
 160:Drivers/STM32L4xx_HAL_Driver/Src/stm32l4xx_hal_exti.c **** 
 161:Drivers/STM32L4xx_HAL_Driver/Src/stm32l4xx_hal_exti.c ****   /* Assign line number to handle */
 162:Drivers/STM32L4xx_HAL_Driver/Src/stm32l4xx_hal_exti.c ****   hexti->Line = pExtiConfig->Line;
  57              		.loc 1 162 3 view .LVU12
  58              		.loc 1 162 28 is_stmt 0 view .LVU13
  59 000a 0A68     		ldr	r2, [r1]
  60              		.loc 1 162 15 view .LVU14
  61 000c 0260     		str	r2, [r0]
 163:Drivers/STM32L4xx_HAL_Driver/Src/stm32l4xx_hal_exti.c **** 
 164:Drivers/STM32L4xx_HAL_Driver/Src/stm32l4xx_hal_exti.c ****   /* Compute line register offset and line mask */
 165:Drivers/STM32L4xx_HAL_Driver/Src/stm32l4xx_hal_exti.c ****   offset = ((pExtiConfig->Line & EXTI_REG_MASK) >> EXTI_REG_SHIFT);
  62              		.loc 1 165 3 is_stmt 1 view .LVU15
  63              		.loc 1 165 10 is_stmt 0 view .LVU16
ARM GAS  /tmp/ccvbvPNS.s 			page 5


  64 000e C2F30043 		ubfx	r3, r2, #16, #1
  65              	.LVL1:
 166:Drivers/STM32L4xx_HAL_Driver/Src/stm32l4xx_hal_exti.c ****   linepos = (pExtiConfig->Line & EXTI_PIN_MASK);
  66              		.loc 1 166 3 is_stmt 1 view .LVU17
  67              		.loc 1 166 11 is_stmt 0 view .LVU18
  68 0012 02F01F04 		and	r4, r2, #31
  69              	.LVL2:
 167:Drivers/STM32L4xx_HAL_Driver/Src/stm32l4xx_hal_exti.c ****   maskline = (1uL << linepos);
  70              		.loc 1 167 3 is_stmt 1 view .LVU19
  71              		.loc 1 167 12 is_stmt 0 view .LVU20
  72 0016 0120     		movs	r0, #1
  73              	.LVL3:
  74              		.loc 1 167 12 view .LVU21
  75 0018 A040     		lsls	r0, r0, r4
  76              	.LVL4:
 168:Drivers/STM32L4xx_HAL_Driver/Src/stm32l4xx_hal_exti.c **** 
 169:Drivers/STM32L4xx_HAL_Driver/Src/stm32l4xx_hal_exti.c ****   /* Configure triggers for configurable lines */
 170:Drivers/STM32L4xx_HAL_Driver/Src/stm32l4xx_hal_exti.c ****   if ((pExtiConfig->Line & EXTI_CONFIG) != 0x00u)
  77              		.loc 1 170 3 is_stmt 1 view .LVU22
  78              		.loc 1 170 6 is_stmt 0 view .LVU23
  79 001a 12F0007F 		tst	r2, #33554432
  80 001e 1BD0     		beq	.L3
 171:Drivers/STM32L4xx_HAL_Driver/Src/stm32l4xx_hal_exti.c ****   {
 172:Drivers/STM32L4xx_HAL_Driver/Src/stm32l4xx_hal_exti.c ****     assert_param(IS_EXTI_TRIGGER(pExtiConfig->Trigger));
  81              		.loc 1 172 5 is_stmt 1 view .LVU24
 173:Drivers/STM32L4xx_HAL_Driver/Src/stm32l4xx_hal_exti.c **** 
 174:Drivers/STM32L4xx_HAL_Driver/Src/stm32l4xx_hal_exti.c ****     /* Configure rising trigger */
 175:Drivers/STM32L4xx_HAL_Driver/Src/stm32l4xx_hal_exti.c ****     regaddr = (&EXTI->RTSR1 + (EXTI_CONFIG_OFFSET * offset));
  82              		.loc 1 175 5 view .LVU25
  83              		.loc 1 175 29 is_stmt 0 view .LVU26
  84 0020 4FEA431C 		lsl	ip, r3, #5
  85              		.loc 1 175 13 view .LVU27
  86 0024 294F     		ldr	r7, .L19
  87              	.LVL5:
 176:Drivers/STM32L4xx_HAL_Driver/Src/stm32l4xx_hal_exti.c ****     regval = *regaddr;
  88              		.loc 1 176 5 is_stmt 1 view .LVU28
  89              		.loc 1 176 12 is_stmt 0 view .LVU29
  90 0026 5CF80750 		ldr	r5, [ip, r7]
  91              	.LVL6:
 177:Drivers/STM32L4xx_HAL_Driver/Src/stm32l4xx_hal_exti.c **** 
 178:Drivers/STM32L4xx_HAL_Driver/Src/stm32l4xx_hal_exti.c ****     /* Mask or set line */
 179:Drivers/STM32L4xx_HAL_Driver/Src/stm32l4xx_hal_exti.c ****     if ((pExtiConfig->Trigger & EXTI_TRIGGER_RISING) != 0x00u)
  92              		.loc 1 179 5 is_stmt 1 view .LVU30
  93              		.loc 1 179 21 is_stmt 0 view .LVU31
  94 002a 8E68     		ldr	r6, [r1, #8]
  95              		.loc 1 179 8 view .LVU32
  96 002c 16F0010F 		tst	r6, #1
  97 0030 29D0     		beq	.L4
 180:Drivers/STM32L4xx_HAL_Driver/Src/stm32l4xx_hal_exti.c ****     {
 181:Drivers/STM32L4xx_HAL_Driver/Src/stm32l4xx_hal_exti.c ****       regval |= maskline;
  98              		.loc 1 181 7 is_stmt 1 view .LVU33
  99              		.loc 1 181 14 is_stmt 0 view .LVU34
 100 0032 0543     		orrs	r5, r5, r0
 101              	.LVL7:
 102              	.L5:
 182:Drivers/STM32L4xx_HAL_Driver/Src/stm32l4xx_hal_exti.c ****     }
 183:Drivers/STM32L4xx_HAL_Driver/Src/stm32l4xx_hal_exti.c ****     else
ARM GAS  /tmp/ccvbvPNS.s 			page 6


 184:Drivers/STM32L4xx_HAL_Driver/Src/stm32l4xx_hal_exti.c ****     {
 185:Drivers/STM32L4xx_HAL_Driver/Src/stm32l4xx_hal_exti.c ****       regval &= ~maskline;
 186:Drivers/STM32L4xx_HAL_Driver/Src/stm32l4xx_hal_exti.c ****     }
 187:Drivers/STM32L4xx_HAL_Driver/Src/stm32l4xx_hal_exti.c **** 
 188:Drivers/STM32L4xx_HAL_Driver/Src/stm32l4xx_hal_exti.c ****     /* Store rising trigger mode */
 189:Drivers/STM32L4xx_HAL_Driver/Src/stm32l4xx_hal_exti.c ****     *regaddr = regval;
 103              		.loc 1 189 5 is_stmt 1 view .LVU35
 104              		.loc 1 189 14 is_stmt 0 view .LVU36
 105 0034 4CF80750 		str	r5, [ip, r7]
 190:Drivers/STM32L4xx_HAL_Driver/Src/stm32l4xx_hal_exti.c **** 
 191:Drivers/STM32L4xx_HAL_Driver/Src/stm32l4xx_hal_exti.c ****     /* Configure falling trigger */
 192:Drivers/STM32L4xx_HAL_Driver/Src/stm32l4xx_hal_exti.c ****     regaddr = (&EXTI->FTSR1 + (EXTI_CONFIG_OFFSET * offset));
 106              		.loc 1 192 5 is_stmt 1 view .LVU37
 107              		.loc 1 192 13 is_stmt 0 view .LVU38
 108 0038 254E     		ldr	r6, .L19+4
 109              	.LVL8:
 193:Drivers/STM32L4xx_HAL_Driver/Src/stm32l4xx_hal_exti.c ****     regval = *regaddr;
 110              		.loc 1 193 5 is_stmt 1 view .LVU39
 111              		.loc 1 193 12 is_stmt 0 view .LVU40
 112 003a 5CF80650 		ldr	r5, [ip, r6]
 113              	.LVL9:
 194:Drivers/STM32L4xx_HAL_Driver/Src/stm32l4xx_hal_exti.c **** 
 195:Drivers/STM32L4xx_HAL_Driver/Src/stm32l4xx_hal_exti.c ****     /* Mask or set line */
 196:Drivers/STM32L4xx_HAL_Driver/Src/stm32l4xx_hal_exti.c ****     if ((pExtiConfig->Trigger & EXTI_TRIGGER_FALLING) != 0x00u)
 114              		.loc 1 196 5 is_stmt 1 view .LVU41
 115              		.loc 1 196 8 is_stmt 0 view .LVU42
 116 003e 8F68     		ldr	r7, [r1, #8]
 117 0040 17F0020F 		tst	r7, #2
 118 0044 22D0     		beq	.L6
 197:Drivers/STM32L4xx_HAL_Driver/Src/stm32l4xx_hal_exti.c ****     {
 198:Drivers/STM32L4xx_HAL_Driver/Src/stm32l4xx_hal_exti.c ****       regval |= maskline;
 119              		.loc 1 198 7 is_stmt 1 view .LVU43
 120              		.loc 1 198 14 is_stmt 0 view .LVU44
 121 0046 0543     		orrs	r5, r5, r0
 122              	.LVL10:
 123              	.L7:
 199:Drivers/STM32L4xx_HAL_Driver/Src/stm32l4xx_hal_exti.c ****     }
 200:Drivers/STM32L4xx_HAL_Driver/Src/stm32l4xx_hal_exti.c ****     else
 201:Drivers/STM32L4xx_HAL_Driver/Src/stm32l4xx_hal_exti.c ****     {
 202:Drivers/STM32L4xx_HAL_Driver/Src/stm32l4xx_hal_exti.c ****       regval &= ~maskline;
 203:Drivers/STM32L4xx_HAL_Driver/Src/stm32l4xx_hal_exti.c ****     }
 204:Drivers/STM32L4xx_HAL_Driver/Src/stm32l4xx_hal_exti.c **** 
 205:Drivers/STM32L4xx_HAL_Driver/Src/stm32l4xx_hal_exti.c ****     /* Store falling trigger mode */
 206:Drivers/STM32L4xx_HAL_Driver/Src/stm32l4xx_hal_exti.c ****     *regaddr = regval;
 124              		.loc 1 206 5 is_stmt 1 view .LVU45
 125              		.loc 1 206 14 is_stmt 0 view .LVU46
 126 0048 4CF80650 		str	r5, [ip, r6]
 207:Drivers/STM32L4xx_HAL_Driver/Src/stm32l4xx_hal_exti.c **** 
 208:Drivers/STM32L4xx_HAL_Driver/Src/stm32l4xx_hal_exti.c ****     /* Configure gpio port selection in case of gpio exti line */
 209:Drivers/STM32L4xx_HAL_Driver/Src/stm32l4xx_hal_exti.c ****     if ((pExtiConfig->Line & EXTI_GPIO) == EXTI_GPIO)
 127              		.loc 1 209 5 is_stmt 1 view .LVU47
 128              		.loc 1 209 28 is_stmt 0 view .LVU48
 129 004c 0D68     		ldr	r5, [r1]
 130              	.LVL11:
 131              		.loc 1 209 28 view .LVU49
 132 004e 05F0C06C 		and	ip, r5, #100663296
 133              	.LVL12:
ARM GAS  /tmp/ccvbvPNS.s 			page 7


 134              		.loc 1 209 8 view .LVU50
 135 0052 BCF1C06F 		cmp	ip, #100663296
 136 0056 1CD0     		beq	.L18
 137              	.LVL13:
 138              	.L3:
 210:Drivers/STM32L4xx_HAL_Driver/Src/stm32l4xx_hal_exti.c ****     {
 211:Drivers/STM32L4xx_HAL_Driver/Src/stm32l4xx_hal_exti.c ****       assert_param(IS_EXTI_GPIO_PORT(pExtiConfig->GPIOSel));
 212:Drivers/STM32L4xx_HAL_Driver/Src/stm32l4xx_hal_exti.c ****       assert_param(IS_EXTI_GPIO_PIN(linepos));
 213:Drivers/STM32L4xx_HAL_Driver/Src/stm32l4xx_hal_exti.c **** 
 214:Drivers/STM32L4xx_HAL_Driver/Src/stm32l4xx_hal_exti.c ****       regval = SYSCFG->EXTICR[linepos >> 2u];
 215:Drivers/STM32L4xx_HAL_Driver/Src/stm32l4xx_hal_exti.c ****       regval &= ~(SYSCFG_EXTICR1_EXTI0 << (SYSCFG_EXTICR1_EXTI1_Pos * (linepos & 0x03u)));
 216:Drivers/STM32L4xx_HAL_Driver/Src/stm32l4xx_hal_exti.c ****       regval |= (pExtiConfig->GPIOSel << (SYSCFG_EXTICR1_EXTI1_Pos * (linepos & 0x03u)));
 217:Drivers/STM32L4xx_HAL_Driver/Src/stm32l4xx_hal_exti.c ****       SYSCFG->EXTICR[linepos >> 2u] = regval;
 218:Drivers/STM32L4xx_HAL_Driver/Src/stm32l4xx_hal_exti.c ****     }
 219:Drivers/STM32L4xx_HAL_Driver/Src/stm32l4xx_hal_exti.c ****   }
 220:Drivers/STM32L4xx_HAL_Driver/Src/stm32l4xx_hal_exti.c **** 
 221:Drivers/STM32L4xx_HAL_Driver/Src/stm32l4xx_hal_exti.c ****   /* Configure interrupt mode : read current mode */
 222:Drivers/STM32L4xx_HAL_Driver/Src/stm32l4xx_hal_exti.c ****   regaddr = (&EXTI->IMR1 + (EXTI_MODE_OFFSET * offset));
 139              		.loc 1 222 3 is_stmt 1 view .LVU51
 140              		.loc 1 222 26 is_stmt 0 view .LVU52
 141 0058 5B01     		lsls	r3, r3, #5
 142              	.LVL14:
 143              		.loc 1 222 11 view .LVU53
 144 005a 03F18042 		add	r2, r3, #1073741824
 145 005e 02F58232 		add	r2, r2, #66560
 146              	.LVL15:
 223:Drivers/STM32L4xx_HAL_Driver/Src/stm32l4xx_hal_exti.c ****   regval = *regaddr;
 147              		.loc 1 223 3 is_stmt 1 view .LVU54
 148              		.loc 1 223 10 is_stmt 0 view .LVU55
 149 0062 1468     		ldr	r4, [r2]
 150              	.LVL16:
 224:Drivers/STM32L4xx_HAL_Driver/Src/stm32l4xx_hal_exti.c **** 
 225:Drivers/STM32L4xx_HAL_Driver/Src/stm32l4xx_hal_exti.c ****   /* Mask or set line */
 226:Drivers/STM32L4xx_HAL_Driver/Src/stm32l4xx_hal_exti.c ****   if ((pExtiConfig->Mode & EXTI_MODE_INTERRUPT) != 0x00u)
 151              		.loc 1 226 3 is_stmt 1 view .LVU56
 152              		.loc 1 226 6 is_stmt 0 view .LVU57
 153 0064 4D68     		ldr	r5, [r1, #4]
 154 0066 15F0010F 		tst	r5, #1
 155 006a 25D0     		beq	.L8
 227:Drivers/STM32L4xx_HAL_Driver/Src/stm32l4xx_hal_exti.c ****   {
 228:Drivers/STM32L4xx_HAL_Driver/Src/stm32l4xx_hal_exti.c ****     regval |= maskline;
 156              		.loc 1 228 5 is_stmt 1 view .LVU58
 157              		.loc 1 228 12 is_stmt 0 view .LVU59
 158 006c 0443     		orrs	r4, r4, r0
 159              	.LVL17:
 160              	.L9:
 229:Drivers/STM32L4xx_HAL_Driver/Src/stm32l4xx_hal_exti.c ****   }
 230:Drivers/STM32L4xx_HAL_Driver/Src/stm32l4xx_hal_exti.c ****   else
 231:Drivers/STM32L4xx_HAL_Driver/Src/stm32l4xx_hal_exti.c ****   {
 232:Drivers/STM32L4xx_HAL_Driver/Src/stm32l4xx_hal_exti.c ****     regval &= ~maskline;
 233:Drivers/STM32L4xx_HAL_Driver/Src/stm32l4xx_hal_exti.c ****   }
 234:Drivers/STM32L4xx_HAL_Driver/Src/stm32l4xx_hal_exti.c **** 
 235:Drivers/STM32L4xx_HAL_Driver/Src/stm32l4xx_hal_exti.c ****   /* Store interrupt mode */
 236:Drivers/STM32L4xx_HAL_Driver/Src/stm32l4xx_hal_exti.c ****   *regaddr = regval;
 161              		.loc 1 236 3 is_stmt 1 view .LVU60
 162              		.loc 1 236 12 is_stmt 0 view .LVU61
 163 006e 1460     		str	r4, [r2]
ARM GAS  /tmp/ccvbvPNS.s 			page 8


 237:Drivers/STM32L4xx_HAL_Driver/Src/stm32l4xx_hal_exti.c **** 
 238:Drivers/STM32L4xx_HAL_Driver/Src/stm32l4xx_hal_exti.c ****   /* The event mode cannot be configured if the line does not support it */
 239:Drivers/STM32L4xx_HAL_Driver/Src/stm32l4xx_hal_exti.c ****   assert_param(((pExtiConfig->Line & EXTI_EVENT) == EXTI_EVENT) || ((pExtiConfig->Mode & EXTI_MODE_
 164              		.loc 1 239 3 is_stmt 1 view .LVU62
 240:Drivers/STM32L4xx_HAL_Driver/Src/stm32l4xx_hal_exti.c **** 
 241:Drivers/STM32L4xx_HAL_Driver/Src/stm32l4xx_hal_exti.c ****   /* Configure event mode : read current mode */
 242:Drivers/STM32L4xx_HAL_Driver/Src/stm32l4xx_hal_exti.c ****   regaddr = (&EXTI->EMR1 + (EXTI_MODE_OFFSET * offset));
 165              		.loc 1 242 3 view .LVU63
 166              		.loc 1 242 11 is_stmt 0 view .LVU64
 167 0070 184C     		ldr	r4, .L19+8
 168              	.LVL18:
 243:Drivers/STM32L4xx_HAL_Driver/Src/stm32l4xx_hal_exti.c ****   regval = *regaddr;
 169              		.loc 1 243 3 is_stmt 1 view .LVU65
 170              		.loc 1 243 10 is_stmt 0 view .LVU66
 171 0072 1A59     		ldr	r2, [r3, r4]
 172              	.LVL19:
 244:Drivers/STM32L4xx_HAL_Driver/Src/stm32l4xx_hal_exti.c **** 
 245:Drivers/STM32L4xx_HAL_Driver/Src/stm32l4xx_hal_exti.c ****   /* Mask or set line */
 246:Drivers/STM32L4xx_HAL_Driver/Src/stm32l4xx_hal_exti.c ****   if ((pExtiConfig->Mode & EXTI_MODE_EVENT) != 0x00u)
 173              		.loc 1 246 3 is_stmt 1 view .LVU67
 174              		.loc 1 246 19 is_stmt 0 view .LVU68
 175 0074 4968     		ldr	r1, [r1, #4]
 176              	.LVL20:
 177              		.loc 1 246 6 view .LVU69
 178 0076 11F0020F 		tst	r1, #2
 179 007a 20D0     		beq	.L10
 247:Drivers/STM32L4xx_HAL_Driver/Src/stm32l4xx_hal_exti.c ****   {
 248:Drivers/STM32L4xx_HAL_Driver/Src/stm32l4xx_hal_exti.c ****     regval |= maskline;
 180              		.loc 1 248 5 is_stmt 1 view .LVU70
 181              		.loc 1 248 12 is_stmt 0 view .LVU71
 182 007c 1043     		orrs	r0, r0, r2
 183              	.LVL21:
 184              	.L11:
 249:Drivers/STM32L4xx_HAL_Driver/Src/stm32l4xx_hal_exti.c ****   }
 250:Drivers/STM32L4xx_HAL_Driver/Src/stm32l4xx_hal_exti.c ****   else
 251:Drivers/STM32L4xx_HAL_Driver/Src/stm32l4xx_hal_exti.c ****   {
 252:Drivers/STM32L4xx_HAL_Driver/Src/stm32l4xx_hal_exti.c ****     regval &= ~maskline;
 253:Drivers/STM32L4xx_HAL_Driver/Src/stm32l4xx_hal_exti.c ****   }
 254:Drivers/STM32L4xx_HAL_Driver/Src/stm32l4xx_hal_exti.c **** 
 255:Drivers/STM32L4xx_HAL_Driver/Src/stm32l4xx_hal_exti.c ****   /* Store event mode */
 256:Drivers/STM32L4xx_HAL_Driver/Src/stm32l4xx_hal_exti.c ****   *regaddr = regval;
 185              		.loc 1 256 3 is_stmt 1 view .LVU72
 186              		.loc 1 256 12 is_stmt 0 view .LVU73
 187 007e 1851     		str	r0, [r3, r4]
 257:Drivers/STM32L4xx_HAL_Driver/Src/stm32l4xx_hal_exti.c **** 
 258:Drivers/STM32L4xx_HAL_Driver/Src/stm32l4xx_hal_exti.c ****   return HAL_OK;
 188              		.loc 1 258 3 is_stmt 1 view .LVU74
 189              		.loc 1 258 10 is_stmt 0 view .LVU75
 190 0080 0020     		movs	r0, #0
 191              	.LVL22:
 259:Drivers/STM32L4xx_HAL_Driver/Src/stm32l4xx_hal_exti.c **** }
 192              		.loc 1 259 1 view .LVU76
 193 0082 F0BC     		pop	{r4, r5, r6, r7}
 194              	.LCFI1:
 195              		.cfi_remember_state
 196              		.cfi_restore 7
 197              		.cfi_restore 6
ARM GAS  /tmp/ccvbvPNS.s 			page 9


 198              		.cfi_restore 5
 199              		.cfi_restore 4
 200              		.cfi_def_cfa_offset 0
 201              	.LVL23:
 202              		.loc 1 259 1 view .LVU77
 203 0084 7047     		bx	lr
 204              	.LVL24:
 205              	.L4:
 206              	.LCFI2:
 207              		.cfi_restore_state
 185:Drivers/STM32L4xx_HAL_Driver/Src/stm32l4xx_hal_exti.c ****     }
 208              		.loc 1 185 7 is_stmt 1 view .LVU78
 185:Drivers/STM32L4xx_HAL_Driver/Src/stm32l4xx_hal_exti.c ****     }
 209              		.loc 1 185 14 is_stmt 0 view .LVU79
 210 0086 25EA0005 		bic	r5, r5, r0
 211              	.LVL25:
 185:Drivers/STM32L4xx_HAL_Driver/Src/stm32l4xx_hal_exti.c ****     }
 212              		.loc 1 185 14 view .LVU80
 213 008a D3E7     		b	.L5
 214              	.LVL26:
 215              	.L6:
 202:Drivers/STM32L4xx_HAL_Driver/Src/stm32l4xx_hal_exti.c ****     }
 216              		.loc 1 202 7 is_stmt 1 view .LVU81
 202:Drivers/STM32L4xx_HAL_Driver/Src/stm32l4xx_hal_exti.c ****     }
 217              		.loc 1 202 14 is_stmt 0 view .LVU82
 218 008c 25EA0005 		bic	r5, r5, r0
 219              	.LVL27:
 202:Drivers/STM32L4xx_HAL_Driver/Src/stm32l4xx_hal_exti.c ****     }
 220              		.loc 1 202 14 view .LVU83
 221 0090 DAE7     		b	.L7
 222              	.LVL28:
 223              	.L18:
 211:Drivers/STM32L4xx_HAL_Driver/Src/stm32l4xx_hal_exti.c ****       assert_param(IS_EXTI_GPIO_PIN(linepos));
 224              		.loc 1 211 7 is_stmt 1 view .LVU84
 212:Drivers/STM32L4xx_HAL_Driver/Src/stm32l4xx_hal_exti.c **** 
 225              		.loc 1 212 7 view .LVU85
 214:Drivers/STM32L4xx_HAL_Driver/Src/stm32l4xx_hal_exti.c ****       regval &= ~(SYSCFG_EXTICR1_EXTI0 << (SYSCFG_EXTICR1_EXTI1_Pos * (linepos & 0x03u)));
 226              		.loc 1 214 7 view .LVU86
 214:Drivers/STM32L4xx_HAL_Driver/Src/stm32l4xx_hal_exti.c ****       regval &= ~(SYSCFG_EXTICR1_EXTI0 << (SYSCFG_EXTICR1_EXTI1_Pos * (linepos & 0x03u)));
 227              		.loc 1 214 39 is_stmt 0 view .LVU87
 228 0092 A408     		lsrs	r4, r4, #2
 229              	.LVL29:
 214:Drivers/STM32L4xx_HAL_Driver/Src/stm32l4xx_hal_exti.c ****       regval &= ~(SYSCFG_EXTICR1_EXTI0 << (SYSCFG_EXTICR1_EXTI1_Pos * (linepos & 0x03u)));
 230              		.loc 1 214 14 view .LVU88
 231 0094 104F     		ldr	r7, .L19+12
 232 0096 0234     		adds	r4, r4, #2
 233 0098 57F82460 		ldr	r6, [r7, r4, lsl #2]
 234              	.LVL30:
 215:Drivers/STM32L4xx_HAL_Driver/Src/stm32l4xx_hal_exti.c ****       regval |= (pExtiConfig->GPIOSel << (SYSCFG_EXTICR1_EXTI1_Pos * (linepos & 0x03u)));
 235              		.loc 1 215 7 is_stmt 1 view .LVU89
 215:Drivers/STM32L4xx_HAL_Driver/Src/stm32l4xx_hal_exti.c ****       regval |= (pExtiConfig->GPIOSel << (SYSCFG_EXTICR1_EXTI1_Pos * (linepos & 0x03u)));
 236              		.loc 1 215 80 is_stmt 0 view .LVU90
 237 009c 02F00302 		and	r2, r2, #3
 238              	.LVL31:
 215:Drivers/STM32L4xx_HAL_Driver/Src/stm32l4xx_hal_exti.c ****       regval |= (pExtiConfig->GPIOSel << (SYSCFG_EXTICR1_EXTI1_Pos * (linepos & 0x03u)));
 239              		.loc 1 215 69 view .LVU91
 240 00a0 9200     		lsls	r2, r2, #2
ARM GAS  /tmp/ccvbvPNS.s 			page 10


 215:Drivers/STM32L4xx_HAL_Driver/Src/stm32l4xx_hal_exti.c ****       regval |= (pExtiConfig->GPIOSel << (SYSCFG_EXTICR1_EXTI1_Pos * (linepos & 0x03u)));
 241              		.loc 1 215 40 view .LVU92
 242 00a2 0725     		movs	r5, #7
 243 00a4 9540     		lsls	r5, r5, r2
 215:Drivers/STM32L4xx_HAL_Driver/Src/stm32l4xx_hal_exti.c ****       regval |= (pExtiConfig->GPIOSel << (SYSCFG_EXTICR1_EXTI1_Pos * (linepos & 0x03u)));
 244              		.loc 1 215 14 view .LVU93
 245 00a6 26EA0506 		bic	r6, r6, r5
 246              	.LVL32:
 216:Drivers/STM32L4xx_HAL_Driver/Src/stm32l4xx_hal_exti.c ****       SYSCFG->EXTICR[linepos >> 2u] = regval;
 247              		.loc 1 216 7 is_stmt 1 view .LVU94
 216:Drivers/STM32L4xx_HAL_Driver/Src/stm32l4xx_hal_exti.c ****       SYSCFG->EXTICR[linepos >> 2u] = regval;
 248              		.loc 1 216 29 is_stmt 0 view .LVU95
 249 00aa CD68     		ldr	r5, [r1, #12]
 216:Drivers/STM32L4xx_HAL_Driver/Src/stm32l4xx_hal_exti.c ****       SYSCFG->EXTICR[linepos >> 2u] = regval;
 250              		.loc 1 216 39 view .LVU96
 251 00ac 05FA02F2 		lsl	r2, r5, r2
 216:Drivers/STM32L4xx_HAL_Driver/Src/stm32l4xx_hal_exti.c ****       SYSCFG->EXTICR[linepos >> 2u] = regval;
 252              		.loc 1 216 14 view .LVU97
 253 00b0 3243     		orrs	r2, r2, r6
 254              	.LVL33:
 217:Drivers/STM32L4xx_HAL_Driver/Src/stm32l4xx_hal_exti.c ****     }
 255              		.loc 1 217 7 is_stmt 1 view .LVU98
 217:Drivers/STM32L4xx_HAL_Driver/Src/stm32l4xx_hal_exti.c ****     }
 256              		.loc 1 217 37 is_stmt 0 view .LVU99
 257 00b2 47F82420 		str	r2, [r7, r4, lsl #2]
 258 00b6 CFE7     		b	.L3
 259              	.LVL34:
 260              	.L8:
 232:Drivers/STM32L4xx_HAL_Driver/Src/stm32l4xx_hal_exti.c ****   }
 261              		.loc 1 232 5 is_stmt 1 view .LVU100
 232:Drivers/STM32L4xx_HAL_Driver/Src/stm32l4xx_hal_exti.c ****   }
 262              		.loc 1 232 12 is_stmt 0 view .LVU101
 263 00b8 24EA0004 		bic	r4, r4, r0
 264              	.LVL35:
 232:Drivers/STM32L4xx_HAL_Driver/Src/stm32l4xx_hal_exti.c ****   }
 265              		.loc 1 232 12 view .LVU102
 266 00bc D7E7     		b	.L9
 267              	.LVL36:
 268              	.L10:
 252:Drivers/STM32L4xx_HAL_Driver/Src/stm32l4xx_hal_exti.c ****   }
 269              		.loc 1 252 5 is_stmt 1 view .LVU103
 252:Drivers/STM32L4xx_HAL_Driver/Src/stm32l4xx_hal_exti.c ****   }
 270              		.loc 1 252 12 is_stmt 0 view .LVU104
 271 00be 22EA0000 		bic	r0, r2, r0
 272              	.LVL37:
 252:Drivers/STM32L4xx_HAL_Driver/Src/stm32l4xx_hal_exti.c ****   }
 273              		.loc 1 252 12 view .LVU105
 274 00c2 DCE7     		b	.L11
 275              	.LVL38:
 276              	.L12:
 277              	.LCFI3:
 278              		.cfi_def_cfa_offset 0
 279              		.cfi_restore 4
 280              		.cfi_restore 5
 281              		.cfi_restore 6
 282              		.cfi_restore 7
 154:Drivers/STM32L4xx_HAL_Driver/Src/stm32l4xx_hal_exti.c ****   }
ARM GAS  /tmp/ccvbvPNS.s 			page 11


 283              		.loc 1 154 12 view .LVU106
 284 00c4 0120     		movs	r0, #1
 285              	.LVL39:
 154:Drivers/STM32L4xx_HAL_Driver/Src/stm32l4xx_hal_exti.c ****   }
 286              		.loc 1 154 12 view .LVU107
 287 00c6 7047     		bx	lr
 288              	.LVL40:
 289              	.L13:
 154:Drivers/STM32L4xx_HAL_Driver/Src/stm32l4xx_hal_exti.c ****   }
 290              		.loc 1 154 12 view .LVU108
 291 00c8 0120     		movs	r0, #1
 292              	.LVL41:
 293              		.loc 1 259 1 view .LVU109
 294 00ca 7047     		bx	lr
 295              	.L20:
 296              		.align	2
 297              	.L19:
 298 00cc 08040140 		.word	1073808392
 299 00d0 0C040140 		.word	1073808396
 300 00d4 04040140 		.word	1073808388
 301 00d8 00000140 		.word	1073807360
 302              		.cfi_endproc
 303              	.LFE132:
 305              		.section	.text.HAL_EXTI_GetConfigLine,"ax",%progbits
 306              		.align	1
 307              		.global	HAL_EXTI_GetConfigLine
 308              		.syntax unified
 309              		.thumb
 310              		.thumb_func
 311              		.fpu fpv4-sp-d16
 313              	HAL_EXTI_GetConfigLine:
 314              	.LVL42:
 315              	.LFB133:
 260:Drivers/STM32L4xx_HAL_Driver/Src/stm32l4xx_hal_exti.c **** 
 261:Drivers/STM32L4xx_HAL_Driver/Src/stm32l4xx_hal_exti.c **** 
 262:Drivers/STM32L4xx_HAL_Driver/Src/stm32l4xx_hal_exti.c **** /**
 263:Drivers/STM32L4xx_HAL_Driver/Src/stm32l4xx_hal_exti.c ****   * @brief  Get configuration of a dedicated Exti line.
 264:Drivers/STM32L4xx_HAL_Driver/Src/stm32l4xx_hal_exti.c ****   * @param  hexti Exti handle.
 265:Drivers/STM32L4xx_HAL_Driver/Src/stm32l4xx_hal_exti.c ****   * @param  pExtiConfig Pointer on structure to store Exti configuration.
 266:Drivers/STM32L4xx_HAL_Driver/Src/stm32l4xx_hal_exti.c ****   * @retval HAL Status.
 267:Drivers/STM32L4xx_HAL_Driver/Src/stm32l4xx_hal_exti.c ****   */
 268:Drivers/STM32L4xx_HAL_Driver/Src/stm32l4xx_hal_exti.c **** HAL_StatusTypeDef HAL_EXTI_GetConfigLine(EXTI_HandleTypeDef *hexti, EXTI_ConfigTypeDef *pExtiConfig
 269:Drivers/STM32L4xx_HAL_Driver/Src/stm32l4xx_hal_exti.c **** {
 316              		.loc 1 269 1 is_stmt 1 view -0
 317              		.cfi_startproc
 318              		@ args = 0, pretend = 0, frame = 0
 319              		@ frame_needed = 0, uses_anonymous_args = 0
 270:Drivers/STM32L4xx_HAL_Driver/Src/stm32l4xx_hal_exti.c ****   __IO uint32_t *regaddr;
 320              		.loc 1 270 3 view .LVU111
 271:Drivers/STM32L4xx_HAL_Driver/Src/stm32l4xx_hal_exti.c ****   uint32_t regval;
 321              		.loc 1 271 3 view .LVU112
 272:Drivers/STM32L4xx_HAL_Driver/Src/stm32l4xx_hal_exti.c ****   uint32_t linepos;
 322              		.loc 1 272 3 view .LVU113
 273:Drivers/STM32L4xx_HAL_Driver/Src/stm32l4xx_hal_exti.c ****   uint32_t maskline;
 323              		.loc 1 273 3 view .LVU114
 274:Drivers/STM32L4xx_HAL_Driver/Src/stm32l4xx_hal_exti.c ****   uint32_t offset;
 324              		.loc 1 274 3 view .LVU115
ARM GAS  /tmp/ccvbvPNS.s 			page 12


 275:Drivers/STM32L4xx_HAL_Driver/Src/stm32l4xx_hal_exti.c **** 
 276:Drivers/STM32L4xx_HAL_Driver/Src/stm32l4xx_hal_exti.c ****   /* Check null pointer */
 277:Drivers/STM32L4xx_HAL_Driver/Src/stm32l4xx_hal_exti.c ****   if ((hexti == NULL) || (pExtiConfig == NULL))
 325              		.loc 1 277 3 view .LVU116
 326              		.loc 1 277 6 is_stmt 0 view .LVU117
 327 0000 0028     		cmp	r0, #0
 328 0002 4DD0     		beq	.L28
 329              		.loc 1 277 23 discriminator 1 view .LVU118
 330 0004 0029     		cmp	r1, #0
 331 0006 4DD0     		beq	.L29
 269:Drivers/STM32L4xx_HAL_Driver/Src/stm32l4xx_hal_exti.c ****   __IO uint32_t *regaddr;
 332              		.loc 1 269 1 view .LVU119
 333 0008 10B5     		push	{r4, lr}
 334              	.LCFI4:
 335              		.cfi_def_cfa_offset 8
 336              		.cfi_offset 4, -8
 337              		.cfi_offset 14, -4
 278:Drivers/STM32L4xx_HAL_Driver/Src/stm32l4xx_hal_exti.c ****   {
 279:Drivers/STM32L4xx_HAL_Driver/Src/stm32l4xx_hal_exti.c ****     return HAL_ERROR;
 280:Drivers/STM32L4xx_HAL_Driver/Src/stm32l4xx_hal_exti.c ****   }
 281:Drivers/STM32L4xx_HAL_Driver/Src/stm32l4xx_hal_exti.c **** 
 282:Drivers/STM32L4xx_HAL_Driver/Src/stm32l4xx_hal_exti.c ****   /* Check the parameter */
 283:Drivers/STM32L4xx_HAL_Driver/Src/stm32l4xx_hal_exti.c ****   assert_param(IS_EXTI_LINE(hexti->Line));
 338              		.loc 1 283 3 is_stmt 1 view .LVU120
 284:Drivers/STM32L4xx_HAL_Driver/Src/stm32l4xx_hal_exti.c **** 
 285:Drivers/STM32L4xx_HAL_Driver/Src/stm32l4xx_hal_exti.c ****   /* Store handle line number to configuration structure */
 286:Drivers/STM32L4xx_HAL_Driver/Src/stm32l4xx_hal_exti.c ****   pExtiConfig->Line = hexti->Line;
 339              		.loc 1 286 3 view .LVU121
 340              		.loc 1 286 28 is_stmt 0 view .LVU122
 341 000a 0368     		ldr	r3, [r0]
 342              		.loc 1 286 21 view .LVU123
 343 000c 0B60     		str	r3, [r1]
 287:Drivers/STM32L4xx_HAL_Driver/Src/stm32l4xx_hal_exti.c **** 
 288:Drivers/STM32L4xx_HAL_Driver/Src/stm32l4xx_hal_exti.c ****   /* Compute line register offset and line mask */
 289:Drivers/STM32L4xx_HAL_Driver/Src/stm32l4xx_hal_exti.c ****   offset = ((pExtiConfig->Line & EXTI_REG_MASK) >> EXTI_REG_SHIFT);
 344              		.loc 1 289 3 is_stmt 1 view .LVU124
 345              		.loc 1 289 10 is_stmt 0 view .LVU125
 346 000e C3F30040 		ubfx	r0, r3, #16, #1
 347              	.LVL43:
 290:Drivers/STM32L4xx_HAL_Driver/Src/stm32l4xx_hal_exti.c ****   linepos = (pExtiConfig->Line & EXTI_PIN_MASK);
 348              		.loc 1 290 3 is_stmt 1 view .LVU126
 349              		.loc 1 290 11 is_stmt 0 view .LVU127
 350 0012 03F01F0E 		and	lr, r3, #31
 351              	.LVL44:
 291:Drivers/STM32L4xx_HAL_Driver/Src/stm32l4xx_hal_exti.c ****   maskline = (1uL << linepos);
 352              		.loc 1 291 3 is_stmt 1 view .LVU128
 353              		.loc 1 291 12 is_stmt 0 view .LVU129
 354 0016 0122     		movs	r2, #1
 355 0018 02FA0EF2 		lsl	r2, r2, lr
 356              	.LVL45:
 292:Drivers/STM32L4xx_HAL_Driver/Src/stm32l4xx_hal_exti.c **** 
 293:Drivers/STM32L4xx_HAL_Driver/Src/stm32l4xx_hal_exti.c ****   /* 1] Get core mode : interrupt */
 294:Drivers/STM32L4xx_HAL_Driver/Src/stm32l4xx_hal_exti.c ****   regaddr = (&EXTI->IMR1 + (EXTI_MODE_OFFSET * offset));
 357              		.loc 1 294 3 is_stmt 1 view .LVU130
 358              		.loc 1 294 26 is_stmt 0 view .LVU131
 359 001c 4001     		lsls	r0, r0, #5
 360              	.LVL46:
ARM GAS  /tmp/ccvbvPNS.s 			page 13


 361              		.loc 1 294 11 view .LVU132
 362 001e 00F1804C 		add	ip, r0, #1073741824
 363 0022 0CF5823C 		add	ip, ip, #66560
 364              	.LVL47:
 295:Drivers/STM32L4xx_HAL_Driver/Src/stm32l4xx_hal_exti.c ****   regval = *regaddr;
 365              		.loc 1 295 3 is_stmt 1 view .LVU133
 366              		.loc 1 295 10 is_stmt 0 view .LVU134
 367 0026 DCF80040 		ldr	r4, [ip]
 368              	.LVL48:
 296:Drivers/STM32L4xx_HAL_Driver/Src/stm32l4xx_hal_exti.c **** 
 297:Drivers/STM32L4xx_HAL_Driver/Src/stm32l4xx_hal_exti.c ****   /* Check if selected line is enable */
 298:Drivers/STM32L4xx_HAL_Driver/Src/stm32l4xx_hal_exti.c ****   if ((regval & maskline) != 0x00u)
 369              		.loc 1 298 3 is_stmt 1 view .LVU135
 370              		.loc 1 298 6 is_stmt 0 view .LVU136
 371 002a 2242     		tst	r2, r4
 372 002c 24D0     		beq	.L23
 299:Drivers/STM32L4xx_HAL_Driver/Src/stm32l4xx_hal_exti.c ****   {
 300:Drivers/STM32L4xx_HAL_Driver/Src/stm32l4xx_hal_exti.c ****     pExtiConfig->Mode = EXTI_MODE_INTERRUPT;
 373              		.loc 1 300 5 is_stmt 1 view .LVU137
 374              		.loc 1 300 23 is_stmt 0 view .LVU138
 375 002e 0124     		movs	r4, #1
 376              	.LVL49:
 377              		.loc 1 300 23 view .LVU139
 378 0030 4C60     		str	r4, [r1, #4]
 379              	.L24:
 301:Drivers/STM32L4xx_HAL_Driver/Src/stm32l4xx_hal_exti.c ****   }
 302:Drivers/STM32L4xx_HAL_Driver/Src/stm32l4xx_hal_exti.c ****   else
 303:Drivers/STM32L4xx_HAL_Driver/Src/stm32l4xx_hal_exti.c ****   {
 304:Drivers/STM32L4xx_HAL_Driver/Src/stm32l4xx_hal_exti.c ****     pExtiConfig->Mode = EXTI_MODE_NONE;
 305:Drivers/STM32L4xx_HAL_Driver/Src/stm32l4xx_hal_exti.c ****   }
 306:Drivers/STM32L4xx_HAL_Driver/Src/stm32l4xx_hal_exti.c **** 
 307:Drivers/STM32L4xx_HAL_Driver/Src/stm32l4xx_hal_exti.c ****   /* Get event mode */
 308:Drivers/STM32L4xx_HAL_Driver/Src/stm32l4xx_hal_exti.c ****   regaddr = (&EXTI->EMR1 + (EXTI_MODE_OFFSET * offset));
 380              		.loc 1 308 3 is_stmt 1 view .LVU140
 381              		.loc 1 308 11 is_stmt 0 view .LVU141
 382 0032 1E4C     		ldr	r4, .L37
 383              	.LVL50:
 309:Drivers/STM32L4xx_HAL_Driver/Src/stm32l4xx_hal_exti.c ****   regval = *regaddr;
 384              		.loc 1 309 3 is_stmt 1 view .LVU142
 385              		.loc 1 309 10 is_stmt 0 view .LVU143
 386 0034 0459     		ldr	r4, [r0, r4]
 387              	.LVL51:
 310:Drivers/STM32L4xx_HAL_Driver/Src/stm32l4xx_hal_exti.c **** 
 311:Drivers/STM32L4xx_HAL_Driver/Src/stm32l4xx_hal_exti.c ****   /* Check if selected line is enable */
 312:Drivers/STM32L4xx_HAL_Driver/Src/stm32l4xx_hal_exti.c ****   if ((regval & maskline) != 0x00u)
 388              		.loc 1 312 3 is_stmt 1 view .LVU144
 389              		.loc 1 312 6 is_stmt 0 view .LVU145
 390 0036 2242     		tst	r2, r4
 391 0038 03D0     		beq	.L25
 313:Drivers/STM32L4xx_HAL_Driver/Src/stm32l4xx_hal_exti.c ****   {
 314:Drivers/STM32L4xx_HAL_Driver/Src/stm32l4xx_hal_exti.c ****     pExtiConfig->Mode |= EXTI_MODE_EVENT;
 392              		.loc 1 314 5 is_stmt 1 view .LVU146
 393              		.loc 1 314 23 is_stmt 0 view .LVU147
 394 003a 4C68     		ldr	r4, [r1, #4]
 395              	.LVL52:
 396              		.loc 1 314 23 view .LVU148
 397 003c 44F00204 		orr	r4, r4, #2
ARM GAS  /tmp/ccvbvPNS.s 			page 14


 398 0040 4C60     		str	r4, [r1, #4]
 399              	.L25:
 315:Drivers/STM32L4xx_HAL_Driver/Src/stm32l4xx_hal_exti.c ****   }
 316:Drivers/STM32L4xx_HAL_Driver/Src/stm32l4xx_hal_exti.c **** 
 317:Drivers/STM32L4xx_HAL_Driver/Src/stm32l4xx_hal_exti.c ****   /* Get default Trigger and GPIOSel configuration */
 318:Drivers/STM32L4xx_HAL_Driver/Src/stm32l4xx_hal_exti.c ****   pExtiConfig->Trigger = EXTI_TRIGGER_NONE;
 400              		.loc 1 318 3 is_stmt 1 view .LVU149
 401              		.loc 1 318 24 is_stmt 0 view .LVU150
 402 0042 0024     		movs	r4, #0
 403 0044 8C60     		str	r4, [r1, #8]
 319:Drivers/STM32L4xx_HAL_Driver/Src/stm32l4xx_hal_exti.c ****   pExtiConfig->GPIOSel = 0x00u;
 404              		.loc 1 319 3 is_stmt 1 view .LVU151
 405              		.loc 1 319 24 is_stmt 0 view .LVU152
 406 0046 CC60     		str	r4, [r1, #12]
 320:Drivers/STM32L4xx_HAL_Driver/Src/stm32l4xx_hal_exti.c **** 
 321:Drivers/STM32L4xx_HAL_Driver/Src/stm32l4xx_hal_exti.c ****   /* 2] Get trigger for configurable lines : rising */
 322:Drivers/STM32L4xx_HAL_Driver/Src/stm32l4xx_hal_exti.c ****   if ((pExtiConfig->Line & EXTI_CONFIG) != 0x00u)
 407              		.loc 1 322 3 is_stmt 1 view .LVU153
 408              		.loc 1 322 6 is_stmt 0 view .LVU154
 409 0048 13F0007F 		tst	r3, #33554432
 410 004c 2CD0     		beq	.L30
 323:Drivers/STM32L4xx_HAL_Driver/Src/stm32l4xx_hal_exti.c ****   {
 324:Drivers/STM32L4xx_HAL_Driver/Src/stm32l4xx_hal_exti.c ****     regaddr = (&EXTI->RTSR1 + (EXTI_CONFIG_OFFSET * offset));
 411              		.loc 1 324 5 is_stmt 1 view .LVU155
 412              		.loc 1 324 13 is_stmt 0 view .LVU156
 413 004e 184C     		ldr	r4, .L37+4
 414              	.LVL53:
 325:Drivers/STM32L4xx_HAL_Driver/Src/stm32l4xx_hal_exti.c ****     regval = *regaddr;
 415              		.loc 1 325 5 is_stmt 1 view .LVU157
 416              		.loc 1 325 12 is_stmt 0 view .LVU158
 417 0050 0459     		ldr	r4, [r0, r4]
 418              	.LVL54:
 326:Drivers/STM32L4xx_HAL_Driver/Src/stm32l4xx_hal_exti.c **** 
 327:Drivers/STM32L4xx_HAL_Driver/Src/stm32l4xx_hal_exti.c ****     /* Check if configuration of selected line is enable */
 328:Drivers/STM32L4xx_HAL_Driver/Src/stm32l4xx_hal_exti.c ****     if ((regval & maskline) != 0x00u)
 419              		.loc 1 328 5 is_stmt 1 view .LVU159
 420              		.loc 1 328 8 is_stmt 0 view .LVU160
 421 0052 2242     		tst	r2, r4
 422 0054 01D0     		beq	.L26
 329:Drivers/STM32L4xx_HAL_Driver/Src/stm32l4xx_hal_exti.c ****     {
 330:Drivers/STM32L4xx_HAL_Driver/Src/stm32l4xx_hal_exti.c ****       pExtiConfig->Trigger = EXTI_TRIGGER_RISING;
 423              		.loc 1 330 7 is_stmt 1 view .LVU161
 424              		.loc 1 330 28 is_stmt 0 view .LVU162
 425 0056 0124     		movs	r4, #1
 426              	.LVL55:
 427              		.loc 1 330 28 view .LVU163
 428 0058 8C60     		str	r4, [r1, #8]
 429              	.L26:
 331:Drivers/STM32L4xx_HAL_Driver/Src/stm32l4xx_hal_exti.c ****     }
 332:Drivers/STM32L4xx_HAL_Driver/Src/stm32l4xx_hal_exti.c **** 
 333:Drivers/STM32L4xx_HAL_Driver/Src/stm32l4xx_hal_exti.c ****     /* Get falling configuration */
 334:Drivers/STM32L4xx_HAL_Driver/Src/stm32l4xx_hal_exti.c ****     regaddr = (&EXTI->FTSR1 + (EXTI_CONFIG_OFFSET * offset));
 430              		.loc 1 334 5 is_stmt 1 view .LVU164
 431              		.loc 1 334 13 is_stmt 0 view .LVU165
 432 005a 164C     		ldr	r4, .L37+8
 433              	.LVL56:
 335:Drivers/STM32L4xx_HAL_Driver/Src/stm32l4xx_hal_exti.c ****     regval = *regaddr;
ARM GAS  /tmp/ccvbvPNS.s 			page 15


 434              		.loc 1 335 5 is_stmt 1 view .LVU166
 435              		.loc 1 335 12 is_stmt 0 view .LVU167
 436 005c 0059     		ldr	r0, [r0, r4]
 437              	.LVL57:
 336:Drivers/STM32L4xx_HAL_Driver/Src/stm32l4xx_hal_exti.c **** 
 337:Drivers/STM32L4xx_HAL_Driver/Src/stm32l4xx_hal_exti.c ****     /* Check if configuration of selected line is enable */
 338:Drivers/STM32L4xx_HAL_Driver/Src/stm32l4xx_hal_exti.c ****     if ((regval & maskline) != 0x00u)
 438              		.loc 1 338 5 is_stmt 1 view .LVU168
 439              		.loc 1 338 8 is_stmt 0 view .LVU169
 440 005e 0242     		tst	r2, r0
 441 0060 03D0     		beq	.L27
 339:Drivers/STM32L4xx_HAL_Driver/Src/stm32l4xx_hal_exti.c ****     {
 340:Drivers/STM32L4xx_HAL_Driver/Src/stm32l4xx_hal_exti.c ****       pExtiConfig->Trigger |= EXTI_TRIGGER_FALLING;
 442              		.loc 1 340 7 is_stmt 1 view .LVU170
 443              		.loc 1 340 28 is_stmt 0 view .LVU171
 444 0062 8A68     		ldr	r2, [r1, #8]
 445              	.LVL58:
 446              		.loc 1 340 28 view .LVU172
 447 0064 42F00202 		orr	r2, r2, #2
 448 0068 8A60     		str	r2, [r1, #8]
 449              	.L27:
 341:Drivers/STM32L4xx_HAL_Driver/Src/stm32l4xx_hal_exti.c ****     }
 342:Drivers/STM32L4xx_HAL_Driver/Src/stm32l4xx_hal_exti.c **** 
 343:Drivers/STM32L4xx_HAL_Driver/Src/stm32l4xx_hal_exti.c ****     /* Get Gpio port selection for gpio lines */
 344:Drivers/STM32L4xx_HAL_Driver/Src/stm32l4xx_hal_exti.c ****     if ((pExtiConfig->Line & EXTI_GPIO) == EXTI_GPIO)
 450              		.loc 1 344 5 is_stmt 1 view .LVU173
 451              		.loc 1 344 28 is_stmt 0 view .LVU174
 452 006a 03F0C063 		and	r3, r3, #100663296
 453              	.LVL59:
 454              		.loc 1 344 8 view .LVU175
 455 006e B3F1C06F 		cmp	r3, #100663296
 456 0072 04D0     		beq	.L36
 345:Drivers/STM32L4xx_HAL_Driver/Src/stm32l4xx_hal_exti.c ****     {
 346:Drivers/STM32L4xx_HAL_Driver/Src/stm32l4xx_hal_exti.c ****       assert_param(IS_EXTI_GPIO_PIN(linepos));
 347:Drivers/STM32L4xx_HAL_Driver/Src/stm32l4xx_hal_exti.c **** 
 348:Drivers/STM32L4xx_HAL_Driver/Src/stm32l4xx_hal_exti.c ****       regval = SYSCFG->EXTICR[linepos >> 2u];
 349:Drivers/STM32L4xx_HAL_Driver/Src/stm32l4xx_hal_exti.c ****       pExtiConfig->GPIOSel = ((regval << (SYSCFG_EXTICR1_EXTI1_Pos * (3uL - (linepos & 0x03u)))) >>
 350:Drivers/STM32L4xx_HAL_Driver/Src/stm32l4xx_hal_exti.c ****     }
 351:Drivers/STM32L4xx_HAL_Driver/Src/stm32l4xx_hal_exti.c ****   }
 352:Drivers/STM32L4xx_HAL_Driver/Src/stm32l4xx_hal_exti.c **** 
 353:Drivers/STM32L4xx_HAL_Driver/Src/stm32l4xx_hal_exti.c ****   return HAL_OK;
 457              		.loc 1 353 10 view .LVU176
 458 0074 0020     		movs	r0, #0
 459              	.LVL60:
 460              		.loc 1 353 10 view .LVU177
 461 0076 18E0     		b	.L22
 462              	.LVL61:
 463              	.L23:
 304:Drivers/STM32L4xx_HAL_Driver/Src/stm32l4xx_hal_exti.c ****   }
 464              		.loc 1 304 5 is_stmt 1 view .LVU178
 304:Drivers/STM32L4xx_HAL_Driver/Src/stm32l4xx_hal_exti.c ****   }
 465              		.loc 1 304 23 is_stmt 0 view .LVU179
 466 0078 0024     		movs	r4, #0
 467              	.LVL62:
 304:Drivers/STM32L4xx_HAL_Driver/Src/stm32l4xx_hal_exti.c ****   }
 468              		.loc 1 304 23 view .LVU180
 469 007a 4C60     		str	r4, [r1, #4]
ARM GAS  /tmp/ccvbvPNS.s 			page 16


 470 007c D9E7     		b	.L24
 471              	.LVL63:
 472              	.L36:
 346:Drivers/STM32L4xx_HAL_Driver/Src/stm32l4xx_hal_exti.c **** 
 473              		.loc 1 346 7 is_stmt 1 view .LVU181
 348:Drivers/STM32L4xx_HAL_Driver/Src/stm32l4xx_hal_exti.c ****       pExtiConfig->GPIOSel = ((regval << (SYSCFG_EXTICR1_EXTI1_Pos * (3uL - (linepos & 0x03u)))) >>
 474              		.loc 1 348 7 view .LVU182
 348:Drivers/STM32L4xx_HAL_Driver/Src/stm32l4xx_hal_exti.c ****       pExtiConfig->GPIOSel = ((regval << (SYSCFG_EXTICR1_EXTI1_Pos * (3uL - (linepos & 0x03u)))) >>
 475              		.loc 1 348 39 is_stmt 0 view .LVU183
 476 007e 4FEA9E03 		lsr	r3, lr, #2
 348:Drivers/STM32L4xx_HAL_Driver/Src/stm32l4xx_hal_exti.c ****       pExtiConfig->GPIOSel = ((regval << (SYSCFG_EXTICR1_EXTI1_Pos * (3uL - (linepos & 0x03u)))) >>
 477              		.loc 1 348 14 view .LVU184
 478 0082 0233     		adds	r3, r3, #2
 479 0084 0C4A     		ldr	r2, .L37+12
 480 0086 52F82320 		ldr	r2, [r2, r3, lsl #2]
 481              	.LVL64:
 349:Drivers/STM32L4xx_HAL_Driver/Src/stm32l4xx_hal_exti.c ****     }
 482              		.loc 1 349 7 is_stmt 1 view .LVU185
 349:Drivers/STM32L4xx_HAL_Driver/Src/stm32l4xx_hal_exti.c ****     }
 483              		.loc 1 349 75 is_stmt 0 view .LVU186
 484 008a 6FEA0E03 		mvn	r3, lr
 485 008e 03F00303 		and	r3, r3, #3
 349:Drivers/STM32L4xx_HAL_Driver/Src/stm32l4xx_hal_exti.c ****     }
 486              		.loc 1 349 68 view .LVU187
 487 0092 9B00     		lsls	r3, r3, #2
 349:Drivers/STM32L4xx_HAL_Driver/Src/stm32l4xx_hal_exti.c ****     }
 488              		.loc 1 349 39 view .LVU188
 489 0094 02FA03F3 		lsl	r3, r2, r3
 349:Drivers/STM32L4xx_HAL_Driver/Src/stm32l4xx_hal_exti.c ****     }
 490              		.loc 1 349 98 view .LVU189
 491 0098 1B0E     		lsrs	r3, r3, #24
 349:Drivers/STM32L4xx_HAL_Driver/Src/stm32l4xx_hal_exti.c ****     }
 492              		.loc 1 349 28 view .LVU190
 493 009a CB60     		str	r3, [r1, #12]
 494              		.loc 1 353 10 view .LVU191
 495 009c 0020     		movs	r0, #0
 496 009e 04E0     		b	.L22
 497              	.LVL65:
 498              	.L28:
 499              	.LCFI5:
 500              		.cfi_def_cfa_offset 0
 501              		.cfi_restore 4
 502              		.cfi_restore 14
 279:Drivers/STM32L4xx_HAL_Driver/Src/stm32l4xx_hal_exti.c ****   }
 503              		.loc 1 279 12 view .LVU192
 504 00a0 0120     		movs	r0, #1
 505              	.LVL66:
 279:Drivers/STM32L4xx_HAL_Driver/Src/stm32l4xx_hal_exti.c ****   }
 506              		.loc 1 279 12 view .LVU193
 507 00a2 7047     		bx	lr
 508              	.LVL67:
 509              	.L29:
 279:Drivers/STM32L4xx_HAL_Driver/Src/stm32l4xx_hal_exti.c ****   }
 510              		.loc 1 279 12 view .LVU194
 511 00a4 0120     		movs	r0, #1
 512              	.LVL68:
 354:Drivers/STM32L4xx_HAL_Driver/Src/stm32l4xx_hal_exti.c **** }
ARM GAS  /tmp/ccvbvPNS.s 			page 17


 513              		.loc 1 354 1 view .LVU195
 514 00a6 7047     		bx	lr
 515              	.LVL69:
 516              	.L30:
 517              	.LCFI6:
 518              		.cfi_def_cfa_offset 8
 519              		.cfi_offset 4, -8
 520              		.cfi_offset 14, -4
 353:Drivers/STM32L4xx_HAL_Driver/Src/stm32l4xx_hal_exti.c **** }
 521              		.loc 1 353 10 view .LVU196
 522 00a8 0020     		movs	r0, #0
 523              	.LVL70:
 524              	.L22:
 525              		.loc 1 354 1 view .LVU197
 526 00aa 10BD     		pop	{r4, pc}
 527              	.L38:
 528              		.align	2
 529              	.L37:
 530 00ac 04040140 		.word	1073808388
 531 00b0 08040140 		.word	1073808392
 532 00b4 0C040140 		.word	1073808396
 533 00b8 00000140 		.word	1073807360
 534              		.cfi_endproc
 535              	.LFE133:
 537              		.section	.text.HAL_EXTI_ClearConfigLine,"ax",%progbits
 538              		.align	1
 539              		.global	HAL_EXTI_ClearConfigLine
 540              		.syntax unified
 541              		.thumb
 542              		.thumb_func
 543              		.fpu fpv4-sp-d16
 545              	HAL_EXTI_ClearConfigLine:
 546              	.LVL71:
 547              	.LFB134:
 355:Drivers/STM32L4xx_HAL_Driver/Src/stm32l4xx_hal_exti.c **** 
 356:Drivers/STM32L4xx_HAL_Driver/Src/stm32l4xx_hal_exti.c **** 
 357:Drivers/STM32L4xx_HAL_Driver/Src/stm32l4xx_hal_exti.c **** /**
 358:Drivers/STM32L4xx_HAL_Driver/Src/stm32l4xx_hal_exti.c ****   * @brief  Clear whole configuration of a dedicated Exti line.
 359:Drivers/STM32L4xx_HAL_Driver/Src/stm32l4xx_hal_exti.c ****   * @param  hexti Exti handle.
 360:Drivers/STM32L4xx_HAL_Driver/Src/stm32l4xx_hal_exti.c ****   * @retval HAL Status.
 361:Drivers/STM32L4xx_HAL_Driver/Src/stm32l4xx_hal_exti.c ****   */
 362:Drivers/STM32L4xx_HAL_Driver/Src/stm32l4xx_hal_exti.c **** HAL_StatusTypeDef HAL_EXTI_ClearConfigLine(EXTI_HandleTypeDef *hexti)
 363:Drivers/STM32L4xx_HAL_Driver/Src/stm32l4xx_hal_exti.c **** {
 548              		.loc 1 363 1 is_stmt 1 view -0
 549              		.cfi_startproc
 550              		@ args = 0, pretend = 0, frame = 0
 551              		@ frame_needed = 0, uses_anonymous_args = 0
 364:Drivers/STM32L4xx_HAL_Driver/Src/stm32l4xx_hal_exti.c ****   __IO uint32_t *regaddr;
 552              		.loc 1 364 3 view .LVU199
 365:Drivers/STM32L4xx_HAL_Driver/Src/stm32l4xx_hal_exti.c ****   uint32_t regval;
 553              		.loc 1 365 3 view .LVU200
 366:Drivers/STM32L4xx_HAL_Driver/Src/stm32l4xx_hal_exti.c ****   uint32_t linepos;
 554              		.loc 1 366 3 view .LVU201
 367:Drivers/STM32L4xx_HAL_Driver/Src/stm32l4xx_hal_exti.c ****   uint32_t maskline;
 555              		.loc 1 367 3 view .LVU202
 368:Drivers/STM32L4xx_HAL_Driver/Src/stm32l4xx_hal_exti.c ****   uint32_t offset;
 556              		.loc 1 368 3 view .LVU203
ARM GAS  /tmp/ccvbvPNS.s 			page 18


 369:Drivers/STM32L4xx_HAL_Driver/Src/stm32l4xx_hal_exti.c **** 
 370:Drivers/STM32L4xx_HAL_Driver/Src/stm32l4xx_hal_exti.c ****   /* Check null pointer */
 371:Drivers/STM32L4xx_HAL_Driver/Src/stm32l4xx_hal_exti.c ****   if (hexti == NULL)
 557              		.loc 1 371 3 view .LVU204
 558              		.loc 1 371 6 is_stmt 0 view .LVU205
 559 0000 0028     		cmp	r0, #0
 560 0002 41D0     		beq	.L41
 363:Drivers/STM32L4xx_HAL_Driver/Src/stm32l4xx_hal_exti.c ****   __IO uint32_t *regaddr;
 561              		.loc 1 363 1 view .LVU206
 562 0004 30B5     		push	{r4, r5, lr}
 563              	.LCFI7:
 564              		.cfi_def_cfa_offset 12
 565              		.cfi_offset 4, -12
 566              		.cfi_offset 5, -8
 567              		.cfi_offset 14, -4
 568 0006 8446     		mov	ip, r0
 372:Drivers/STM32L4xx_HAL_Driver/Src/stm32l4xx_hal_exti.c ****   {
 373:Drivers/STM32L4xx_HAL_Driver/Src/stm32l4xx_hal_exti.c ****     return HAL_ERROR;
 374:Drivers/STM32L4xx_HAL_Driver/Src/stm32l4xx_hal_exti.c ****   }
 375:Drivers/STM32L4xx_HAL_Driver/Src/stm32l4xx_hal_exti.c **** 
 376:Drivers/STM32L4xx_HAL_Driver/Src/stm32l4xx_hal_exti.c ****   /* Check the parameter */
 377:Drivers/STM32L4xx_HAL_Driver/Src/stm32l4xx_hal_exti.c ****   assert_param(IS_EXTI_LINE(hexti->Line));
 569              		.loc 1 377 3 is_stmt 1 view .LVU207
 378:Drivers/STM32L4xx_HAL_Driver/Src/stm32l4xx_hal_exti.c **** 
 379:Drivers/STM32L4xx_HAL_Driver/Src/stm32l4xx_hal_exti.c ****   /* compute line register offset and line mask */
 380:Drivers/STM32L4xx_HAL_Driver/Src/stm32l4xx_hal_exti.c ****   offset = ((hexti->Line & EXTI_REG_MASK) >> EXTI_REG_SHIFT);
 570              		.loc 1 380 3 view .LVU208
 571              		.loc 1 380 19 is_stmt 0 view .LVU209
 572 0008 0468     		ldr	r4, [r0]
 573              		.loc 1 380 10 view .LVU210
 574 000a C4F30043 		ubfx	r3, r4, #16, #1
 575              	.LVL72:
 381:Drivers/STM32L4xx_HAL_Driver/Src/stm32l4xx_hal_exti.c ****   linepos = (hexti->Line & EXTI_PIN_MASK);
 576              		.loc 1 381 3 is_stmt 1 view .LVU211
 577              		.loc 1 381 11 is_stmt 0 view .LVU212
 578 000e 04F01F0E 		and	lr, r4, #31
 579              	.LVL73:
 382:Drivers/STM32L4xx_HAL_Driver/Src/stm32l4xx_hal_exti.c ****   maskline = (1uL << linepos);
 580              		.loc 1 382 3 is_stmt 1 view .LVU213
 581              		.loc 1 382 12 is_stmt 0 view .LVU214
 582 0012 0122     		movs	r2, #1
 583 0014 02FA0EF2 		lsl	r2, r2, lr
 584              	.LVL74:
 383:Drivers/STM32L4xx_HAL_Driver/Src/stm32l4xx_hal_exti.c **** 
 384:Drivers/STM32L4xx_HAL_Driver/Src/stm32l4xx_hal_exti.c ****   /* 1] Clear interrupt mode */
 385:Drivers/STM32L4xx_HAL_Driver/Src/stm32l4xx_hal_exti.c ****   regaddr = (&EXTI->IMR1 + (EXTI_MODE_OFFSET * offset));
 585              		.loc 1 385 3 is_stmt 1 view .LVU215
 586              		.loc 1 385 26 is_stmt 0 view .LVU216
 587 0018 5B01     		lsls	r3, r3, #5
 588              	.LVL75:
 589              		.loc 1 385 11 view .LVU217
 590 001a 03F18041 		add	r1, r3, #1073741824
 591 001e 01F58231 		add	r1, r1, #66560
 592              	.LVL76:
 386:Drivers/STM32L4xx_HAL_Driver/Src/stm32l4xx_hal_exti.c ****   regval = (*regaddr & ~maskline);
 593              		.loc 1 386 3 is_stmt 1 view .LVU218
 594              		.loc 1 386 13 is_stmt 0 view .LVU219
ARM GAS  /tmp/ccvbvPNS.s 			page 19


 595 0022 0868     		ldr	r0, [r1]
 596              	.LVL77:
 597              		.loc 1 386 24 view .LVU220
 598 0024 D543     		mvns	r5, r2
 599              		.loc 1 386 10 view .LVU221
 600 0026 20EA0200 		bic	r0, r0, r2
 601              	.LVL78:
 387:Drivers/STM32L4xx_HAL_Driver/Src/stm32l4xx_hal_exti.c ****   *regaddr = regval;
 602              		.loc 1 387 3 is_stmt 1 view .LVU222
 603              		.loc 1 387 12 is_stmt 0 view .LVU223
 604 002a 0860     		str	r0, [r1]
 388:Drivers/STM32L4xx_HAL_Driver/Src/stm32l4xx_hal_exti.c **** 
 389:Drivers/STM32L4xx_HAL_Driver/Src/stm32l4xx_hal_exti.c ****   /* 2] Clear event mode */
 390:Drivers/STM32L4xx_HAL_Driver/Src/stm32l4xx_hal_exti.c ****   regaddr = (&EXTI->EMR1 + (EXTI_MODE_OFFSET * offset));
 605              		.loc 1 390 3 is_stmt 1 view .LVU224
 606              		.loc 1 390 11 is_stmt 0 view .LVU225
 607 002c 1848     		ldr	r0, .L49
 608              	.LVL79:
 391:Drivers/STM32L4xx_HAL_Driver/Src/stm32l4xx_hal_exti.c ****   regval = (*regaddr & ~maskline);
 609              		.loc 1 391 3 is_stmt 1 view .LVU226
 610              		.loc 1 391 13 is_stmt 0 view .LVU227
 611 002e 1958     		ldr	r1, [r3, r0]
 612              	.LVL80:
 613              		.loc 1 391 10 view .LVU228
 614 0030 21EA0202 		bic	r2, r1, r2
 615              	.LVL81:
 392:Drivers/STM32L4xx_HAL_Driver/Src/stm32l4xx_hal_exti.c ****   *regaddr = regval;
 616              		.loc 1 392 3 is_stmt 1 view .LVU229
 617              		.loc 1 392 12 is_stmt 0 view .LVU230
 618 0034 1A50     		str	r2, [r3, r0]
 393:Drivers/STM32L4xx_HAL_Driver/Src/stm32l4xx_hal_exti.c **** 
 394:Drivers/STM32L4xx_HAL_Driver/Src/stm32l4xx_hal_exti.c ****   /* 3] Clear triggers in case of configurable lines */
 395:Drivers/STM32L4xx_HAL_Driver/Src/stm32l4xx_hal_exti.c ****   if ((hexti->Line & EXTI_CONFIG) != 0x00u)
 619              		.loc 1 395 3 is_stmt 1 view .LVU231
 620              		.loc 1 395 13 is_stmt 0 view .LVU232
 621 0036 DCF80020 		ldr	r2, [ip]
 622              	.LVL82:
 623              		.loc 1 395 6 view .LVU233
 624 003a 12F0007F 		tst	r2, #33554432
 625 003e 25D0     		beq	.L42
 396:Drivers/STM32L4xx_HAL_Driver/Src/stm32l4xx_hal_exti.c ****   {
 397:Drivers/STM32L4xx_HAL_Driver/Src/stm32l4xx_hal_exti.c ****     regaddr = (&EXTI->RTSR1 + (EXTI_CONFIG_OFFSET * offset));
 626              		.loc 1 397 5 is_stmt 1 view .LVU234
 627              		.loc 1 397 13 is_stmt 0 view .LVU235
 628 0040 1449     		ldr	r1, .L49+4
 629              	.LVL83:
 398:Drivers/STM32L4xx_HAL_Driver/Src/stm32l4xx_hal_exti.c ****     regval = (*regaddr & ~maskline);
 630              		.loc 1 398 5 is_stmt 1 view .LVU236
 631              		.loc 1 398 15 is_stmt 0 view .LVU237
 632 0042 5A58     		ldr	r2, [r3, r1]
 633              		.loc 1 398 12 view .LVU238
 634 0044 2A40     		ands	r2, r2, r5
 635              	.LVL84:
 399:Drivers/STM32L4xx_HAL_Driver/Src/stm32l4xx_hal_exti.c ****     *regaddr = regval;
 636              		.loc 1 399 5 is_stmt 1 view .LVU239
 637              		.loc 1 399 14 is_stmt 0 view .LVU240
 638 0046 5A50     		str	r2, [r3, r1]
ARM GAS  /tmp/ccvbvPNS.s 			page 20


 400:Drivers/STM32L4xx_HAL_Driver/Src/stm32l4xx_hal_exti.c **** 
 401:Drivers/STM32L4xx_HAL_Driver/Src/stm32l4xx_hal_exti.c ****     regaddr = (&EXTI->FTSR1 + (EXTI_CONFIG_OFFSET * offset));
 639              		.loc 1 401 5 is_stmt 1 view .LVU241
 640              		.loc 1 401 13 is_stmt 0 view .LVU242
 641 0048 134A     		ldr	r2, .L49+8
 642              	.LVL85:
 402:Drivers/STM32L4xx_HAL_Driver/Src/stm32l4xx_hal_exti.c ****     regval = (*regaddr & ~maskline);
 643              		.loc 1 402 5 is_stmt 1 view .LVU243
 644              		.loc 1 402 15 is_stmt 0 view .LVU244
 645 004a 9958     		ldr	r1, [r3, r2]
 646              	.LVL86:
 647              		.loc 1 402 12 view .LVU245
 648 004c 0D40     		ands	r5, r5, r1
 649              	.LVL87:
 403:Drivers/STM32L4xx_HAL_Driver/Src/stm32l4xx_hal_exti.c ****     *regaddr = regval;
 650              		.loc 1 403 5 is_stmt 1 view .LVU246
 651              		.loc 1 403 14 is_stmt 0 view .LVU247
 652 004e 9D50     		str	r5, [r3, r2]
 404:Drivers/STM32L4xx_HAL_Driver/Src/stm32l4xx_hal_exti.c **** 
 405:Drivers/STM32L4xx_HAL_Driver/Src/stm32l4xx_hal_exti.c ****     /* Get Gpio port selection for gpio lines */
 406:Drivers/STM32L4xx_HAL_Driver/Src/stm32l4xx_hal_exti.c ****     if ((hexti->Line & EXTI_GPIO) == EXTI_GPIO)
 653              		.loc 1 406 5 is_stmt 1 view .LVU248
 654              		.loc 1 406 15 is_stmt 0 view .LVU249
 655 0050 DCF80030 		ldr	r3, [ip]
 656              	.LVL88:
 657              		.loc 1 406 22 view .LVU250
 658 0054 03F0C063 		and	r3, r3, #100663296
 659              		.loc 1 406 8 view .LVU251
 660 0058 B3F1C06F 		cmp	r3, #100663296
 661 005c 01D0     		beq	.L48
 407:Drivers/STM32L4xx_HAL_Driver/Src/stm32l4xx_hal_exti.c ****     {
 408:Drivers/STM32L4xx_HAL_Driver/Src/stm32l4xx_hal_exti.c ****       assert_param(IS_EXTI_GPIO_PIN(linepos));
 409:Drivers/STM32L4xx_HAL_Driver/Src/stm32l4xx_hal_exti.c **** 
 410:Drivers/STM32L4xx_HAL_Driver/Src/stm32l4xx_hal_exti.c ****       regval = SYSCFG->EXTICR[linepos >> 2u];
 411:Drivers/STM32L4xx_HAL_Driver/Src/stm32l4xx_hal_exti.c ****       regval &= ~(SYSCFG_EXTICR1_EXTI0 << (SYSCFG_EXTICR1_EXTI1_Pos * (linepos & 0x03u)));
 412:Drivers/STM32L4xx_HAL_Driver/Src/stm32l4xx_hal_exti.c ****       SYSCFG->EXTICR[linepos >> 2u] = regval;
 413:Drivers/STM32L4xx_HAL_Driver/Src/stm32l4xx_hal_exti.c ****     }
 414:Drivers/STM32L4xx_HAL_Driver/Src/stm32l4xx_hal_exti.c ****   }
 415:Drivers/STM32L4xx_HAL_Driver/Src/stm32l4xx_hal_exti.c **** 
 416:Drivers/STM32L4xx_HAL_Driver/Src/stm32l4xx_hal_exti.c ****   return HAL_OK;
 662              		.loc 1 416 10 view .LVU252
 663 005e 0020     		movs	r0, #0
 664 0060 15E0     		b	.L40
 665              	.L48:
 408:Drivers/STM32L4xx_HAL_Driver/Src/stm32l4xx_hal_exti.c **** 
 666              		.loc 1 408 7 is_stmt 1 view .LVU253
 410:Drivers/STM32L4xx_HAL_Driver/Src/stm32l4xx_hal_exti.c ****       regval &= ~(SYSCFG_EXTICR1_EXTI0 << (SYSCFG_EXTICR1_EXTI1_Pos * (linepos & 0x03u)));
 667              		.loc 1 410 7 view .LVU254
 410:Drivers/STM32L4xx_HAL_Driver/Src/stm32l4xx_hal_exti.c ****       regval &= ~(SYSCFG_EXTICR1_EXTI0 << (SYSCFG_EXTICR1_EXTI1_Pos * (linepos & 0x03u)));
 668              		.loc 1 410 39 is_stmt 0 view .LVU255
 669 0062 4FEA9E0E 		lsr	lr, lr, #2
 670              	.LVL89:
 410:Drivers/STM32L4xx_HAL_Driver/Src/stm32l4xx_hal_exti.c ****       regval &= ~(SYSCFG_EXTICR1_EXTI0 << (SYSCFG_EXTICR1_EXTI1_Pos * (linepos & 0x03u)));
 671              		.loc 1 410 14 view .LVU256
 672 0066 0D49     		ldr	r1, .L49+12
 673 0068 0EF1020E 		add	lr, lr, #2
 674 006c 51F82E30 		ldr	r3, [r1, lr, lsl #2]
ARM GAS  /tmp/ccvbvPNS.s 			page 21


 675              	.LVL90:
 411:Drivers/STM32L4xx_HAL_Driver/Src/stm32l4xx_hal_exti.c ****       SYSCFG->EXTICR[linepos >> 2u] = regval;
 676              		.loc 1 411 7 is_stmt 1 view .LVU257
 411:Drivers/STM32L4xx_HAL_Driver/Src/stm32l4xx_hal_exti.c ****       SYSCFG->EXTICR[linepos >> 2u] = regval;
 677              		.loc 1 411 80 is_stmt 0 view .LVU258
 678 0070 04F00304 		and	r4, r4, #3
 679              	.LVL91:
 411:Drivers/STM32L4xx_HAL_Driver/Src/stm32l4xx_hal_exti.c ****       SYSCFG->EXTICR[linepos >> 2u] = regval;
 680              		.loc 1 411 69 view .LVU259
 681 0074 A400     		lsls	r4, r4, #2
 411:Drivers/STM32L4xx_HAL_Driver/Src/stm32l4xx_hal_exti.c ****       SYSCFG->EXTICR[linepos >> 2u] = regval;
 682              		.loc 1 411 40 view .LVU260
 683 0076 0722     		movs	r2, #7
 684 0078 02FA04F4 		lsl	r4, r2, r4
 411:Drivers/STM32L4xx_HAL_Driver/Src/stm32l4xx_hal_exti.c ****       SYSCFG->EXTICR[linepos >> 2u] = regval;
 685              		.loc 1 411 14 view .LVU261
 686 007c 23EA0404 		bic	r4, r3, r4
 687              	.LVL92:
 412:Drivers/STM32L4xx_HAL_Driver/Src/stm32l4xx_hal_exti.c ****     }
 688              		.loc 1 412 7 is_stmt 1 view .LVU262
 412:Drivers/STM32L4xx_HAL_Driver/Src/stm32l4xx_hal_exti.c ****     }
 689              		.loc 1 412 37 is_stmt 0 view .LVU263
 690 0080 41F82E40 		str	r4, [r1, lr, lsl #2]
 691              		.loc 1 416 10 view .LVU264
 692 0084 0020     		movs	r0, #0
 693 0086 02E0     		b	.L40
 694              	.LVL93:
 695              	.L41:
 696              	.LCFI8:
 697              		.cfi_def_cfa_offset 0
 698              		.cfi_restore 4
 699              		.cfi_restore 5
 700              		.cfi_restore 14
 373:Drivers/STM32L4xx_HAL_Driver/Src/stm32l4xx_hal_exti.c ****   }
 701              		.loc 1 373 12 view .LVU265
 702 0088 0120     		movs	r0, #1
 703              	.LVL94:
 417:Drivers/STM32L4xx_HAL_Driver/Src/stm32l4xx_hal_exti.c **** }
 704              		.loc 1 417 1 view .LVU266
 705 008a 7047     		bx	lr
 706              	.LVL95:
 707              	.L42:
 708              	.LCFI9:
 709              		.cfi_def_cfa_offset 12
 710              		.cfi_offset 4, -12
 711              		.cfi_offset 5, -8
 712              		.cfi_offset 14, -4
 416:Drivers/STM32L4xx_HAL_Driver/Src/stm32l4xx_hal_exti.c **** }
 713              		.loc 1 416 10 view .LVU267
 714 008c 0020     		movs	r0, #0
 715              	.LVL96:
 716              	.L40:
 717              		.loc 1 417 1 view .LVU268
 718 008e 30BD     		pop	{r4, r5, pc}
 719              	.L50:
 720              		.align	2
 721              	.L49:
ARM GAS  /tmp/ccvbvPNS.s 			page 22


 722 0090 04040140 		.word	1073808388
 723 0094 08040140 		.word	1073808392
 724 0098 0C040140 		.word	1073808396
 725 009c 00000140 		.word	1073807360
 726              		.cfi_endproc
 727              	.LFE134:
 729              		.section	.text.HAL_EXTI_RegisterCallback,"ax",%progbits
 730              		.align	1
 731              		.global	HAL_EXTI_RegisterCallback
 732              		.syntax unified
 733              		.thumb
 734              		.thumb_func
 735              		.fpu fpv4-sp-d16
 737              	HAL_EXTI_RegisterCallback:
 738              	.LVL97:
 739              	.LFB135:
 418:Drivers/STM32L4xx_HAL_Driver/Src/stm32l4xx_hal_exti.c **** 
 419:Drivers/STM32L4xx_HAL_Driver/Src/stm32l4xx_hal_exti.c **** 
 420:Drivers/STM32L4xx_HAL_Driver/Src/stm32l4xx_hal_exti.c **** /**
 421:Drivers/STM32L4xx_HAL_Driver/Src/stm32l4xx_hal_exti.c ****   * @brief  Register callback for a dedicated Exti line.
 422:Drivers/STM32L4xx_HAL_Driver/Src/stm32l4xx_hal_exti.c ****   * @param  hexti Exti handle.
 423:Drivers/STM32L4xx_HAL_Driver/Src/stm32l4xx_hal_exti.c ****   * @param  CallbackID User callback identifier.
 424:Drivers/STM32L4xx_HAL_Driver/Src/stm32l4xx_hal_exti.c ****   *         This parameter can be one of @arg @ref EXTI_CallbackIDTypeDef values.
 425:Drivers/STM32L4xx_HAL_Driver/Src/stm32l4xx_hal_exti.c ****   * @param  pPendingCbfn function pointer to be stored as callback.
 426:Drivers/STM32L4xx_HAL_Driver/Src/stm32l4xx_hal_exti.c ****   * @retval HAL Status.
 427:Drivers/STM32L4xx_HAL_Driver/Src/stm32l4xx_hal_exti.c ****   */
 428:Drivers/STM32L4xx_HAL_Driver/Src/stm32l4xx_hal_exti.c **** HAL_StatusTypeDef HAL_EXTI_RegisterCallback(EXTI_HandleTypeDef *hexti, EXTI_CallbackIDTypeDef Callb
 429:Drivers/STM32L4xx_HAL_Driver/Src/stm32l4xx_hal_exti.c **** {
 740              		.loc 1 429 1 is_stmt 1 view -0
 741              		.cfi_startproc
 742              		@ args = 0, pretend = 0, frame = 0
 743              		@ frame_needed = 0, uses_anonymous_args = 0
 744              		@ link register save eliminated.
 745              		.loc 1 429 1 is_stmt 0 view .LVU270
 746 0000 0346     		mov	r3, r0
 430:Drivers/STM32L4xx_HAL_Driver/Src/stm32l4xx_hal_exti.c ****   HAL_StatusTypeDef status = HAL_OK;
 747              		.loc 1 430 3 is_stmt 1 view .LVU271
 748              	.LVL98:
 431:Drivers/STM32L4xx_HAL_Driver/Src/stm32l4xx_hal_exti.c **** 
 432:Drivers/STM32L4xx_HAL_Driver/Src/stm32l4xx_hal_exti.c ****   switch (CallbackID)
 749              		.loc 1 432 3 view .LVU272
 750 0002 0846     		mov	r0, r1
 751              	.LVL99:
 752              		.loc 1 432 3 is_stmt 0 view .LVU273
 753 0004 09B9     		cbnz	r1, .L53
 433:Drivers/STM32L4xx_HAL_Driver/Src/stm32l4xx_hal_exti.c ****   {
 434:Drivers/STM32L4xx_HAL_Driver/Src/stm32l4xx_hal_exti.c ****     case  HAL_EXTI_COMMON_CB_ID:
 435:Drivers/STM32L4xx_HAL_Driver/Src/stm32l4xx_hal_exti.c ****       hexti->PendingCallback = pPendingCbfn;
 754              		.loc 1 435 7 is_stmt 1 view .LVU274
 755              		.loc 1 435 30 is_stmt 0 view .LVU275
 756 0006 5A60     		str	r2, [r3, #4]
 436:Drivers/STM32L4xx_HAL_Driver/Src/stm32l4xx_hal_exti.c ****       break;
 757              		.loc 1 436 7 is_stmt 1 view .LVU276
 758 0008 7047     		bx	lr
 759              	.L53:
 437:Drivers/STM32L4xx_HAL_Driver/Src/stm32l4xx_hal_exti.c **** 
 438:Drivers/STM32L4xx_HAL_Driver/Src/stm32l4xx_hal_exti.c ****     default:
ARM GAS  /tmp/ccvbvPNS.s 			page 23


 439:Drivers/STM32L4xx_HAL_Driver/Src/stm32l4xx_hal_exti.c ****       status = HAL_ERROR;
 760              		.loc 1 439 14 is_stmt 0 view .LVU277
 761 000a 0120     		movs	r0, #1
 762              	.LVL100:
 440:Drivers/STM32L4xx_HAL_Driver/Src/stm32l4xx_hal_exti.c ****       break;
 441:Drivers/STM32L4xx_HAL_Driver/Src/stm32l4xx_hal_exti.c ****   }
 442:Drivers/STM32L4xx_HAL_Driver/Src/stm32l4xx_hal_exti.c **** 
 443:Drivers/STM32L4xx_HAL_Driver/Src/stm32l4xx_hal_exti.c ****   return status;
 763              		.loc 1 443 3 is_stmt 1 view .LVU278
 444:Drivers/STM32L4xx_HAL_Driver/Src/stm32l4xx_hal_exti.c **** }
 764              		.loc 1 444 1 is_stmt 0 view .LVU279
 765 000c 7047     		bx	lr
 766              		.cfi_endproc
 767              	.LFE135:
 769              		.section	.text.HAL_EXTI_GetHandle,"ax",%progbits
 770              		.align	1
 771              		.global	HAL_EXTI_GetHandle
 772              		.syntax unified
 773              		.thumb
 774              		.thumb_func
 775              		.fpu fpv4-sp-d16
 777              	HAL_EXTI_GetHandle:
 778              	.LVL101:
 779              	.LFB136:
 445:Drivers/STM32L4xx_HAL_Driver/Src/stm32l4xx_hal_exti.c **** 
 446:Drivers/STM32L4xx_HAL_Driver/Src/stm32l4xx_hal_exti.c **** 
 447:Drivers/STM32L4xx_HAL_Driver/Src/stm32l4xx_hal_exti.c **** /**
 448:Drivers/STM32L4xx_HAL_Driver/Src/stm32l4xx_hal_exti.c ****   * @brief  Store line number as handle private field.
 449:Drivers/STM32L4xx_HAL_Driver/Src/stm32l4xx_hal_exti.c ****   * @param  hexti Exti handle.
 450:Drivers/STM32L4xx_HAL_Driver/Src/stm32l4xx_hal_exti.c ****   * @param  ExtiLine Exti line number.
 451:Drivers/STM32L4xx_HAL_Driver/Src/stm32l4xx_hal_exti.c ****   *         This parameter can be from 0 to @ref EXTI_LINE_NB.
 452:Drivers/STM32L4xx_HAL_Driver/Src/stm32l4xx_hal_exti.c ****   * @retval HAL Status.
 453:Drivers/STM32L4xx_HAL_Driver/Src/stm32l4xx_hal_exti.c ****   */
 454:Drivers/STM32L4xx_HAL_Driver/Src/stm32l4xx_hal_exti.c **** HAL_StatusTypeDef HAL_EXTI_GetHandle(EXTI_HandleTypeDef *hexti, uint32_t ExtiLine)
 455:Drivers/STM32L4xx_HAL_Driver/Src/stm32l4xx_hal_exti.c **** {
 780              		.loc 1 455 1 is_stmt 1 view -0
 781              		.cfi_startproc
 782              		@ args = 0, pretend = 0, frame = 0
 783              		@ frame_needed = 0, uses_anonymous_args = 0
 784              		@ link register save eliminated.
 456:Drivers/STM32L4xx_HAL_Driver/Src/stm32l4xx_hal_exti.c ****   /* Check the parameters */
 457:Drivers/STM32L4xx_HAL_Driver/Src/stm32l4xx_hal_exti.c ****   assert_param(IS_EXTI_LINE(ExtiLine));
 785              		.loc 1 457 3 view .LVU281
 458:Drivers/STM32L4xx_HAL_Driver/Src/stm32l4xx_hal_exti.c **** 
 459:Drivers/STM32L4xx_HAL_Driver/Src/stm32l4xx_hal_exti.c ****   /* Check null pointer */
 460:Drivers/STM32L4xx_HAL_Driver/Src/stm32l4xx_hal_exti.c ****   if (hexti == NULL)
 786              		.loc 1 460 3 view .LVU282
 787              		.loc 1 460 6 is_stmt 0 view .LVU283
 788 0000 10B1     		cbz	r0, .L56
 461:Drivers/STM32L4xx_HAL_Driver/Src/stm32l4xx_hal_exti.c ****   {
 462:Drivers/STM32L4xx_HAL_Driver/Src/stm32l4xx_hal_exti.c ****     return HAL_ERROR;
 463:Drivers/STM32L4xx_HAL_Driver/Src/stm32l4xx_hal_exti.c ****   }
 464:Drivers/STM32L4xx_HAL_Driver/Src/stm32l4xx_hal_exti.c ****   else
 465:Drivers/STM32L4xx_HAL_Driver/Src/stm32l4xx_hal_exti.c ****   {
 466:Drivers/STM32L4xx_HAL_Driver/Src/stm32l4xx_hal_exti.c ****     /* Store line number as handle private field */
 467:Drivers/STM32L4xx_HAL_Driver/Src/stm32l4xx_hal_exti.c ****     hexti->Line = ExtiLine;
 789              		.loc 1 467 5 is_stmt 1 view .LVU284
ARM GAS  /tmp/ccvbvPNS.s 			page 24


 790              		.loc 1 467 17 is_stmt 0 view .LVU285
 791 0002 0160     		str	r1, [r0]
 468:Drivers/STM32L4xx_HAL_Driver/Src/stm32l4xx_hal_exti.c **** 
 469:Drivers/STM32L4xx_HAL_Driver/Src/stm32l4xx_hal_exti.c ****     return HAL_OK;
 792              		.loc 1 469 5 is_stmt 1 view .LVU286
 793              		.loc 1 469 12 is_stmt 0 view .LVU287
 794 0004 0020     		movs	r0, #0
 795              	.LVL102:
 796              		.loc 1 469 12 view .LVU288
 797 0006 7047     		bx	lr
 798              	.LVL103:
 799              	.L56:
 462:Drivers/STM32L4xx_HAL_Driver/Src/stm32l4xx_hal_exti.c ****   }
 800              		.loc 1 462 12 view .LVU289
 801 0008 0120     		movs	r0, #1
 802              	.LVL104:
 470:Drivers/STM32L4xx_HAL_Driver/Src/stm32l4xx_hal_exti.c ****   }
 471:Drivers/STM32L4xx_HAL_Driver/Src/stm32l4xx_hal_exti.c **** }
 803              		.loc 1 471 1 view .LVU290
 804 000a 7047     		bx	lr
 805              		.cfi_endproc
 806              	.LFE136:
 808              		.section	.text.HAL_EXTI_IRQHandler,"ax",%progbits
 809              		.align	1
 810              		.global	HAL_EXTI_IRQHandler
 811              		.syntax unified
 812              		.thumb
 813              		.thumb_func
 814              		.fpu fpv4-sp-d16
 816              	HAL_EXTI_IRQHandler:
 817              	.LVL105:
 818              	.LFB137:
 472:Drivers/STM32L4xx_HAL_Driver/Src/stm32l4xx_hal_exti.c **** 
 473:Drivers/STM32L4xx_HAL_Driver/Src/stm32l4xx_hal_exti.c **** 
 474:Drivers/STM32L4xx_HAL_Driver/Src/stm32l4xx_hal_exti.c **** /**
 475:Drivers/STM32L4xx_HAL_Driver/Src/stm32l4xx_hal_exti.c ****   * @}
 476:Drivers/STM32L4xx_HAL_Driver/Src/stm32l4xx_hal_exti.c ****   */
 477:Drivers/STM32L4xx_HAL_Driver/Src/stm32l4xx_hal_exti.c **** 
 478:Drivers/STM32L4xx_HAL_Driver/Src/stm32l4xx_hal_exti.c **** /** @addtogroup EXTI_Exported_Functions_Group2
 479:Drivers/STM32L4xx_HAL_Driver/Src/stm32l4xx_hal_exti.c ****  *  @brief EXTI IO functions.
 480:Drivers/STM32L4xx_HAL_Driver/Src/stm32l4xx_hal_exti.c ****  *
 481:Drivers/STM32L4xx_HAL_Driver/Src/stm32l4xx_hal_exti.c **** @verbatim
 482:Drivers/STM32L4xx_HAL_Driver/Src/stm32l4xx_hal_exti.c ****  ===============================================================================
 483:Drivers/STM32L4xx_HAL_Driver/Src/stm32l4xx_hal_exti.c ****                        ##### IO operation functions #####
 484:Drivers/STM32L4xx_HAL_Driver/Src/stm32l4xx_hal_exti.c ****  ===============================================================================
 485:Drivers/STM32L4xx_HAL_Driver/Src/stm32l4xx_hal_exti.c **** 
 486:Drivers/STM32L4xx_HAL_Driver/Src/stm32l4xx_hal_exti.c **** @endverbatim
 487:Drivers/STM32L4xx_HAL_Driver/Src/stm32l4xx_hal_exti.c ****   * @{
 488:Drivers/STM32L4xx_HAL_Driver/Src/stm32l4xx_hal_exti.c ****   */
 489:Drivers/STM32L4xx_HAL_Driver/Src/stm32l4xx_hal_exti.c **** 
 490:Drivers/STM32L4xx_HAL_Driver/Src/stm32l4xx_hal_exti.c **** /**
 491:Drivers/STM32L4xx_HAL_Driver/Src/stm32l4xx_hal_exti.c ****   * @brief  Handle EXTI interrupt request.
 492:Drivers/STM32L4xx_HAL_Driver/Src/stm32l4xx_hal_exti.c ****   * @param  hexti Exti handle.
 493:Drivers/STM32L4xx_HAL_Driver/Src/stm32l4xx_hal_exti.c ****   * @retval none.
 494:Drivers/STM32L4xx_HAL_Driver/Src/stm32l4xx_hal_exti.c ****   */
 495:Drivers/STM32L4xx_HAL_Driver/Src/stm32l4xx_hal_exti.c **** void HAL_EXTI_IRQHandler(EXTI_HandleTypeDef *hexti)
 496:Drivers/STM32L4xx_HAL_Driver/Src/stm32l4xx_hal_exti.c **** {
ARM GAS  /tmp/ccvbvPNS.s 			page 25


 819              		.loc 1 496 1 is_stmt 1 view -0
 820              		.cfi_startproc
 821              		@ args = 0, pretend = 0, frame = 0
 822              		@ frame_needed = 0, uses_anonymous_args = 0
 823              		.loc 1 496 1 is_stmt 0 view .LVU292
 824 0000 10B5     		push	{r4, lr}
 825              	.LCFI10:
 826              		.cfi_def_cfa_offset 8
 827              		.cfi_offset 4, -8
 828              		.cfi_offset 14, -4
 497:Drivers/STM32L4xx_HAL_Driver/Src/stm32l4xx_hal_exti.c ****   __IO uint32_t *regaddr;
 829              		.loc 1 497 3 is_stmt 1 view .LVU293
 498:Drivers/STM32L4xx_HAL_Driver/Src/stm32l4xx_hal_exti.c ****   uint32_t regval;
 830              		.loc 1 498 3 view .LVU294
 499:Drivers/STM32L4xx_HAL_Driver/Src/stm32l4xx_hal_exti.c ****   uint32_t maskline;
 831              		.loc 1 499 3 view .LVU295
 500:Drivers/STM32L4xx_HAL_Driver/Src/stm32l4xx_hal_exti.c ****   uint32_t offset;
 832              		.loc 1 500 3 view .LVU296
 501:Drivers/STM32L4xx_HAL_Driver/Src/stm32l4xx_hal_exti.c **** 
 502:Drivers/STM32L4xx_HAL_Driver/Src/stm32l4xx_hal_exti.c ****   /* Compute line register offset and line mask */
 503:Drivers/STM32L4xx_HAL_Driver/Src/stm32l4xx_hal_exti.c ****   offset = ((hexti->Line & EXTI_REG_MASK) >> EXTI_REG_SHIFT);
 833              		.loc 1 503 3 view .LVU297
 834              		.loc 1 503 19 is_stmt 0 view .LVU298
 835 0002 0368     		ldr	r3, [r0]
 836              		.loc 1 503 10 view .LVU299
 837 0004 C3F30042 		ubfx	r2, r3, #16, #1
 838              	.LVL106:
 504:Drivers/STM32L4xx_HAL_Driver/Src/stm32l4xx_hal_exti.c ****   maskline = (1uL << (hexti->Line & EXTI_PIN_MASK));
 839              		.loc 1 504 3 is_stmt 1 view .LVU300
 840              		.loc 1 504 35 is_stmt 0 view .LVU301
 841 0008 03F01F03 		and	r3, r3, #31
 842              		.loc 1 504 12 view .LVU302
 843 000c 0121     		movs	r1, #1
 844 000e 01FA03F3 		lsl	r3, r1, r3
 845              	.LVL107:
 505:Drivers/STM32L4xx_HAL_Driver/Src/stm32l4xx_hal_exti.c **** 
 506:Drivers/STM32L4xx_HAL_Driver/Src/stm32l4xx_hal_exti.c ****   /* Get pending bit  */
 507:Drivers/STM32L4xx_HAL_Driver/Src/stm32l4xx_hal_exti.c ****   regaddr = (&EXTI->PR1 + (EXTI_CONFIG_OFFSET * offset));
 846              		.loc 1 507 3 is_stmt 1 view .LVU303
 847              		.loc 1 507 25 is_stmt 0 view .LVU304
 848 0012 5201     		lsls	r2, r2, #5
 849              	.LVL108:
 850              		.loc 1 507 11 view .LVU305
 851 0014 0449     		ldr	r1, .L60
 852              	.LVL109:
 508:Drivers/STM32L4xx_HAL_Driver/Src/stm32l4xx_hal_exti.c ****   regval = (*regaddr & maskline);
 853              		.loc 1 508 3 is_stmt 1 view .LVU306
 854              		.loc 1 508 13 is_stmt 0 view .LVU307
 855 0016 5458     		ldr	r4, [r2, r1]
 856              	.LVL110:
 509:Drivers/STM32L4xx_HAL_Driver/Src/stm32l4xx_hal_exti.c **** 
 510:Drivers/STM32L4xx_HAL_Driver/Src/stm32l4xx_hal_exti.c ****   if (regval != 0x00u)
 857              		.loc 1 510 3 is_stmt 1 view .LVU308
 858              		.loc 1 510 6 is_stmt 0 view .LVU309
 859 0018 1C42     		tst	r4, r3
 860 001a 03D0     		beq	.L57
 511:Drivers/STM32L4xx_HAL_Driver/Src/stm32l4xx_hal_exti.c ****   {
ARM GAS  /tmp/ccvbvPNS.s 			page 26


 512:Drivers/STM32L4xx_HAL_Driver/Src/stm32l4xx_hal_exti.c ****     /* Clear pending bit */
 513:Drivers/STM32L4xx_HAL_Driver/Src/stm32l4xx_hal_exti.c ****     *regaddr = maskline;
 861              		.loc 1 513 5 is_stmt 1 view .LVU310
 862              		.loc 1 513 14 is_stmt 0 view .LVU311
 863 001c 5350     		str	r3, [r2, r1]
 864              	.LVL111:
 514:Drivers/STM32L4xx_HAL_Driver/Src/stm32l4xx_hal_exti.c **** 
 515:Drivers/STM32L4xx_HAL_Driver/Src/stm32l4xx_hal_exti.c ****     /* Call callback */
 516:Drivers/STM32L4xx_HAL_Driver/Src/stm32l4xx_hal_exti.c ****     if (hexti->PendingCallback != NULL)
 865              		.loc 1 516 5 is_stmt 1 view .LVU312
 866              		.loc 1 516 14 is_stmt 0 view .LVU313
 867 001e 4368     		ldr	r3, [r0, #4]
 868              	.LVL112:
 869              		.loc 1 516 8 view .LVU314
 870 0020 03B1     		cbz	r3, .L57
 517:Drivers/STM32L4xx_HAL_Driver/Src/stm32l4xx_hal_exti.c ****     {
 518:Drivers/STM32L4xx_HAL_Driver/Src/stm32l4xx_hal_exti.c ****       hexti->PendingCallback();
 871              		.loc 1 518 7 is_stmt 1 view .LVU315
 872 0022 9847     		blx	r3
 873              	.LVL113:
 874              	.L57:
 519:Drivers/STM32L4xx_HAL_Driver/Src/stm32l4xx_hal_exti.c ****     }
 520:Drivers/STM32L4xx_HAL_Driver/Src/stm32l4xx_hal_exti.c ****   }
 521:Drivers/STM32L4xx_HAL_Driver/Src/stm32l4xx_hal_exti.c **** }
 875              		.loc 1 521 1 is_stmt 0 view .LVU316
 876 0024 10BD     		pop	{r4, pc}
 877              	.L61:
 878              		.loc 1 521 1 view .LVU317
 879 0026 00BF     		.align	2
 880              	.L60:
 881 0028 14040140 		.word	1073808404
 882              		.cfi_endproc
 883              	.LFE137:
 885              		.section	.text.HAL_EXTI_GetPending,"ax",%progbits
 886              		.align	1
 887              		.global	HAL_EXTI_GetPending
 888              		.syntax unified
 889              		.thumb
 890              		.thumb_func
 891              		.fpu fpv4-sp-d16
 893              	HAL_EXTI_GetPending:
 894              	.LVL114:
 895              	.LFB138:
 522:Drivers/STM32L4xx_HAL_Driver/Src/stm32l4xx_hal_exti.c **** 
 523:Drivers/STM32L4xx_HAL_Driver/Src/stm32l4xx_hal_exti.c **** 
 524:Drivers/STM32L4xx_HAL_Driver/Src/stm32l4xx_hal_exti.c **** /**
 525:Drivers/STM32L4xx_HAL_Driver/Src/stm32l4xx_hal_exti.c ****   * @brief  Get interrupt pending bit of a dedicated line.
 526:Drivers/STM32L4xx_HAL_Driver/Src/stm32l4xx_hal_exti.c ****   * @param  hexti Exti handle.
 527:Drivers/STM32L4xx_HAL_Driver/Src/stm32l4xx_hal_exti.c ****   * @param  Edge Specify which pending edge as to be checked.
 528:Drivers/STM32L4xx_HAL_Driver/Src/stm32l4xx_hal_exti.c ****   *         This parameter can be one of the following values:
 529:Drivers/STM32L4xx_HAL_Driver/Src/stm32l4xx_hal_exti.c ****   *           @arg @ref EXTI_TRIGGER_RISING_FALLING
 530:Drivers/STM32L4xx_HAL_Driver/Src/stm32l4xx_hal_exti.c ****   *         This parameter is kept for compatibility with other series.
 531:Drivers/STM32L4xx_HAL_Driver/Src/stm32l4xx_hal_exti.c ****   * @retval 1 if interrupt is pending else 0.
 532:Drivers/STM32L4xx_HAL_Driver/Src/stm32l4xx_hal_exti.c ****   */
 533:Drivers/STM32L4xx_HAL_Driver/Src/stm32l4xx_hal_exti.c **** uint32_t HAL_EXTI_GetPending(EXTI_HandleTypeDef *hexti, uint32_t Edge)
 534:Drivers/STM32L4xx_HAL_Driver/Src/stm32l4xx_hal_exti.c **** {
 896              		.loc 1 534 1 is_stmt 1 view -0
ARM GAS  /tmp/ccvbvPNS.s 			page 27


 897              		.cfi_startproc
 898              		@ args = 0, pretend = 0, frame = 0
 899              		@ frame_needed = 0, uses_anonymous_args = 0
 900              		@ link register save eliminated.
 535:Drivers/STM32L4xx_HAL_Driver/Src/stm32l4xx_hal_exti.c ****   __IO uint32_t *regaddr;
 901              		.loc 1 535 3 view .LVU319
 536:Drivers/STM32L4xx_HAL_Driver/Src/stm32l4xx_hal_exti.c ****   uint32_t regval;
 902              		.loc 1 536 3 view .LVU320
 537:Drivers/STM32L4xx_HAL_Driver/Src/stm32l4xx_hal_exti.c ****   uint32_t linepos;
 903              		.loc 1 537 3 view .LVU321
 538:Drivers/STM32L4xx_HAL_Driver/Src/stm32l4xx_hal_exti.c ****   uint32_t maskline;
 904              		.loc 1 538 3 view .LVU322
 539:Drivers/STM32L4xx_HAL_Driver/Src/stm32l4xx_hal_exti.c ****   uint32_t offset;
 905              		.loc 1 539 3 view .LVU323
 540:Drivers/STM32L4xx_HAL_Driver/Src/stm32l4xx_hal_exti.c **** 
 541:Drivers/STM32L4xx_HAL_Driver/Src/stm32l4xx_hal_exti.c ****   /* Check parameters */
 542:Drivers/STM32L4xx_HAL_Driver/Src/stm32l4xx_hal_exti.c ****   assert_param(IS_EXTI_LINE(hexti->Line));
 906              		.loc 1 542 3 view .LVU324
 543:Drivers/STM32L4xx_HAL_Driver/Src/stm32l4xx_hal_exti.c ****   assert_param(IS_EXTI_CONFIG_LINE(hexti->Line));
 907              		.loc 1 543 3 view .LVU325
 544:Drivers/STM32L4xx_HAL_Driver/Src/stm32l4xx_hal_exti.c ****   assert_param(IS_EXTI_PENDING_EDGE(Edge));
 908              		.loc 1 544 3 view .LVU326
 545:Drivers/STM32L4xx_HAL_Driver/Src/stm32l4xx_hal_exti.c **** 
 546:Drivers/STM32L4xx_HAL_Driver/Src/stm32l4xx_hal_exti.c ****   /* Compute line register offset and line mask */
 547:Drivers/STM32L4xx_HAL_Driver/Src/stm32l4xx_hal_exti.c ****   offset = ((hexti->Line & EXTI_REG_MASK) >> EXTI_REG_SHIFT);
 909              		.loc 1 547 3 view .LVU327
 910              		.loc 1 547 19 is_stmt 0 view .LVU328
 911 0000 0368     		ldr	r3, [r0]
 912              		.loc 1 547 10 view .LVU329
 913 0002 C3F30041 		ubfx	r1, r3, #16, #1
 914              	.LVL115:
 548:Drivers/STM32L4xx_HAL_Driver/Src/stm32l4xx_hal_exti.c ****   linepos = (hexti->Line & EXTI_PIN_MASK);
 915              		.loc 1 548 3 is_stmt 1 view .LVU330
 916              		.loc 1 548 11 is_stmt 0 view .LVU331
 917 0006 03F01F03 		and	r3, r3, #31
 918              	.LVL116:
 549:Drivers/STM32L4xx_HAL_Driver/Src/stm32l4xx_hal_exti.c ****   maskline = (1uL << linepos);
 919              		.loc 1 549 3 is_stmt 1 view .LVU332
 920              		.loc 1 549 12 is_stmt 0 view .LVU333
 921 000a 0120     		movs	r0, #1
 922              	.LVL117:
 923              		.loc 1 549 12 view .LVU334
 924 000c 00FA03F2 		lsl	r2, r0, r3
 925              	.LVL118:
 550:Drivers/STM32L4xx_HAL_Driver/Src/stm32l4xx_hal_exti.c **** 
 551:Drivers/STM32L4xx_HAL_Driver/Src/stm32l4xx_hal_exti.c ****   /* Get pending bit */
 552:Drivers/STM32L4xx_HAL_Driver/Src/stm32l4xx_hal_exti.c ****   regaddr = (&EXTI->PR1 + (EXTI_CONFIG_OFFSET * offset));
 926              		.loc 1 552 3 is_stmt 1 view .LVU335
 927              		.loc 1 552 25 is_stmt 0 view .LVU336
 928 0010 4901     		lsls	r1, r1, #5
 929              	.LVL119:
 930              		.loc 1 552 11 view .LVU337
 931 0012 0248     		ldr	r0, .L63
 932              	.LVL120:
 553:Drivers/STM32L4xx_HAL_Driver/Src/stm32l4xx_hal_exti.c **** 
 554:Drivers/STM32L4xx_HAL_Driver/Src/stm32l4xx_hal_exti.c ****   /* return 1 if bit is set else 0 */
 555:Drivers/STM32L4xx_HAL_Driver/Src/stm32l4xx_hal_exti.c ****   regval = ((*regaddr & maskline) >> linepos);
ARM GAS  /tmp/ccvbvPNS.s 			page 28


 933              		.loc 1 555 3 is_stmt 1 view .LVU338
 934              		.loc 1 555 14 is_stmt 0 view .LVU339
 935 0014 0858     		ldr	r0, [r1, r0]
 936              	.LVL121:
 937              		.loc 1 555 23 view .LVU340
 938 0016 1040     		ands	r0, r0, r2
 939              	.LVL122:
 556:Drivers/STM32L4xx_HAL_Driver/Src/stm32l4xx_hal_exti.c ****   return regval;
 940              		.loc 1 556 3 is_stmt 1 view .LVU341
 557:Drivers/STM32L4xx_HAL_Driver/Src/stm32l4xx_hal_exti.c **** }
 941              		.loc 1 557 1 is_stmt 0 view .LVU342
 942 0018 D840     		lsrs	r0, r0, r3
 943              	.LVL123:
 944              		.loc 1 557 1 view .LVU343
 945 001a 7047     		bx	lr
 946              	.L64:
 947              		.align	2
 948              	.L63:
 949 001c 14040140 		.word	1073808404
 950              		.cfi_endproc
 951              	.LFE138:
 953              		.section	.text.HAL_EXTI_ClearPending,"ax",%progbits
 954              		.align	1
 955              		.global	HAL_EXTI_ClearPending
 956              		.syntax unified
 957              		.thumb
 958              		.thumb_func
 959              		.fpu fpv4-sp-d16
 961              	HAL_EXTI_ClearPending:
 962              	.LVL124:
 963              	.LFB139:
 558:Drivers/STM32L4xx_HAL_Driver/Src/stm32l4xx_hal_exti.c **** 
 559:Drivers/STM32L4xx_HAL_Driver/Src/stm32l4xx_hal_exti.c **** 
 560:Drivers/STM32L4xx_HAL_Driver/Src/stm32l4xx_hal_exti.c **** /**
 561:Drivers/STM32L4xx_HAL_Driver/Src/stm32l4xx_hal_exti.c ****   * @brief  Clear interrupt pending bit of a dedicated line.
 562:Drivers/STM32L4xx_HAL_Driver/Src/stm32l4xx_hal_exti.c ****   * @param  hexti Exti handle.
 563:Drivers/STM32L4xx_HAL_Driver/Src/stm32l4xx_hal_exti.c ****   * @param  Edge Specify which pending edge as to be clear.
 564:Drivers/STM32L4xx_HAL_Driver/Src/stm32l4xx_hal_exti.c ****   *         This parameter can be one of the following values:
 565:Drivers/STM32L4xx_HAL_Driver/Src/stm32l4xx_hal_exti.c ****   *           @arg @ref EXTI_TRIGGER_RISING_FALLING
 566:Drivers/STM32L4xx_HAL_Driver/Src/stm32l4xx_hal_exti.c ****   *         This parameter is kept for compatibility with other series.
 567:Drivers/STM32L4xx_HAL_Driver/Src/stm32l4xx_hal_exti.c ****   * @retval None.
 568:Drivers/STM32L4xx_HAL_Driver/Src/stm32l4xx_hal_exti.c ****   */
 569:Drivers/STM32L4xx_HAL_Driver/Src/stm32l4xx_hal_exti.c **** void HAL_EXTI_ClearPending(EXTI_HandleTypeDef *hexti, uint32_t Edge)
 570:Drivers/STM32L4xx_HAL_Driver/Src/stm32l4xx_hal_exti.c **** {
 964              		.loc 1 570 1 is_stmt 1 view -0
 965              		.cfi_startproc
 966              		@ args = 0, pretend = 0, frame = 0
 967              		@ frame_needed = 0, uses_anonymous_args = 0
 968              		@ link register save eliminated.
 571:Drivers/STM32L4xx_HAL_Driver/Src/stm32l4xx_hal_exti.c ****   __IO uint32_t *regaddr;
 969              		.loc 1 571 3 view .LVU345
 572:Drivers/STM32L4xx_HAL_Driver/Src/stm32l4xx_hal_exti.c ****   uint32_t maskline;
 970              		.loc 1 572 3 view .LVU346
 573:Drivers/STM32L4xx_HAL_Driver/Src/stm32l4xx_hal_exti.c ****   uint32_t offset;
 971              		.loc 1 573 3 view .LVU347
 574:Drivers/STM32L4xx_HAL_Driver/Src/stm32l4xx_hal_exti.c **** 
 575:Drivers/STM32L4xx_HAL_Driver/Src/stm32l4xx_hal_exti.c ****   /* Check parameters */
ARM GAS  /tmp/ccvbvPNS.s 			page 29


 576:Drivers/STM32L4xx_HAL_Driver/Src/stm32l4xx_hal_exti.c ****   assert_param(IS_EXTI_LINE(hexti->Line));
 972              		.loc 1 576 3 view .LVU348
 577:Drivers/STM32L4xx_HAL_Driver/Src/stm32l4xx_hal_exti.c ****   assert_param(IS_EXTI_CONFIG_LINE(hexti->Line));
 973              		.loc 1 577 3 view .LVU349
 578:Drivers/STM32L4xx_HAL_Driver/Src/stm32l4xx_hal_exti.c ****   assert_param(IS_EXTI_PENDING_EDGE(Edge));
 974              		.loc 1 578 3 view .LVU350
 579:Drivers/STM32L4xx_HAL_Driver/Src/stm32l4xx_hal_exti.c **** 
 580:Drivers/STM32L4xx_HAL_Driver/Src/stm32l4xx_hal_exti.c ****   /* compute line register offset and line mask */
 581:Drivers/STM32L4xx_HAL_Driver/Src/stm32l4xx_hal_exti.c ****   offset = ((hexti->Line & EXTI_REG_MASK) >> EXTI_REG_SHIFT);
 975              		.loc 1 581 3 view .LVU351
 976              		.loc 1 581 19 is_stmt 0 view .LVU352
 977 0000 0368     		ldr	r3, [r0]
 978              		.loc 1 581 10 view .LVU353
 979 0002 C3F30042 		ubfx	r2, r3, #16, #1
 980              	.LVL125:
 582:Drivers/STM32L4xx_HAL_Driver/Src/stm32l4xx_hal_exti.c ****   maskline = (1uL << (hexti->Line & EXTI_PIN_MASK));
 981              		.loc 1 582 3 is_stmt 1 view .LVU354
 982              		.loc 1 582 35 is_stmt 0 view .LVU355
 983 0006 03F01F03 		and	r3, r3, #31
 984              		.loc 1 582 12 view .LVU356
 985 000a 0121     		movs	r1, #1
 986              	.LVL126:
 987              		.loc 1 582 12 view .LVU357
 988 000c 01FA03F3 		lsl	r3, r1, r3
 989              	.LVL127:
 583:Drivers/STM32L4xx_HAL_Driver/Src/stm32l4xx_hal_exti.c **** 
 584:Drivers/STM32L4xx_HAL_Driver/Src/stm32l4xx_hal_exti.c ****   /* Get pending register address */
 585:Drivers/STM32L4xx_HAL_Driver/Src/stm32l4xx_hal_exti.c ****   regaddr = (&EXTI->PR1 + (EXTI_CONFIG_OFFSET * offset));
 990              		.loc 1 585 3 is_stmt 1 view .LVU358
 991              		.loc 1 585 25 is_stmt 0 view .LVU359
 992 0010 5201     		lsls	r2, r2, #5
 993              	.LVL128:
 994              		.loc 1 585 11 view .LVU360
 995 0012 0149     		ldr	r1, .L66
 996              	.LVL129:
 586:Drivers/STM32L4xx_HAL_Driver/Src/stm32l4xx_hal_exti.c **** 
 587:Drivers/STM32L4xx_HAL_Driver/Src/stm32l4xx_hal_exti.c ****   /* Clear Pending bit */
 588:Drivers/STM32L4xx_HAL_Driver/Src/stm32l4xx_hal_exti.c ****   *regaddr =  maskline;
 997              		.loc 1 588 3 is_stmt 1 view .LVU361
 998              		.loc 1 588 12 is_stmt 0 view .LVU362
 999 0014 5350     		str	r3, [r2, r1]
 1000              	.LVL130:
 589:Drivers/STM32L4xx_HAL_Driver/Src/stm32l4xx_hal_exti.c **** }
 1001              		.loc 1 589 1 view .LVU363
 1002 0016 7047     		bx	lr
 1003              	.L67:
 1004              		.align	2
 1005              	.L66:
 1006 0018 14040140 		.word	1073808404
 1007              		.cfi_endproc
 1008              	.LFE139:
 1010              		.section	.text.HAL_EXTI_GenerateSWI,"ax",%progbits
 1011              		.align	1
 1012              		.global	HAL_EXTI_GenerateSWI
 1013              		.syntax unified
 1014              		.thumb
 1015              		.thumb_func
ARM GAS  /tmp/ccvbvPNS.s 			page 30


 1016              		.fpu fpv4-sp-d16
 1018              	HAL_EXTI_GenerateSWI:
 1019              	.LVL131:
 1020              	.LFB140:
 590:Drivers/STM32L4xx_HAL_Driver/Src/stm32l4xx_hal_exti.c **** 
 591:Drivers/STM32L4xx_HAL_Driver/Src/stm32l4xx_hal_exti.c **** 
 592:Drivers/STM32L4xx_HAL_Driver/Src/stm32l4xx_hal_exti.c **** /**
 593:Drivers/STM32L4xx_HAL_Driver/Src/stm32l4xx_hal_exti.c ****   * @brief  Generate a software interrupt for a dedicated line.
 594:Drivers/STM32L4xx_HAL_Driver/Src/stm32l4xx_hal_exti.c ****   * @param  hexti Exti handle.
 595:Drivers/STM32L4xx_HAL_Driver/Src/stm32l4xx_hal_exti.c ****   * @retval None.
 596:Drivers/STM32L4xx_HAL_Driver/Src/stm32l4xx_hal_exti.c ****   */
 597:Drivers/STM32L4xx_HAL_Driver/Src/stm32l4xx_hal_exti.c **** void HAL_EXTI_GenerateSWI(EXTI_HandleTypeDef *hexti)
 598:Drivers/STM32L4xx_HAL_Driver/Src/stm32l4xx_hal_exti.c **** {
 1021              		.loc 1 598 1 is_stmt 1 view -0
 1022              		.cfi_startproc
 1023              		@ args = 0, pretend = 0, frame = 0
 1024              		@ frame_needed = 0, uses_anonymous_args = 0
 1025              		@ link register save eliminated.
 599:Drivers/STM32L4xx_HAL_Driver/Src/stm32l4xx_hal_exti.c ****   __IO uint32_t *regaddr;
 1026              		.loc 1 599 3 view .LVU365
 600:Drivers/STM32L4xx_HAL_Driver/Src/stm32l4xx_hal_exti.c ****   uint32_t maskline;
 1027              		.loc 1 600 3 view .LVU366
 601:Drivers/STM32L4xx_HAL_Driver/Src/stm32l4xx_hal_exti.c ****   uint32_t offset;
 1028              		.loc 1 601 3 view .LVU367
 602:Drivers/STM32L4xx_HAL_Driver/Src/stm32l4xx_hal_exti.c **** 
 603:Drivers/STM32L4xx_HAL_Driver/Src/stm32l4xx_hal_exti.c ****   /* Check parameters */
 604:Drivers/STM32L4xx_HAL_Driver/Src/stm32l4xx_hal_exti.c ****   assert_param(IS_EXTI_LINE(hexti->Line));
 1029              		.loc 1 604 3 view .LVU368
 605:Drivers/STM32L4xx_HAL_Driver/Src/stm32l4xx_hal_exti.c ****   assert_param(IS_EXTI_CONFIG_LINE(hexti->Line));
 1030              		.loc 1 605 3 view .LVU369
 606:Drivers/STM32L4xx_HAL_Driver/Src/stm32l4xx_hal_exti.c **** 
 607:Drivers/STM32L4xx_HAL_Driver/Src/stm32l4xx_hal_exti.c ****   /* compute line register offset and line mask */
 608:Drivers/STM32L4xx_HAL_Driver/Src/stm32l4xx_hal_exti.c ****   offset = ((hexti->Line & EXTI_REG_MASK) >> EXTI_REG_SHIFT);
 1031              		.loc 1 608 3 view .LVU370
 1032              		.loc 1 608 19 is_stmt 0 view .LVU371
 1033 0000 0368     		ldr	r3, [r0]
 1034              		.loc 1 608 10 view .LVU372
 1035 0002 C3F30042 		ubfx	r2, r3, #16, #1
 1036              	.LVL132:
 609:Drivers/STM32L4xx_HAL_Driver/Src/stm32l4xx_hal_exti.c ****   maskline = (1uL << (hexti->Line & EXTI_PIN_MASK));
 1037              		.loc 1 609 3 is_stmt 1 view .LVU373
 1038              		.loc 1 609 35 is_stmt 0 view .LVU374
 1039 0006 03F01F03 		and	r3, r3, #31
 1040              		.loc 1 609 12 view .LVU375
 1041 000a 0121     		movs	r1, #1
 1042 000c 01FA03F3 		lsl	r3, r1, r3
 1043              	.LVL133:
 610:Drivers/STM32L4xx_HAL_Driver/Src/stm32l4xx_hal_exti.c **** 
 611:Drivers/STM32L4xx_HAL_Driver/Src/stm32l4xx_hal_exti.c ****   regaddr = (&EXTI->SWIER1 + (EXTI_CONFIG_OFFSET * offset));
 1044              		.loc 1 611 3 is_stmt 1 view .LVU376
 1045              		.loc 1 611 28 is_stmt 0 view .LVU377
 1046 0010 5201     		lsls	r2, r2, #5
 1047              	.LVL134:
 1048              		.loc 1 611 11 view .LVU378
 1049 0012 0149     		ldr	r1, .L69
 1050              	.LVL135:
 612:Drivers/STM32L4xx_HAL_Driver/Src/stm32l4xx_hal_exti.c ****   *regaddr = maskline;
ARM GAS  /tmp/ccvbvPNS.s 			page 31


 1051              		.loc 1 612 3 is_stmt 1 view .LVU379
 1052              		.loc 1 612 12 is_stmt 0 view .LVU380
 1053 0014 5350     		str	r3, [r2, r1]
 1054              	.LVL136:
 613:Drivers/STM32L4xx_HAL_Driver/Src/stm32l4xx_hal_exti.c **** }
 1055              		.loc 1 613 1 view .LVU381
 1056 0016 7047     		bx	lr
 1057              	.L70:
 1058              		.align	2
 1059              	.L69:
 1060 0018 10040140 		.word	1073808400
 1061              		.cfi_endproc
 1062              	.LFE140:
 1064              		.text
 1065              	.Letext0:
 1066              		.file 2 "/home/dev/gcc-arm-none-eabi-10-2020-q4-major/arm-none-eabi/include/machine/_default_types
 1067              		.file 3 "/home/dev/gcc-arm-none-eabi-10-2020-q4-major/arm-none-eabi/include/sys/_stdint.h"
 1068              		.file 4 "Drivers/CMSIS/Device/ST/STM32L4xx/Include/stm32l475xx.h"
 1069              		.file 5 "Drivers/STM32L4xx_HAL_Driver/Inc/stm32l4xx_hal_def.h"
 1070              		.file 6 "Drivers/STM32L4xx_HAL_Driver/Inc/stm32l4xx_hal_exti.h"
ARM GAS  /tmp/ccvbvPNS.s 			page 32


DEFINED SYMBOLS
                            *ABS*:0000000000000000 stm32l4xx_hal_exti.c
     /tmp/ccvbvPNS.s:18     .text.HAL_EXTI_SetConfigLine:0000000000000000 $t
     /tmp/ccvbvPNS.s:26     .text.HAL_EXTI_SetConfigLine:0000000000000000 HAL_EXTI_SetConfigLine
     /tmp/ccvbvPNS.s:298    .text.HAL_EXTI_SetConfigLine:00000000000000cc $d
     /tmp/ccvbvPNS.s:306    .text.HAL_EXTI_GetConfigLine:0000000000000000 $t
     /tmp/ccvbvPNS.s:313    .text.HAL_EXTI_GetConfigLine:0000000000000000 HAL_EXTI_GetConfigLine
     /tmp/ccvbvPNS.s:530    .text.HAL_EXTI_GetConfigLine:00000000000000ac $d
     /tmp/ccvbvPNS.s:538    .text.HAL_EXTI_ClearConfigLine:0000000000000000 $t
     /tmp/ccvbvPNS.s:545    .text.HAL_EXTI_ClearConfigLine:0000000000000000 HAL_EXTI_ClearConfigLine
     /tmp/ccvbvPNS.s:722    .text.HAL_EXTI_ClearConfigLine:0000000000000090 $d
     /tmp/ccvbvPNS.s:730    .text.HAL_EXTI_RegisterCallback:0000000000000000 $t
     /tmp/ccvbvPNS.s:737    .text.HAL_EXTI_RegisterCallback:0000000000000000 HAL_EXTI_RegisterCallback
     /tmp/ccvbvPNS.s:770    .text.HAL_EXTI_GetHandle:0000000000000000 $t
     /tmp/ccvbvPNS.s:777    .text.HAL_EXTI_GetHandle:0000000000000000 HAL_EXTI_GetHandle
     /tmp/ccvbvPNS.s:809    .text.HAL_EXTI_IRQHandler:0000000000000000 $t
     /tmp/ccvbvPNS.s:816    .text.HAL_EXTI_IRQHandler:0000000000000000 HAL_EXTI_IRQHandler
     /tmp/ccvbvPNS.s:881    .text.HAL_EXTI_IRQHandler:0000000000000028 $d
     /tmp/ccvbvPNS.s:886    .text.HAL_EXTI_GetPending:0000000000000000 $t
     /tmp/ccvbvPNS.s:893    .text.HAL_EXTI_GetPending:0000000000000000 HAL_EXTI_GetPending
     /tmp/ccvbvPNS.s:949    .text.HAL_EXTI_GetPending:000000000000001c $d
     /tmp/ccvbvPNS.s:954    .text.HAL_EXTI_ClearPending:0000000000000000 $t
     /tmp/ccvbvPNS.s:961    .text.HAL_EXTI_ClearPending:0000000000000000 HAL_EXTI_ClearPending
     /tmp/ccvbvPNS.s:1006   .text.HAL_EXTI_ClearPending:0000000000000018 $d
     /tmp/ccvbvPNS.s:1011   .text.HAL_EXTI_GenerateSWI:0000000000000000 $t
     /tmp/ccvbvPNS.s:1018   .text.HAL_EXTI_GenerateSWI:0000000000000000 HAL_EXTI_GenerateSWI
     /tmp/ccvbvPNS.s:1060   .text.HAL_EXTI_GenerateSWI:0000000000000018 $d

NO UNDEFINED SYMBOLS
