ARM GAS  /tmp/cctl12IJ.s 			page 1


   1              		.cpu cortex-m4
   2              		.eabi_attribute 27, 1
   3              		.eabi_attribute 28, 1
   4              		.eabi_attribute 20, 1
   5              		.eabi_attribute 21, 1
   6              		.eabi_attribute 23, 3
   7              		.eabi_attribute 24, 1
   8              		.eabi_attribute 25, 1
   9              		.eabi_attribute 26, 1
  10              		.eabi_attribute 30, 1
  11              		.eabi_attribute 34, 1
  12              		.eabi_attribute 18, 4
  13              		.file	"stm32l4xx_hal_gpio.c"
  14              		.text
  15              	.Ltext0:
  16              		.cfi_sections	.debug_frame
  17              		.section	.text.HAL_GPIO_Init,"ax",%progbits
  18              		.align	1
  19              		.global	HAL_GPIO_Init
  20              		.arch armv7e-m
  21              		.syntax unified
  22              		.thumb
  23              		.thumb_func
  24              		.fpu fpv4-sp-d16
  26              	HAL_GPIO_Init:
  27              	.LVL0:
  28              	.LFB132:
  29              		.file 1 "Drivers/STM32L4xx_HAL_Driver/Src/stm32l4xx_hal_gpio.c"
   1:Drivers/STM32L4xx_HAL_Driver/Src/stm32l4xx_hal_gpio.c **** /**
   2:Drivers/STM32L4xx_HAL_Driver/Src/stm32l4xx_hal_gpio.c ****   ******************************************************************************
   3:Drivers/STM32L4xx_HAL_Driver/Src/stm32l4xx_hal_gpio.c ****   * @file    stm32l4xx_hal_gpio.c
   4:Drivers/STM32L4xx_HAL_Driver/Src/stm32l4xx_hal_gpio.c ****   * @author  MCD Application Team
   5:Drivers/STM32L4xx_HAL_Driver/Src/stm32l4xx_hal_gpio.c ****   * @brief   GPIO HAL module driver.
   6:Drivers/STM32L4xx_HAL_Driver/Src/stm32l4xx_hal_gpio.c ****   *          This file provides firmware functions to manage the following
   7:Drivers/STM32L4xx_HAL_Driver/Src/stm32l4xx_hal_gpio.c ****   *          functionalities of the General Purpose Input/Output (GPIO) peripheral:
   8:Drivers/STM32L4xx_HAL_Driver/Src/stm32l4xx_hal_gpio.c ****   *           + Initialization and de-initialization functions
   9:Drivers/STM32L4xx_HAL_Driver/Src/stm32l4xx_hal_gpio.c ****   *           + IO operation functions
  10:Drivers/STM32L4xx_HAL_Driver/Src/stm32l4xx_hal_gpio.c ****   *
  11:Drivers/STM32L4xx_HAL_Driver/Src/stm32l4xx_hal_gpio.c ****   ******************************************************************************
  12:Drivers/STM32L4xx_HAL_Driver/Src/stm32l4xx_hal_gpio.c ****   * @attention
  13:Drivers/STM32L4xx_HAL_Driver/Src/stm32l4xx_hal_gpio.c ****   *
  14:Drivers/STM32L4xx_HAL_Driver/Src/stm32l4xx_hal_gpio.c ****   * Copyright (c) 2017 STMicroelectronics.
  15:Drivers/STM32L4xx_HAL_Driver/Src/stm32l4xx_hal_gpio.c ****   * All rights reserved.
  16:Drivers/STM32L4xx_HAL_Driver/Src/stm32l4xx_hal_gpio.c ****   *
  17:Drivers/STM32L4xx_HAL_Driver/Src/stm32l4xx_hal_gpio.c ****   * This software is licensed under terms that can be found in the LICENSE file
  18:Drivers/STM32L4xx_HAL_Driver/Src/stm32l4xx_hal_gpio.c ****   * in the root directory of this software component.
  19:Drivers/STM32L4xx_HAL_Driver/Src/stm32l4xx_hal_gpio.c ****   * If no LICENSE file comes with this software, it is provided AS-IS.
  20:Drivers/STM32L4xx_HAL_Driver/Src/stm32l4xx_hal_gpio.c ****   *
  21:Drivers/STM32L4xx_HAL_Driver/Src/stm32l4xx_hal_gpio.c ****   ******************************************************************************
  22:Drivers/STM32L4xx_HAL_Driver/Src/stm32l4xx_hal_gpio.c ****   @verbatim
  23:Drivers/STM32L4xx_HAL_Driver/Src/stm32l4xx_hal_gpio.c ****   ==============================================================================
  24:Drivers/STM32L4xx_HAL_Driver/Src/stm32l4xx_hal_gpio.c ****                     ##### GPIO Peripheral features #####
  25:Drivers/STM32L4xx_HAL_Driver/Src/stm32l4xx_hal_gpio.c ****   ==============================================================================
  26:Drivers/STM32L4xx_HAL_Driver/Src/stm32l4xx_hal_gpio.c ****   [..]
  27:Drivers/STM32L4xx_HAL_Driver/Src/stm32l4xx_hal_gpio.c ****     (+) Each port bit of the general-purpose I/O (GPIO) ports can be individually
  28:Drivers/STM32L4xx_HAL_Driver/Src/stm32l4xx_hal_gpio.c ****         configured by software in several modes:
  29:Drivers/STM32L4xx_HAL_Driver/Src/stm32l4xx_hal_gpio.c ****         (++) Input mode
ARM GAS  /tmp/cctl12IJ.s 			page 2


  30:Drivers/STM32L4xx_HAL_Driver/Src/stm32l4xx_hal_gpio.c ****         (++) Analog mode
  31:Drivers/STM32L4xx_HAL_Driver/Src/stm32l4xx_hal_gpio.c ****         (++) Output mode
  32:Drivers/STM32L4xx_HAL_Driver/Src/stm32l4xx_hal_gpio.c ****         (++) Alternate function mode
  33:Drivers/STM32L4xx_HAL_Driver/Src/stm32l4xx_hal_gpio.c ****         (++) External interrupt/event lines
  34:Drivers/STM32L4xx_HAL_Driver/Src/stm32l4xx_hal_gpio.c **** 
  35:Drivers/STM32L4xx_HAL_Driver/Src/stm32l4xx_hal_gpio.c ****     (+) During and just after reset, the alternate functions and external interrupt
  36:Drivers/STM32L4xx_HAL_Driver/Src/stm32l4xx_hal_gpio.c ****         lines are not active and the I/O ports are configured in input floating mode.
  37:Drivers/STM32L4xx_HAL_Driver/Src/stm32l4xx_hal_gpio.c **** 
  38:Drivers/STM32L4xx_HAL_Driver/Src/stm32l4xx_hal_gpio.c ****     (+) All GPIO pins have weak internal pull-up and pull-down resistors, which can be
  39:Drivers/STM32L4xx_HAL_Driver/Src/stm32l4xx_hal_gpio.c ****         activated or not.
  40:Drivers/STM32L4xx_HAL_Driver/Src/stm32l4xx_hal_gpio.c **** 
  41:Drivers/STM32L4xx_HAL_Driver/Src/stm32l4xx_hal_gpio.c ****     (+) In Output or Alternate mode, each IO can be configured on open-drain or push-pull
  42:Drivers/STM32L4xx_HAL_Driver/Src/stm32l4xx_hal_gpio.c ****         type and the IO speed can be selected depending on the VDD value.
  43:Drivers/STM32L4xx_HAL_Driver/Src/stm32l4xx_hal_gpio.c **** 
  44:Drivers/STM32L4xx_HAL_Driver/Src/stm32l4xx_hal_gpio.c ****     (+) The microcontroller IO pins are connected to onboard peripherals/modules through a
  45:Drivers/STM32L4xx_HAL_Driver/Src/stm32l4xx_hal_gpio.c ****         multiplexer that allows only one peripheral alternate function (AF) connected
  46:Drivers/STM32L4xx_HAL_Driver/Src/stm32l4xx_hal_gpio.c ****        to an IO pin at a time. In this way, there can be no conflict between peripherals
  47:Drivers/STM32L4xx_HAL_Driver/Src/stm32l4xx_hal_gpio.c ****        sharing the same IO pin.
  48:Drivers/STM32L4xx_HAL_Driver/Src/stm32l4xx_hal_gpio.c **** 
  49:Drivers/STM32L4xx_HAL_Driver/Src/stm32l4xx_hal_gpio.c ****     (+) All ports have external interrupt/event capability. To use external interrupt
  50:Drivers/STM32L4xx_HAL_Driver/Src/stm32l4xx_hal_gpio.c ****         lines, the port must be configured in input mode. All available GPIO pins are
  51:Drivers/STM32L4xx_HAL_Driver/Src/stm32l4xx_hal_gpio.c ****         connected to the 16 external interrupt/event lines from EXTI0 to EXTI15.
  52:Drivers/STM32L4xx_HAL_Driver/Src/stm32l4xx_hal_gpio.c **** 
  53:Drivers/STM32L4xx_HAL_Driver/Src/stm32l4xx_hal_gpio.c ****     (+) The external interrupt/event controller consists of up to 39 edge detectors
  54:Drivers/STM32L4xx_HAL_Driver/Src/stm32l4xx_hal_gpio.c ****         (16 lines are connected to GPIO) for generating event/interrupt requests (each
  55:Drivers/STM32L4xx_HAL_Driver/Src/stm32l4xx_hal_gpio.c ****         input line can be independently configured to select the type (interrupt or event)
  56:Drivers/STM32L4xx_HAL_Driver/Src/stm32l4xx_hal_gpio.c ****         and the corresponding trigger event (rising or falling or both). Each line can
  57:Drivers/STM32L4xx_HAL_Driver/Src/stm32l4xx_hal_gpio.c ****         also be masked independently.
  58:Drivers/STM32L4xx_HAL_Driver/Src/stm32l4xx_hal_gpio.c **** 
  59:Drivers/STM32L4xx_HAL_Driver/Src/stm32l4xx_hal_gpio.c ****                      ##### How to use this driver #####
  60:Drivers/STM32L4xx_HAL_Driver/Src/stm32l4xx_hal_gpio.c ****   ==============================================================================
  61:Drivers/STM32L4xx_HAL_Driver/Src/stm32l4xx_hal_gpio.c ****   [..]
  62:Drivers/STM32L4xx_HAL_Driver/Src/stm32l4xx_hal_gpio.c ****     (#) Enable the GPIO AHB clock using the following function: __HAL_RCC_GPIOx_CLK_ENABLE().
  63:Drivers/STM32L4xx_HAL_Driver/Src/stm32l4xx_hal_gpio.c **** 
  64:Drivers/STM32L4xx_HAL_Driver/Src/stm32l4xx_hal_gpio.c ****     (#) Configure the GPIO pin(s) using HAL_GPIO_Init().
  65:Drivers/STM32L4xx_HAL_Driver/Src/stm32l4xx_hal_gpio.c ****         (++) Configure the IO mode using "Mode" member from GPIO_InitTypeDef structure
  66:Drivers/STM32L4xx_HAL_Driver/Src/stm32l4xx_hal_gpio.c ****         (++) Activate Pull-up, Pull-down resistor using "Pull" member from GPIO_InitTypeDef
  67:Drivers/STM32L4xx_HAL_Driver/Src/stm32l4xx_hal_gpio.c ****              structure.
  68:Drivers/STM32L4xx_HAL_Driver/Src/stm32l4xx_hal_gpio.c ****         (++) In case of Output or alternate function mode selection: the speed is
  69:Drivers/STM32L4xx_HAL_Driver/Src/stm32l4xx_hal_gpio.c ****              configured through "Speed" member from GPIO_InitTypeDef structure.
  70:Drivers/STM32L4xx_HAL_Driver/Src/stm32l4xx_hal_gpio.c ****         (++) In alternate mode is selection, the alternate function connected to the IO
  71:Drivers/STM32L4xx_HAL_Driver/Src/stm32l4xx_hal_gpio.c ****              is configured through "Alternate" member from GPIO_InitTypeDef structure.
  72:Drivers/STM32L4xx_HAL_Driver/Src/stm32l4xx_hal_gpio.c ****         (++) Analog mode is required when a pin is to be used as ADC channel
  73:Drivers/STM32L4xx_HAL_Driver/Src/stm32l4xx_hal_gpio.c ****              or DAC output.
  74:Drivers/STM32L4xx_HAL_Driver/Src/stm32l4xx_hal_gpio.c ****         (++) In case of external interrupt/event selection the "Mode" member from
  75:Drivers/STM32L4xx_HAL_Driver/Src/stm32l4xx_hal_gpio.c ****              GPIO_InitTypeDef structure select the type (interrupt or event) and
  76:Drivers/STM32L4xx_HAL_Driver/Src/stm32l4xx_hal_gpio.c ****              the corresponding trigger event (rising or falling or both).
  77:Drivers/STM32L4xx_HAL_Driver/Src/stm32l4xx_hal_gpio.c **** 
  78:Drivers/STM32L4xx_HAL_Driver/Src/stm32l4xx_hal_gpio.c ****     (#) In case of external interrupt/event mode selection, configure NVIC IRQ priority
  79:Drivers/STM32L4xx_HAL_Driver/Src/stm32l4xx_hal_gpio.c ****         mapped to the EXTI line using HAL_NVIC_SetPriority() and enable it using
  80:Drivers/STM32L4xx_HAL_Driver/Src/stm32l4xx_hal_gpio.c ****         HAL_NVIC_EnableIRQ().
  81:Drivers/STM32L4xx_HAL_Driver/Src/stm32l4xx_hal_gpio.c **** 
  82:Drivers/STM32L4xx_HAL_Driver/Src/stm32l4xx_hal_gpio.c ****     (#) To get the level of a pin configured in input mode use HAL_GPIO_ReadPin().
  83:Drivers/STM32L4xx_HAL_Driver/Src/stm32l4xx_hal_gpio.c **** 
  84:Drivers/STM32L4xx_HAL_Driver/Src/stm32l4xx_hal_gpio.c ****     (#) To set/reset the level of a pin configured in output mode use
  85:Drivers/STM32L4xx_HAL_Driver/Src/stm32l4xx_hal_gpio.c ****         HAL_GPIO_WritePin()/HAL_GPIO_TogglePin().
  86:Drivers/STM32L4xx_HAL_Driver/Src/stm32l4xx_hal_gpio.c **** 
ARM GAS  /tmp/cctl12IJ.s 			page 3


  87:Drivers/STM32L4xx_HAL_Driver/Src/stm32l4xx_hal_gpio.c ****    (#) To lock pin configuration until next reset use HAL_GPIO_LockPin().
  88:Drivers/STM32L4xx_HAL_Driver/Src/stm32l4xx_hal_gpio.c **** 
  89:Drivers/STM32L4xx_HAL_Driver/Src/stm32l4xx_hal_gpio.c ****     (#) During and just after reset, the alternate functions are not
  90:Drivers/STM32L4xx_HAL_Driver/Src/stm32l4xx_hal_gpio.c ****         active and the GPIO pins are configured in input floating mode (except JTAG
  91:Drivers/STM32L4xx_HAL_Driver/Src/stm32l4xx_hal_gpio.c ****         pins).
  92:Drivers/STM32L4xx_HAL_Driver/Src/stm32l4xx_hal_gpio.c **** 
  93:Drivers/STM32L4xx_HAL_Driver/Src/stm32l4xx_hal_gpio.c ****     (#) The LSE oscillator pins OSC32_IN and OSC32_OUT can be used as general purpose
  94:Drivers/STM32L4xx_HAL_Driver/Src/stm32l4xx_hal_gpio.c ****         (PC14 and PC15, respectively) when the LSE oscillator is off. The LSE has
  95:Drivers/STM32L4xx_HAL_Driver/Src/stm32l4xx_hal_gpio.c ****         priority over the GPIO function.
  96:Drivers/STM32L4xx_HAL_Driver/Src/stm32l4xx_hal_gpio.c **** 
  97:Drivers/STM32L4xx_HAL_Driver/Src/stm32l4xx_hal_gpio.c ****     (#) The HSE oscillator pins OSC_IN/OSC_OUT can be used as
  98:Drivers/STM32L4xx_HAL_Driver/Src/stm32l4xx_hal_gpio.c ****         general purpose PH0 and PH1, respectively, when the HSE oscillator is off.
  99:Drivers/STM32L4xx_HAL_Driver/Src/stm32l4xx_hal_gpio.c ****         The HSE has priority over the GPIO function.
 100:Drivers/STM32L4xx_HAL_Driver/Src/stm32l4xx_hal_gpio.c **** 
 101:Drivers/STM32L4xx_HAL_Driver/Src/stm32l4xx_hal_gpio.c ****   @endverbatim
 102:Drivers/STM32L4xx_HAL_Driver/Src/stm32l4xx_hal_gpio.c ****   ******************************************************************************
 103:Drivers/STM32L4xx_HAL_Driver/Src/stm32l4xx_hal_gpio.c ****   */
 104:Drivers/STM32L4xx_HAL_Driver/Src/stm32l4xx_hal_gpio.c **** 
 105:Drivers/STM32L4xx_HAL_Driver/Src/stm32l4xx_hal_gpio.c **** /* Includes ------------------------------------------------------------------*/
 106:Drivers/STM32L4xx_HAL_Driver/Src/stm32l4xx_hal_gpio.c **** #include "stm32l4xx_hal.h"
 107:Drivers/STM32L4xx_HAL_Driver/Src/stm32l4xx_hal_gpio.c **** 
 108:Drivers/STM32L4xx_HAL_Driver/Src/stm32l4xx_hal_gpio.c **** /** @addtogroup STM32L4xx_HAL_Driver
 109:Drivers/STM32L4xx_HAL_Driver/Src/stm32l4xx_hal_gpio.c ****   * @{
 110:Drivers/STM32L4xx_HAL_Driver/Src/stm32l4xx_hal_gpio.c ****   */
 111:Drivers/STM32L4xx_HAL_Driver/Src/stm32l4xx_hal_gpio.c **** 
 112:Drivers/STM32L4xx_HAL_Driver/Src/stm32l4xx_hal_gpio.c **** /** @defgroup GPIO GPIO
 113:Drivers/STM32L4xx_HAL_Driver/Src/stm32l4xx_hal_gpio.c ****   * @brief GPIO HAL module driver
 114:Drivers/STM32L4xx_HAL_Driver/Src/stm32l4xx_hal_gpio.c ****   * @{
 115:Drivers/STM32L4xx_HAL_Driver/Src/stm32l4xx_hal_gpio.c ****   */
 116:Drivers/STM32L4xx_HAL_Driver/Src/stm32l4xx_hal_gpio.c **** /** MISRA C:2012 deviation rule has been granted for following rules:
 117:Drivers/STM32L4xx_HAL_Driver/Src/stm32l4xx_hal_gpio.c ****   * Rule-12.2 - Medium: RHS argument is in interval [0,INF] which is out of
 118:Drivers/STM32L4xx_HAL_Driver/Src/stm32l4xx_hal_gpio.c ****   * range of the shift operator in following API :
 119:Drivers/STM32L4xx_HAL_Driver/Src/stm32l4xx_hal_gpio.c ****   * HAL_GPIO_Init
 120:Drivers/STM32L4xx_HAL_Driver/Src/stm32l4xx_hal_gpio.c ****   * HAL_GPIO_DeInit
 121:Drivers/STM32L4xx_HAL_Driver/Src/stm32l4xx_hal_gpio.c ****   */
 122:Drivers/STM32L4xx_HAL_Driver/Src/stm32l4xx_hal_gpio.c **** 
 123:Drivers/STM32L4xx_HAL_Driver/Src/stm32l4xx_hal_gpio.c **** #ifdef HAL_GPIO_MODULE_ENABLED
 124:Drivers/STM32L4xx_HAL_Driver/Src/stm32l4xx_hal_gpio.c **** 
 125:Drivers/STM32L4xx_HAL_Driver/Src/stm32l4xx_hal_gpio.c **** /* Private typedef -----------------------------------------------------------*/
 126:Drivers/STM32L4xx_HAL_Driver/Src/stm32l4xx_hal_gpio.c **** /* Private defines -----------------------------------------------------------*/
 127:Drivers/STM32L4xx_HAL_Driver/Src/stm32l4xx_hal_gpio.c **** /** @addtogroup GPIO_Private_Defines GPIO Private Defines
 128:Drivers/STM32L4xx_HAL_Driver/Src/stm32l4xx_hal_gpio.c ****   * @{
 129:Drivers/STM32L4xx_HAL_Driver/Src/stm32l4xx_hal_gpio.c ****   */
 130:Drivers/STM32L4xx_HAL_Driver/Src/stm32l4xx_hal_gpio.c **** #define GPIO_NUMBER           (16u)
 131:Drivers/STM32L4xx_HAL_Driver/Src/stm32l4xx_hal_gpio.c **** /**
 132:Drivers/STM32L4xx_HAL_Driver/Src/stm32l4xx_hal_gpio.c ****   * @}
 133:Drivers/STM32L4xx_HAL_Driver/Src/stm32l4xx_hal_gpio.c ****   */
 134:Drivers/STM32L4xx_HAL_Driver/Src/stm32l4xx_hal_gpio.c **** 
 135:Drivers/STM32L4xx_HAL_Driver/Src/stm32l4xx_hal_gpio.c **** /* Private macros ------------------------------------------------------------*/
 136:Drivers/STM32L4xx_HAL_Driver/Src/stm32l4xx_hal_gpio.c **** /* Private variables ---------------------------------------------------------*/
 137:Drivers/STM32L4xx_HAL_Driver/Src/stm32l4xx_hal_gpio.c **** /* Private function prototypes -----------------------------------------------*/
 138:Drivers/STM32L4xx_HAL_Driver/Src/stm32l4xx_hal_gpio.c **** /* Exported functions --------------------------------------------------------*/
 139:Drivers/STM32L4xx_HAL_Driver/Src/stm32l4xx_hal_gpio.c **** 
 140:Drivers/STM32L4xx_HAL_Driver/Src/stm32l4xx_hal_gpio.c **** /** @defgroup GPIO_Exported_Functions GPIO Exported Functions
 141:Drivers/STM32L4xx_HAL_Driver/Src/stm32l4xx_hal_gpio.c ****   * @{
 142:Drivers/STM32L4xx_HAL_Driver/Src/stm32l4xx_hal_gpio.c ****   */
 143:Drivers/STM32L4xx_HAL_Driver/Src/stm32l4xx_hal_gpio.c **** 
ARM GAS  /tmp/cctl12IJ.s 			page 4


 144:Drivers/STM32L4xx_HAL_Driver/Src/stm32l4xx_hal_gpio.c **** /** @defgroup GPIO_Exported_Functions_Group1 Initialization/de-initialization functions
 145:Drivers/STM32L4xx_HAL_Driver/Src/stm32l4xx_hal_gpio.c ****  *  @brief    Initialization and Configuration functions
 146:Drivers/STM32L4xx_HAL_Driver/Src/stm32l4xx_hal_gpio.c ****  *
 147:Drivers/STM32L4xx_HAL_Driver/Src/stm32l4xx_hal_gpio.c **** @verbatim
 148:Drivers/STM32L4xx_HAL_Driver/Src/stm32l4xx_hal_gpio.c ****  ===============================================================================
 149:Drivers/STM32L4xx_HAL_Driver/Src/stm32l4xx_hal_gpio.c ****               ##### Initialization and de-initialization functions #####
 150:Drivers/STM32L4xx_HAL_Driver/Src/stm32l4xx_hal_gpio.c ****  ===============================================================================
 151:Drivers/STM32L4xx_HAL_Driver/Src/stm32l4xx_hal_gpio.c **** 
 152:Drivers/STM32L4xx_HAL_Driver/Src/stm32l4xx_hal_gpio.c **** @endverbatim
 153:Drivers/STM32L4xx_HAL_Driver/Src/stm32l4xx_hal_gpio.c ****   * @{
 154:Drivers/STM32L4xx_HAL_Driver/Src/stm32l4xx_hal_gpio.c ****   */
 155:Drivers/STM32L4xx_HAL_Driver/Src/stm32l4xx_hal_gpio.c **** 
 156:Drivers/STM32L4xx_HAL_Driver/Src/stm32l4xx_hal_gpio.c **** /**
 157:Drivers/STM32L4xx_HAL_Driver/Src/stm32l4xx_hal_gpio.c ****   * @brief  Initialize the GPIOx peripheral according to the specified parameters in the GPIO_Init.
 158:Drivers/STM32L4xx_HAL_Driver/Src/stm32l4xx_hal_gpio.c ****   * @param  GPIOx where x can be (A..H) to select the GPIO peripheral for STM32L4 family
 159:Drivers/STM32L4xx_HAL_Driver/Src/stm32l4xx_hal_gpio.c ****   * @param  GPIO_Init pointer to a GPIO_InitTypeDef structure that contains
 160:Drivers/STM32L4xx_HAL_Driver/Src/stm32l4xx_hal_gpio.c ****   *         the configuration information for the specified GPIO peripheral.
 161:Drivers/STM32L4xx_HAL_Driver/Src/stm32l4xx_hal_gpio.c ****   * @retval None
 162:Drivers/STM32L4xx_HAL_Driver/Src/stm32l4xx_hal_gpio.c ****   */
 163:Drivers/STM32L4xx_HAL_Driver/Src/stm32l4xx_hal_gpio.c **** void HAL_GPIO_Init(GPIO_TypeDef  *GPIOx, GPIO_InitTypeDef *GPIO_Init)
 164:Drivers/STM32L4xx_HAL_Driver/Src/stm32l4xx_hal_gpio.c **** {
  30              		.loc 1 164 1 view -0
  31              		.cfi_startproc
  32              		@ args = 0, pretend = 0, frame = 8
  33              		@ frame_needed = 0, uses_anonymous_args = 0
  34              		.loc 1 164 1 is_stmt 0 view .LVU1
  35 0000 F0B5     		push	{r4, r5, r6, r7, lr}
  36              	.LCFI0:
  37              		.cfi_def_cfa_offset 20
  38              		.cfi_offset 4, -20
  39              		.cfi_offset 5, -16
  40              		.cfi_offset 6, -12
  41              		.cfi_offset 7, -8
  42              		.cfi_offset 14, -4
  43 0002 83B0     		sub	sp, sp, #12
  44              	.LCFI1:
  45              		.cfi_def_cfa_offset 32
 165:Drivers/STM32L4xx_HAL_Driver/Src/stm32l4xx_hal_gpio.c ****   uint32_t position = 0x00u;
  46              		.loc 1 165 3 is_stmt 1 view .LVU2
  47              	.LVL1:
 166:Drivers/STM32L4xx_HAL_Driver/Src/stm32l4xx_hal_gpio.c ****   uint32_t iocurrent;
  48              		.loc 1 166 3 view .LVU3
 167:Drivers/STM32L4xx_HAL_Driver/Src/stm32l4xx_hal_gpio.c ****   uint32_t temp;
  49              		.loc 1 167 3 view .LVU4
 168:Drivers/STM32L4xx_HAL_Driver/Src/stm32l4xx_hal_gpio.c **** 
 169:Drivers/STM32L4xx_HAL_Driver/Src/stm32l4xx_hal_gpio.c ****   /* Check the parameters */
 170:Drivers/STM32L4xx_HAL_Driver/Src/stm32l4xx_hal_gpio.c ****   assert_param(IS_GPIO_ALL_INSTANCE(GPIOx));
  50              		.loc 1 170 3 view .LVU5
 171:Drivers/STM32L4xx_HAL_Driver/Src/stm32l4xx_hal_gpio.c ****   assert_param(IS_GPIO_PIN(GPIO_Init->Pin));
  51              		.loc 1 171 3 view .LVU6
 172:Drivers/STM32L4xx_HAL_Driver/Src/stm32l4xx_hal_gpio.c ****   assert_param(IS_GPIO_MODE(GPIO_Init->Mode));
  52              		.loc 1 172 3 view .LVU7
 173:Drivers/STM32L4xx_HAL_Driver/Src/stm32l4xx_hal_gpio.c **** 
 174:Drivers/STM32L4xx_HAL_Driver/Src/stm32l4xx_hal_gpio.c ****   /* Configure the port pins */
 175:Drivers/STM32L4xx_HAL_Driver/Src/stm32l4xx_hal_gpio.c ****   while (((GPIO_Init->Pin) >> position) != 0x00u)
  53              		.loc 1 175 3 view .LVU8
 165:Drivers/STM32L4xx_HAL_Driver/Src/stm32l4xx_hal_gpio.c ****   uint32_t iocurrent;
ARM GAS  /tmp/cctl12IJ.s 			page 5


  54              		.loc 1 165 12 is_stmt 0 view .LVU9
  55 0004 0023     		movs	r3, #0
  56              		.loc 1 175 9 view .LVU10
  57 0006 6BE0     		b	.L2
  58              	.LVL2:
  59              	.L23:
 176:Drivers/STM32L4xx_HAL_Driver/Src/stm32l4xx_hal_gpio.c ****   {
 177:Drivers/STM32L4xx_HAL_Driver/Src/stm32l4xx_hal_gpio.c ****     /* Get current io position */
 178:Drivers/STM32L4xx_HAL_Driver/Src/stm32l4xx_hal_gpio.c ****     iocurrent = (GPIO_Init->Pin) & (1uL << position);
 179:Drivers/STM32L4xx_HAL_Driver/Src/stm32l4xx_hal_gpio.c **** 
 180:Drivers/STM32L4xx_HAL_Driver/Src/stm32l4xx_hal_gpio.c ****     if (iocurrent != 0x00u)
 181:Drivers/STM32L4xx_HAL_Driver/Src/stm32l4xx_hal_gpio.c ****     {
 182:Drivers/STM32L4xx_HAL_Driver/Src/stm32l4xx_hal_gpio.c ****       /*--------------------- GPIO Mode Configuration ------------------------*/
 183:Drivers/STM32L4xx_HAL_Driver/Src/stm32l4xx_hal_gpio.c ****       /* In case of Output or Alternate function mode selection */
 184:Drivers/STM32L4xx_HAL_Driver/Src/stm32l4xx_hal_gpio.c ****       if (((GPIO_Init->Mode & GPIO_MODE) == MODE_OUTPUT) || ((GPIO_Init->Mode & GPIO_MODE) == MODE_
 185:Drivers/STM32L4xx_HAL_Driver/Src/stm32l4xx_hal_gpio.c ****       {
 186:Drivers/STM32L4xx_HAL_Driver/Src/stm32l4xx_hal_gpio.c ****         /* Check the Speed parameter */
 187:Drivers/STM32L4xx_HAL_Driver/Src/stm32l4xx_hal_gpio.c ****         assert_param(IS_GPIO_SPEED(GPIO_Init->Speed));
  60              		.loc 1 187 9 is_stmt 1 view .LVU11
 188:Drivers/STM32L4xx_HAL_Driver/Src/stm32l4xx_hal_gpio.c **** 
 189:Drivers/STM32L4xx_HAL_Driver/Src/stm32l4xx_hal_gpio.c ****         /* Configure the IO Speed */
 190:Drivers/STM32L4xx_HAL_Driver/Src/stm32l4xx_hal_gpio.c ****         temp = GPIOx->OSPEEDR;
  61              		.loc 1 190 9 view .LVU12
  62              		.loc 1 190 14 is_stmt 0 view .LVU13
  63 0008 8568     		ldr	r5, [r0, #8]
  64              	.LVL3:
 191:Drivers/STM32L4xx_HAL_Driver/Src/stm32l4xx_hal_gpio.c ****         temp &= ~(GPIO_OSPEEDR_OSPEED0 << (position * 2u));
  65              		.loc 1 191 9 is_stmt 1 view .LVU14
  66              		.loc 1 191 53 is_stmt 0 view .LVU15
  67 000a 5E00     		lsls	r6, r3, #1
  68              		.loc 1 191 40 view .LVU16
  69 000c 0324     		movs	r4, #3
  70 000e B440     		lsls	r4, r4, r6
  71              		.loc 1 191 14 view .LVU17
  72 0010 25EA0405 		bic	r5, r5, r4
  73              	.LVL4:
 192:Drivers/STM32L4xx_HAL_Driver/Src/stm32l4xx_hal_gpio.c ****         temp |= (GPIO_Init->Speed << (position * 2u));
  74              		.loc 1 192 9 is_stmt 1 view .LVU18
  75              		.loc 1 192 27 is_stmt 0 view .LVU19
  76 0014 CC68     		ldr	r4, [r1, #12]
  77              		.loc 1 192 35 view .LVU20
  78 0016 B440     		lsls	r4, r4, r6
  79              		.loc 1 192 14 view .LVU21
  80 0018 2C43     		orrs	r4, r4, r5
  81              	.LVL5:
 193:Drivers/STM32L4xx_HAL_Driver/Src/stm32l4xx_hal_gpio.c ****         GPIOx->OSPEEDR = temp;
  82              		.loc 1 193 9 is_stmt 1 view .LVU22
  83              		.loc 1 193 24 is_stmt 0 view .LVU23
  84 001a 8460     		str	r4, [r0, #8]
 194:Drivers/STM32L4xx_HAL_Driver/Src/stm32l4xx_hal_gpio.c **** 
 195:Drivers/STM32L4xx_HAL_Driver/Src/stm32l4xx_hal_gpio.c ****         /* Configure the IO Output Type */
 196:Drivers/STM32L4xx_HAL_Driver/Src/stm32l4xx_hal_gpio.c ****         temp = GPIOx->OTYPER;
  85              		.loc 1 196 9 is_stmt 1 view .LVU24
  86              		.loc 1 196 14 is_stmt 0 view .LVU25
  87 001c 4568     		ldr	r5, [r0, #4]
  88              	.LVL6:
 197:Drivers/STM32L4xx_HAL_Driver/Src/stm32l4xx_hal_gpio.c ****         temp &= ~(GPIO_OTYPER_OT0 << position) ;
ARM GAS  /tmp/cctl12IJ.s 			page 6


  89              		.loc 1 197 9 is_stmt 1 view .LVU26
  90              		.loc 1 197 14 is_stmt 0 view .LVU27
  91 001e 25EA0C05 		bic	r5, r5, ip
  92              	.LVL7:
 198:Drivers/STM32L4xx_HAL_Driver/Src/stm32l4xx_hal_gpio.c ****         temp |= (((GPIO_Init->Mode & OUTPUT_TYPE) >> OUTPUT_TYPE_Pos) << position);
  93              		.loc 1 198 9 is_stmt 1 view .LVU28
  94              		.loc 1 198 29 is_stmt 0 view .LVU29
  95 0022 4C68     		ldr	r4, [r1, #4]
  96              		.loc 1 198 51 view .LVU30
  97 0024 C4F30014 		ubfx	r4, r4, #4, #1
  98              		.loc 1 198 71 view .LVU31
  99 0028 9C40     		lsls	r4, r4, r3
 100              		.loc 1 198 14 view .LVU32
 101 002a 2C43     		orrs	r4, r4, r5
 102              	.LVL8:
 199:Drivers/STM32L4xx_HAL_Driver/Src/stm32l4xx_hal_gpio.c ****         GPIOx->OTYPER = temp;
 103              		.loc 1 199 9 is_stmt 1 view .LVU33
 104              		.loc 1 199 23 is_stmt 0 view .LVU34
 105 002c 4460     		str	r4, [r0, #4]
 106 002e 69E0     		b	.L4
 107              	.LVL9:
 108              	.L24:
 200:Drivers/STM32L4xx_HAL_Driver/Src/stm32l4xx_hal_gpio.c ****       }
 201:Drivers/STM32L4xx_HAL_Driver/Src/stm32l4xx_hal_gpio.c **** 
 202:Drivers/STM32L4xx_HAL_Driver/Src/stm32l4xx_hal_gpio.c **** #if defined(STM32L471xx) || defined(STM32L475xx) || defined(STM32L476xx) || defined(STM32L485xx) ||
 203:Drivers/STM32L4xx_HAL_Driver/Src/stm32l4xx_hal_gpio.c **** 
 204:Drivers/STM32L4xx_HAL_Driver/Src/stm32l4xx_hal_gpio.c ****       /* In case of Analog mode, check if ADC control mode is selected */
 205:Drivers/STM32L4xx_HAL_Driver/Src/stm32l4xx_hal_gpio.c ****       if((GPIO_Init->Mode & GPIO_MODE_ANALOG) == GPIO_MODE_ANALOG)
 206:Drivers/STM32L4xx_HAL_Driver/Src/stm32l4xx_hal_gpio.c ****       {
 207:Drivers/STM32L4xx_HAL_Driver/Src/stm32l4xx_hal_gpio.c ****         /* Configure the IO Output Type */
 208:Drivers/STM32L4xx_HAL_Driver/Src/stm32l4xx_hal_gpio.c ****         temp = GPIOx->ASCR;
 109              		.loc 1 208 9 is_stmt 1 view .LVU35
 110              		.loc 1 208 14 is_stmt 0 view .LVU36
 111 0030 C56A     		ldr	r5, [r0, #44]
 112              	.LVL10:
 209:Drivers/STM32L4xx_HAL_Driver/Src/stm32l4xx_hal_gpio.c ****         temp &= ~(GPIO_ASCR_ASC0 << position) ;
 113              		.loc 1 209 9 is_stmt 1 view .LVU37
 114              		.loc 1 209 14 is_stmt 0 view .LVU38
 115 0032 25EA0C0C 		bic	ip, r5, ip
 116              	.LVL11:
 210:Drivers/STM32L4xx_HAL_Driver/Src/stm32l4xx_hal_gpio.c ****         temp |= (((GPIO_Init->Mode & GPIO_MODE_ANALOG_ADC_CONTROL) >> 3) << position);
 117              		.loc 1 210 9 is_stmt 1 view .LVU39
 118              		.loc 1 210 68 is_stmt 0 view .LVU40
 119 0036 C4F3C004 		ubfx	r4, r4, #3, #1
 120              		.loc 1 210 74 view .LVU41
 121 003a 9C40     		lsls	r4, r4, r3
 122              		.loc 1 210 14 view .LVU42
 123 003c 44EA0C04 		orr	r4, r4, ip
 124              	.LVL12:
 211:Drivers/STM32L4xx_HAL_Driver/Src/stm32l4xx_hal_gpio.c ****         GPIOx->ASCR = temp;
 125              		.loc 1 211 9 is_stmt 1 view .LVU43
 126              		.loc 1 211 21 is_stmt 0 view .LVU44
 127 0040 C462     		str	r4, [r0, #44]
 128 0042 65E0     		b	.L5
 129              	.LVL13:
 130              	.L25:
 212:Drivers/STM32L4xx_HAL_Driver/Src/stm32l4xx_hal_gpio.c ****       }
ARM GAS  /tmp/cctl12IJ.s 			page 7


 213:Drivers/STM32L4xx_HAL_Driver/Src/stm32l4xx_hal_gpio.c **** 
 214:Drivers/STM32L4xx_HAL_Driver/Src/stm32l4xx_hal_gpio.c **** #endif /* STM32L471xx || STM32L475xx || STM32L476xx || STM32L485xx || STM32L486xx */
 215:Drivers/STM32L4xx_HAL_Driver/Src/stm32l4xx_hal_gpio.c **** 
 216:Drivers/STM32L4xx_HAL_Driver/Src/stm32l4xx_hal_gpio.c ****       /* Activate the Pull-up or Pull down resistor for the current IO */
 217:Drivers/STM32L4xx_HAL_Driver/Src/stm32l4xx_hal_gpio.c ****       if ((GPIO_Init->Mode & GPIO_MODE) != MODE_ANALOG)
 218:Drivers/STM32L4xx_HAL_Driver/Src/stm32l4xx_hal_gpio.c ****       {
 219:Drivers/STM32L4xx_HAL_Driver/Src/stm32l4xx_hal_gpio.c ****         /* Check the Pull parameter */
 220:Drivers/STM32L4xx_HAL_Driver/Src/stm32l4xx_hal_gpio.c ****         assert_param(IS_GPIO_PULL(GPIO_Init->Pull));
 221:Drivers/STM32L4xx_HAL_Driver/Src/stm32l4xx_hal_gpio.c **** 
 222:Drivers/STM32L4xx_HAL_Driver/Src/stm32l4xx_hal_gpio.c ****         temp = GPIOx->PUPDR;
 223:Drivers/STM32L4xx_HAL_Driver/Src/stm32l4xx_hal_gpio.c ****         temp &= ~(GPIO_PUPDR_PUPD0 << (position * 2U));
 224:Drivers/STM32L4xx_HAL_Driver/Src/stm32l4xx_hal_gpio.c ****         temp |= ((GPIO_Init->Pull) << (position * 2U));
 225:Drivers/STM32L4xx_HAL_Driver/Src/stm32l4xx_hal_gpio.c ****         GPIOx->PUPDR = temp;
 226:Drivers/STM32L4xx_HAL_Driver/Src/stm32l4xx_hal_gpio.c ****       }
 227:Drivers/STM32L4xx_HAL_Driver/Src/stm32l4xx_hal_gpio.c **** 
 228:Drivers/STM32L4xx_HAL_Driver/Src/stm32l4xx_hal_gpio.c ****       /* In case of Alternate function mode selection */
 229:Drivers/STM32L4xx_HAL_Driver/Src/stm32l4xx_hal_gpio.c ****       if ((GPIO_Init->Mode & GPIO_MODE) == MODE_AF)
 230:Drivers/STM32L4xx_HAL_Driver/Src/stm32l4xx_hal_gpio.c ****       {
 231:Drivers/STM32L4xx_HAL_Driver/Src/stm32l4xx_hal_gpio.c ****         /* Check the Alternate function parameters */
 232:Drivers/STM32L4xx_HAL_Driver/Src/stm32l4xx_hal_gpio.c ****         assert_param(IS_GPIO_AF_INSTANCE(GPIOx));
 131              		.loc 1 232 9 is_stmt 1 view .LVU45
 233:Drivers/STM32L4xx_HAL_Driver/Src/stm32l4xx_hal_gpio.c ****         assert_param(IS_GPIO_AF(GPIO_Init->Alternate));
 132              		.loc 1 233 9 view .LVU46
 234:Drivers/STM32L4xx_HAL_Driver/Src/stm32l4xx_hal_gpio.c **** 
 235:Drivers/STM32L4xx_HAL_Driver/Src/stm32l4xx_hal_gpio.c ****         /* Configure Alternate function mapped with the current IO */
 236:Drivers/STM32L4xx_HAL_Driver/Src/stm32l4xx_hal_gpio.c ****         temp = GPIOx->AFR[position >> 3u];
 133              		.loc 1 236 9 view .LVU47
 134              		.loc 1 236 36 is_stmt 0 view .LVU48
 135 0044 DD08     		lsrs	r5, r3, #3
 136              		.loc 1 236 14 view .LVU49
 137 0046 0835     		adds	r5, r5, #8
 138 0048 50F82560 		ldr	r6, [r0, r5, lsl #2]
 139              	.LVL14:
 237:Drivers/STM32L4xx_HAL_Driver/Src/stm32l4xx_hal_gpio.c ****         temp &= ~(0xFu << ((position & 0x07u) * 4u));
 140              		.loc 1 237 9 is_stmt 1 view .LVU50
 141              		.loc 1 237 38 is_stmt 0 view .LVU51
 142 004c 03F00704 		and	r4, r3, #7
 143              		.loc 1 237 47 view .LVU52
 144 0050 4FEA840C 		lsl	ip, r4, #2
 145              		.loc 1 237 24 view .LVU53
 146 0054 0F24     		movs	r4, #15
 147 0056 04FA0CF4 		lsl	r4, r4, ip
 148              		.loc 1 237 14 view .LVU54
 149 005a 26EA040E 		bic	lr, r6, r4
 150              	.LVL15:
 238:Drivers/STM32L4xx_HAL_Driver/Src/stm32l4xx_hal_gpio.c ****         temp |= ((GPIO_Init->Alternate) << ((position & 0x07u) * 4u));
 151              		.loc 1 238 9 is_stmt 1 view .LVU55
 152              		.loc 1 238 28 is_stmt 0 view .LVU56
 153 005e 0C69     		ldr	r4, [r1, #16]
 154              		.loc 1 238 41 view .LVU57
 155 0060 04FA0CF4 		lsl	r4, r4, ip
 156              		.loc 1 238 14 view .LVU58
 157 0064 44EA0E04 		orr	r4, r4, lr
 158              	.LVL16:
 239:Drivers/STM32L4xx_HAL_Driver/Src/stm32l4xx_hal_gpio.c ****         GPIOx->AFR[position >> 3u] = temp;
 159              		.loc 1 239 9 is_stmt 1 view .LVU59
 160              		.loc 1 239 36 is_stmt 0 view .LVU60
ARM GAS  /tmp/cctl12IJ.s 			page 8


 161 0068 40F82540 		str	r4, [r0, r5, lsl #2]
 162 006c 67E0     		b	.L7
 163              	.LVL17:
 164              	.L26:
 240:Drivers/STM32L4xx_HAL_Driver/Src/stm32l4xx_hal_gpio.c ****       }
 241:Drivers/STM32L4xx_HAL_Driver/Src/stm32l4xx_hal_gpio.c **** 
 242:Drivers/STM32L4xx_HAL_Driver/Src/stm32l4xx_hal_gpio.c ****       /* Configure IO Direction mode (Input, Output, Alternate or Analog) */
 243:Drivers/STM32L4xx_HAL_Driver/Src/stm32l4xx_hal_gpio.c ****       temp = GPIOx->MODER;
 244:Drivers/STM32L4xx_HAL_Driver/Src/stm32l4xx_hal_gpio.c ****       temp &= ~(GPIO_MODER_MODE0 << (position * 2u));
 245:Drivers/STM32L4xx_HAL_Driver/Src/stm32l4xx_hal_gpio.c ****       temp |= ((GPIO_Init->Mode & GPIO_MODE) << (position * 2u));
 246:Drivers/STM32L4xx_HAL_Driver/Src/stm32l4xx_hal_gpio.c ****       GPIOx->MODER = temp;
 247:Drivers/STM32L4xx_HAL_Driver/Src/stm32l4xx_hal_gpio.c **** 
 248:Drivers/STM32L4xx_HAL_Driver/Src/stm32l4xx_hal_gpio.c ****       /*--------------------- EXTI Mode Configuration ------------------------*/
 249:Drivers/STM32L4xx_HAL_Driver/Src/stm32l4xx_hal_gpio.c ****       /* Configure the External Interrupt or event for the current IO */
 250:Drivers/STM32L4xx_HAL_Driver/Src/stm32l4xx_hal_gpio.c ****       if ((GPIO_Init->Mode & EXTI_MODE) != 0x00u)
 251:Drivers/STM32L4xx_HAL_Driver/Src/stm32l4xx_hal_gpio.c ****       {
 252:Drivers/STM32L4xx_HAL_Driver/Src/stm32l4xx_hal_gpio.c ****         /* Enable SYSCFG Clock */
 253:Drivers/STM32L4xx_HAL_Driver/Src/stm32l4xx_hal_gpio.c ****         __HAL_RCC_SYSCFG_CLK_ENABLE();
 254:Drivers/STM32L4xx_HAL_Driver/Src/stm32l4xx_hal_gpio.c **** 
 255:Drivers/STM32L4xx_HAL_Driver/Src/stm32l4xx_hal_gpio.c ****         temp = SYSCFG->EXTICR[position >> 2u];
 256:Drivers/STM32L4xx_HAL_Driver/Src/stm32l4xx_hal_gpio.c ****         temp &= ~(0x0FuL << (4u * (position & 0x03u)));
 257:Drivers/STM32L4xx_HAL_Driver/Src/stm32l4xx_hal_gpio.c ****         temp |= (GPIO_GET_INDEX(GPIOx) << (4u * (position & 0x03u)));
 165              		.loc 1 257 18 view .LVU61
 166 006e 0624     		movs	r4, #6
 167 0070 00E0     		b	.L8
 168              	.L14:
 169 0072 0024     		movs	r4, #0
 170              	.L8:
 171              		.loc 1 257 40 discriminator 28 view .LVU62
 172 0074 04FA0EF4 		lsl	r4, r4, lr
 173              		.loc 1 257 14 discriminator 28 view .LVU63
 174 0078 2C43     		orrs	r4, r4, r5
 175              	.LVL18:
 258:Drivers/STM32L4xx_HAL_Driver/Src/stm32l4xx_hal_gpio.c ****         SYSCFG->EXTICR[position >> 2u] = temp;
 176              		.loc 1 258 9 is_stmt 1 discriminator 28 view .LVU64
 177              		.loc 1 258 40 is_stmt 0 discriminator 28 view .LVU65
 178 007a 0CF1020C 		add	ip, ip, #2
 179 007e 5C4D     		ldr	r5, .L27
 180 0080 45F82C40 		str	r4, [r5, ip, lsl #2]
 259:Drivers/STM32L4xx_HAL_Driver/Src/stm32l4xx_hal_gpio.c **** 
 260:Drivers/STM32L4xx_HAL_Driver/Src/stm32l4xx_hal_gpio.c ****         /* Clear Rising Falling edge configuration */
 261:Drivers/STM32L4xx_HAL_Driver/Src/stm32l4xx_hal_gpio.c ****         temp = EXTI->RTSR1;
 181              		.loc 1 261 9 is_stmt 1 discriminator 28 view .LVU66
 182              		.loc 1 261 14 is_stmt 0 discriminator 28 view .LVU67
 183 0084 5B4C     		ldr	r4, .L27+4
 184              	.LVL19:
 185              		.loc 1 261 14 discriminator 28 view .LVU68
 186 0086 A568     		ldr	r5, [r4, #8]
 187              	.LVL20:
 262:Drivers/STM32L4xx_HAL_Driver/Src/stm32l4xx_hal_gpio.c ****         temp &= ~(iocurrent);
 188              		.loc 1 262 9 is_stmt 1 discriminator 28 view .LVU69
 189              		.loc 1 262 17 is_stmt 0 discriminator 28 view .LVU70
 190 0088 D443     		mvns	r4, r2
 191              		.loc 1 262 14 discriminator 28 view .LVU71
 192 008a 25EA0206 		bic	r6, r5, r2
 193              	.LVL21:
 263:Drivers/STM32L4xx_HAL_Driver/Src/stm32l4xx_hal_gpio.c ****         if ((GPIO_Init->Mode & TRIGGER_RISING) != 0x00u)
ARM GAS  /tmp/cctl12IJ.s 			page 9


 194              		.loc 1 263 9 is_stmt 1 discriminator 28 view .LVU72
 195              		.loc 1 263 12 is_stmt 0 discriminator 28 view .LVU73
 196 008e 4F68     		ldr	r7, [r1, #4]
 197 0090 17F4801F 		tst	r7, #1048576
 198 0094 01D0     		beq	.L9
 264:Drivers/STM32L4xx_HAL_Driver/Src/stm32l4xx_hal_gpio.c ****         {
 265:Drivers/STM32L4xx_HAL_Driver/Src/stm32l4xx_hal_gpio.c ****           temp |= iocurrent;
 199              		.loc 1 265 11 is_stmt 1 view .LVU74
 200              		.loc 1 265 16 is_stmt 0 view .LVU75
 201 0096 42EA0506 		orr	r6, r2, r5
 202              	.LVL22:
 203              	.L9:
 266:Drivers/STM32L4xx_HAL_Driver/Src/stm32l4xx_hal_gpio.c ****         }
 267:Drivers/STM32L4xx_HAL_Driver/Src/stm32l4xx_hal_gpio.c ****         EXTI->RTSR1 = temp;
 204              		.loc 1 267 9 is_stmt 1 view .LVU76
 205              		.loc 1 267 21 is_stmt 0 view .LVU77
 206 009a 564D     		ldr	r5, .L27+4
 207 009c AE60     		str	r6, [r5, #8]
 268:Drivers/STM32L4xx_HAL_Driver/Src/stm32l4xx_hal_gpio.c **** 
 269:Drivers/STM32L4xx_HAL_Driver/Src/stm32l4xx_hal_gpio.c ****         temp = EXTI->FTSR1;
 208              		.loc 1 269 9 is_stmt 1 view .LVU78
 209              		.loc 1 269 14 is_stmt 0 view .LVU79
 210 009e ED68     		ldr	r5, [r5, #12]
 211              	.LVL23:
 270:Drivers/STM32L4xx_HAL_Driver/Src/stm32l4xx_hal_gpio.c ****         temp &= ~(iocurrent);
 212              		.loc 1 270 9 is_stmt 1 view .LVU80
 213              		.loc 1 270 14 is_stmt 0 view .LVU81
 214 00a0 04EA0506 		and	r6, r4, r5
 215              	.LVL24:
 271:Drivers/STM32L4xx_HAL_Driver/Src/stm32l4xx_hal_gpio.c ****         if ((GPIO_Init->Mode & TRIGGER_FALLING) != 0x00u)
 216              		.loc 1 271 9 is_stmt 1 view .LVU82
 217              		.loc 1 271 12 is_stmt 0 view .LVU83
 218 00a4 4F68     		ldr	r7, [r1, #4]
 219 00a6 17F4001F 		tst	r7, #2097152
 220 00aa 01D0     		beq	.L10
 272:Drivers/STM32L4xx_HAL_Driver/Src/stm32l4xx_hal_gpio.c ****         {
 273:Drivers/STM32L4xx_HAL_Driver/Src/stm32l4xx_hal_gpio.c ****           temp |= iocurrent;
 221              		.loc 1 273 11 is_stmt 1 view .LVU84
 222              		.loc 1 273 16 is_stmt 0 view .LVU85
 223 00ac 42EA0506 		orr	r6, r2, r5
 224              	.LVL25:
 225              	.L10:
 274:Drivers/STM32L4xx_HAL_Driver/Src/stm32l4xx_hal_gpio.c ****         }
 275:Drivers/STM32L4xx_HAL_Driver/Src/stm32l4xx_hal_gpio.c ****         EXTI->FTSR1 = temp;
 226              		.loc 1 275 9 is_stmt 1 view .LVU86
 227              		.loc 1 275 21 is_stmt 0 view .LVU87
 228 00b0 504D     		ldr	r5, .L27+4
 229 00b2 EE60     		str	r6, [r5, #12]
 276:Drivers/STM32L4xx_HAL_Driver/Src/stm32l4xx_hal_gpio.c **** 
 277:Drivers/STM32L4xx_HAL_Driver/Src/stm32l4xx_hal_gpio.c ****         /* Clear EXTI line configuration */
 278:Drivers/STM32L4xx_HAL_Driver/Src/stm32l4xx_hal_gpio.c ****         temp = EXTI->EMR1;
 230              		.loc 1 278 9 is_stmt 1 view .LVU88
 231              		.loc 1 278 14 is_stmt 0 view .LVU89
 232 00b4 6D68     		ldr	r5, [r5, #4]
 233              	.LVL26:
 279:Drivers/STM32L4xx_HAL_Driver/Src/stm32l4xx_hal_gpio.c ****         temp &= ~(iocurrent);
 234              		.loc 1 279 9 is_stmt 1 view .LVU90
ARM GAS  /tmp/cctl12IJ.s 			page 10


 235              		.loc 1 279 14 is_stmt 0 view .LVU91
 236 00b6 04EA0506 		and	r6, r4, r5
 237              	.LVL27:
 280:Drivers/STM32L4xx_HAL_Driver/Src/stm32l4xx_hal_gpio.c ****         if ((GPIO_Init->Mode & EXTI_EVT) != 0x00u)
 238              		.loc 1 280 9 is_stmt 1 view .LVU92
 239              		.loc 1 280 12 is_stmt 0 view .LVU93
 240 00ba 4F68     		ldr	r7, [r1, #4]
 241 00bc 17F4003F 		tst	r7, #131072
 242 00c0 01D0     		beq	.L11
 281:Drivers/STM32L4xx_HAL_Driver/Src/stm32l4xx_hal_gpio.c ****         {
 282:Drivers/STM32L4xx_HAL_Driver/Src/stm32l4xx_hal_gpio.c ****           temp |= iocurrent;
 243              		.loc 1 282 11 is_stmt 1 view .LVU94
 244              		.loc 1 282 16 is_stmt 0 view .LVU95
 245 00c2 42EA0506 		orr	r6, r2, r5
 246              	.LVL28:
 247              	.L11:
 283:Drivers/STM32L4xx_HAL_Driver/Src/stm32l4xx_hal_gpio.c ****         }
 284:Drivers/STM32L4xx_HAL_Driver/Src/stm32l4xx_hal_gpio.c ****         EXTI->EMR1 = temp;
 248              		.loc 1 284 9 is_stmt 1 view .LVU96
 249              		.loc 1 284 20 is_stmt 0 view .LVU97
 250 00c6 4B4D     		ldr	r5, .L27+4
 251 00c8 6E60     		str	r6, [r5, #4]
 285:Drivers/STM32L4xx_HAL_Driver/Src/stm32l4xx_hal_gpio.c **** 
 286:Drivers/STM32L4xx_HAL_Driver/Src/stm32l4xx_hal_gpio.c ****         temp = EXTI->IMR1;
 252              		.loc 1 286 9 is_stmt 1 view .LVU98
 253              		.loc 1 286 14 is_stmt 0 view .LVU99
 254 00ca 2D68     		ldr	r5, [r5]
 255              	.LVL29:
 287:Drivers/STM32L4xx_HAL_Driver/Src/stm32l4xx_hal_gpio.c ****         temp &= ~(iocurrent);
 256              		.loc 1 287 9 is_stmt 1 view .LVU100
 257              		.loc 1 287 14 is_stmt 0 view .LVU101
 258 00cc 2C40     		ands	r4, r4, r5
 259              	.LVL30:
 288:Drivers/STM32L4xx_HAL_Driver/Src/stm32l4xx_hal_gpio.c ****         if ((GPIO_Init->Mode & EXTI_IT) != 0x00u)
 260              		.loc 1 288 9 is_stmt 1 view .LVU102
 261              		.loc 1 288 23 is_stmt 0 view .LVU103
 262 00ce 4E68     		ldr	r6, [r1, #4]
 263              		.loc 1 288 12 view .LVU104
 264 00d0 16F4803F 		tst	r6, #65536
 265 00d4 01D0     		beq	.L12
 289:Drivers/STM32L4xx_HAL_Driver/Src/stm32l4xx_hal_gpio.c ****         {
 290:Drivers/STM32L4xx_HAL_Driver/Src/stm32l4xx_hal_gpio.c ****           temp |= iocurrent;
 266              		.loc 1 290 11 is_stmt 1 view .LVU105
 267              		.loc 1 290 16 is_stmt 0 view .LVU106
 268 00d6 42EA0504 		orr	r4, r2, r5
 269              	.LVL31:
 270              	.L12:
 291:Drivers/STM32L4xx_HAL_Driver/Src/stm32l4xx_hal_gpio.c ****         }
 292:Drivers/STM32L4xx_HAL_Driver/Src/stm32l4xx_hal_gpio.c ****         EXTI->IMR1 = temp;
 271              		.loc 1 292 9 is_stmt 1 view .LVU107
 272              		.loc 1 292 20 is_stmt 0 view .LVU108
 273 00da 464A     		ldr	r2, .L27+4
 274              	.LVL32:
 275              		.loc 1 292 20 view .LVU109
 276 00dc 1460     		str	r4, [r2]
 277              	.LVL33:
 278              	.L3:
ARM GAS  /tmp/cctl12IJ.s 			page 11


 293:Drivers/STM32L4xx_HAL_Driver/Src/stm32l4xx_hal_gpio.c ****       }
 294:Drivers/STM32L4xx_HAL_Driver/Src/stm32l4xx_hal_gpio.c ****     }
 295:Drivers/STM32L4xx_HAL_Driver/Src/stm32l4xx_hal_gpio.c **** 
 296:Drivers/STM32L4xx_HAL_Driver/Src/stm32l4xx_hal_gpio.c ****     position++;
 279              		.loc 1 296 5 is_stmt 1 view .LVU110
 280              		.loc 1 296 13 is_stmt 0 view .LVU111
 281 00de 0133     		adds	r3, r3, #1
 282              	.LVL34:
 283              	.L2:
 175:Drivers/STM32L4xx_HAL_Driver/Src/stm32l4xx_hal_gpio.c ****   {
 284              		.loc 1 175 9 is_stmt 1 view .LVU112
 175:Drivers/STM32L4xx_HAL_Driver/Src/stm32l4xx_hal_gpio.c ****   {
 285              		.loc 1 175 21 is_stmt 0 view .LVU113
 286 00e0 0A68     		ldr	r2, [r1]
 175:Drivers/STM32L4xx_HAL_Driver/Src/stm32l4xx_hal_gpio.c ****   {
 287              		.loc 1 175 9 view .LVU114
 288 00e2 32FA03F4 		lsrs	r4, r2, r3
 289 00e6 00F08180 		beq	.L22
 178:Drivers/STM32L4xx_HAL_Driver/Src/stm32l4xx_hal_gpio.c **** 
 290              		.loc 1 178 5 is_stmt 1 view .LVU115
 178:Drivers/STM32L4xx_HAL_Driver/Src/stm32l4xx_hal_gpio.c **** 
 291              		.loc 1 178 41 is_stmt 0 view .LVU116
 292 00ea 4FF0010C 		mov	ip, #1
 293 00ee 0CFA03FC 		lsl	ip, ip, r3
 294              	.LVL35:
 180:Drivers/STM32L4xx_HAL_Driver/Src/stm32l4xx_hal_gpio.c ****     {
 295              		.loc 1 180 5 is_stmt 1 view .LVU117
 180:Drivers/STM32L4xx_HAL_Driver/Src/stm32l4xx_hal_gpio.c ****     {
 296              		.loc 1 180 8 is_stmt 0 view .LVU118
 297 00f2 1CEA0202 		ands	r2, ip, r2
 298              	.LVL36:
 180:Drivers/STM32L4xx_HAL_Driver/Src/stm32l4xx_hal_gpio.c ****     {
 299              		.loc 1 180 8 view .LVU119
 300 00f6 F2D0     		beq	.L3
 184:Drivers/STM32L4xx_HAL_Driver/Src/stm32l4xx_hal_gpio.c ****       {
 301              		.loc 1 184 7 is_stmt 1 view .LVU120
 184:Drivers/STM32L4xx_HAL_Driver/Src/stm32l4xx_hal_gpio.c ****       {
 302              		.loc 1 184 22 is_stmt 0 view .LVU121
 303 00f8 4C68     		ldr	r4, [r1, #4]
 184:Drivers/STM32L4xx_HAL_Driver/Src/stm32l4xx_hal_gpio.c ****       {
 304              		.loc 1 184 29 view .LVU122
 305 00fa 04F00304 		and	r4, r4, #3
 184:Drivers/STM32L4xx_HAL_Driver/Src/stm32l4xx_hal_gpio.c ****       {
 306              		.loc 1 184 58 view .LVU123
 307 00fe 013C     		subs	r4, r4, #1
 184:Drivers/STM32L4xx_HAL_Driver/Src/stm32l4xx_hal_gpio.c ****       {
 308              		.loc 1 184 10 view .LVU124
 309 0100 012C     		cmp	r4, #1
 310 0102 81D9     		bls	.L23
 311              	.L4:
 205:Drivers/STM32L4xx_HAL_Driver/Src/stm32l4xx_hal_gpio.c ****       {
 312              		.loc 1 205 7 is_stmt 1 view .LVU125
 205:Drivers/STM32L4xx_HAL_Driver/Src/stm32l4xx_hal_gpio.c ****       {
 313              		.loc 1 205 20 is_stmt 0 view .LVU126
 314 0104 4C68     		ldr	r4, [r1, #4]
 205:Drivers/STM32L4xx_HAL_Driver/Src/stm32l4xx_hal_gpio.c ****       {
 315              		.loc 1 205 27 view .LVU127
ARM GAS  /tmp/cctl12IJ.s 			page 12


 316 0106 04F0030E 		and	lr, r4, #3
 205:Drivers/STM32L4xx_HAL_Driver/Src/stm32l4xx_hal_gpio.c ****       {
 317              		.loc 1 205 9 view .LVU128
 318 010a BEF1030F 		cmp	lr, #3
 319 010e 8FD0     		beq	.L24
 320              	.L5:
 217:Drivers/STM32L4xx_HAL_Driver/Src/stm32l4xx_hal_gpio.c ****       {
 321              		.loc 1 217 7 is_stmt 1 view .LVU129
 217:Drivers/STM32L4xx_HAL_Driver/Src/stm32l4xx_hal_gpio.c ****       {
 322              		.loc 1 217 21 is_stmt 0 view .LVU130
 323 0110 4C68     		ldr	r4, [r1, #4]
 217:Drivers/STM32L4xx_HAL_Driver/Src/stm32l4xx_hal_gpio.c ****       {
 324              		.loc 1 217 28 view .LVU131
 325 0112 04F00304 		and	r4, r4, #3
 217:Drivers/STM32L4xx_HAL_Driver/Src/stm32l4xx_hal_gpio.c ****       {
 326              		.loc 1 217 10 view .LVU132
 327 0116 032C     		cmp	r4, #3
 328 0118 0CD0     		beq	.L6
 220:Drivers/STM32L4xx_HAL_Driver/Src/stm32l4xx_hal_gpio.c **** 
 329              		.loc 1 220 9 is_stmt 1 view .LVU133
 222:Drivers/STM32L4xx_HAL_Driver/Src/stm32l4xx_hal_gpio.c ****         temp &= ~(GPIO_PUPDR_PUPD0 << (position * 2U));
 330              		.loc 1 222 9 view .LVU134
 222:Drivers/STM32L4xx_HAL_Driver/Src/stm32l4xx_hal_gpio.c ****         temp &= ~(GPIO_PUPDR_PUPD0 << (position * 2U));
 331              		.loc 1 222 14 is_stmt 0 view .LVU135
 332 011a C468     		ldr	r4, [r0, #12]
 333              	.LVL37:
 223:Drivers/STM32L4xx_HAL_Driver/Src/stm32l4xx_hal_gpio.c ****         temp |= ((GPIO_Init->Pull) << (position * 2U));
 334              		.loc 1 223 9 is_stmt 1 view .LVU136
 223:Drivers/STM32L4xx_HAL_Driver/Src/stm32l4xx_hal_gpio.c ****         temp |= ((GPIO_Init->Pull) << (position * 2U));
 335              		.loc 1 223 49 is_stmt 0 view .LVU137
 336 011c 5D00     		lsls	r5, r3, #1
 223:Drivers/STM32L4xx_HAL_Driver/Src/stm32l4xx_hal_gpio.c ****         temp |= ((GPIO_Init->Pull) << (position * 2U));
 337              		.loc 1 223 36 view .LVU138
 338 011e 4FF0030C 		mov	ip, #3
 339 0122 0CFA05FC 		lsl	ip, ip, r5
 223:Drivers/STM32L4xx_HAL_Driver/Src/stm32l4xx_hal_gpio.c ****         temp |= ((GPIO_Init->Pull) << (position * 2U));
 340              		.loc 1 223 14 view .LVU139
 341 0126 24EA0C0C 		bic	ip, r4, ip
 342              	.LVL38:
 224:Drivers/STM32L4xx_HAL_Driver/Src/stm32l4xx_hal_gpio.c ****         GPIOx->PUPDR = temp;
 343              		.loc 1 224 9 is_stmt 1 view .LVU140
 224:Drivers/STM32L4xx_HAL_Driver/Src/stm32l4xx_hal_gpio.c ****         GPIOx->PUPDR = temp;
 344              		.loc 1 224 28 is_stmt 0 view .LVU141
 345 012a 8C68     		ldr	r4, [r1, #8]
 224:Drivers/STM32L4xx_HAL_Driver/Src/stm32l4xx_hal_gpio.c ****         GPIOx->PUPDR = temp;
 346              		.loc 1 224 36 view .LVU142
 347 012c AC40     		lsls	r4, r4, r5
 224:Drivers/STM32L4xx_HAL_Driver/Src/stm32l4xx_hal_gpio.c ****         GPIOx->PUPDR = temp;
 348              		.loc 1 224 14 view .LVU143
 349 012e 44EA0C04 		orr	r4, r4, ip
 350              	.LVL39:
 225:Drivers/STM32L4xx_HAL_Driver/Src/stm32l4xx_hal_gpio.c ****       }
 351              		.loc 1 225 9 is_stmt 1 view .LVU144
 225:Drivers/STM32L4xx_HAL_Driver/Src/stm32l4xx_hal_gpio.c ****       }
 352              		.loc 1 225 22 is_stmt 0 view .LVU145
 353 0132 C460     		str	r4, [r0, #12]
 354              	.LVL40:
ARM GAS  /tmp/cctl12IJ.s 			page 13


 355              	.L6:
 229:Drivers/STM32L4xx_HAL_Driver/Src/stm32l4xx_hal_gpio.c ****       {
 356              		.loc 1 229 7 is_stmt 1 view .LVU146
 229:Drivers/STM32L4xx_HAL_Driver/Src/stm32l4xx_hal_gpio.c ****       {
 357              		.loc 1 229 21 is_stmt 0 view .LVU147
 358 0134 4C68     		ldr	r4, [r1, #4]
 229:Drivers/STM32L4xx_HAL_Driver/Src/stm32l4xx_hal_gpio.c ****       {
 359              		.loc 1 229 28 view .LVU148
 360 0136 04F00304 		and	r4, r4, #3
 229:Drivers/STM32L4xx_HAL_Driver/Src/stm32l4xx_hal_gpio.c ****       {
 361              		.loc 1 229 10 view .LVU149
 362 013a 022C     		cmp	r4, #2
 363 013c 82D0     		beq	.L25
 364              	.L7:
 243:Drivers/STM32L4xx_HAL_Driver/Src/stm32l4xx_hal_gpio.c ****       temp &= ~(GPIO_MODER_MODE0 << (position * 2u));
 365              		.loc 1 243 7 is_stmt 1 view .LVU150
 243:Drivers/STM32L4xx_HAL_Driver/Src/stm32l4xx_hal_gpio.c ****       temp &= ~(GPIO_MODER_MODE0 << (position * 2u));
 366              		.loc 1 243 12 is_stmt 0 view .LVU151
 367 013e 0468     		ldr	r4, [r0]
 368              	.LVL41:
 244:Drivers/STM32L4xx_HAL_Driver/Src/stm32l4xx_hal_gpio.c ****       temp |= ((GPIO_Init->Mode & GPIO_MODE) << (position * 2u));
 369              		.loc 1 244 7 is_stmt 1 view .LVU152
 244:Drivers/STM32L4xx_HAL_Driver/Src/stm32l4xx_hal_gpio.c ****       temp |= ((GPIO_Init->Mode & GPIO_MODE) << (position * 2u));
 370              		.loc 1 244 47 is_stmt 0 view .LVU153
 371 0140 4FEA430E 		lsl	lr, r3, #1
 244:Drivers/STM32L4xx_HAL_Driver/Src/stm32l4xx_hal_gpio.c ****       temp |= ((GPIO_Init->Mode & GPIO_MODE) << (position * 2u));
 372              		.loc 1 244 34 view .LVU154
 373 0144 4FF0030C 		mov	ip, #3
 374 0148 0CFA0EFC 		lsl	ip, ip, lr
 244:Drivers/STM32L4xx_HAL_Driver/Src/stm32l4xx_hal_gpio.c ****       temp |= ((GPIO_Init->Mode & GPIO_MODE) << (position * 2u));
 375              		.loc 1 244 12 view .LVU155
 376 014c 24EA0C0C 		bic	ip, r4, ip
 377              	.LVL42:
 245:Drivers/STM32L4xx_HAL_Driver/Src/stm32l4xx_hal_gpio.c ****       GPIOx->MODER = temp;
 378              		.loc 1 245 7 is_stmt 1 view .LVU156
 245:Drivers/STM32L4xx_HAL_Driver/Src/stm32l4xx_hal_gpio.c ****       GPIOx->MODER = temp;
 379              		.loc 1 245 26 is_stmt 0 view .LVU157
 380 0150 4C68     		ldr	r4, [r1, #4]
 245:Drivers/STM32L4xx_HAL_Driver/Src/stm32l4xx_hal_gpio.c ****       GPIOx->MODER = temp;
 381              		.loc 1 245 33 view .LVU158
 382 0152 04F00304 		and	r4, r4, #3
 245:Drivers/STM32L4xx_HAL_Driver/Src/stm32l4xx_hal_gpio.c ****       GPIOx->MODER = temp;
 383              		.loc 1 245 46 view .LVU159
 384 0156 04FA0EF4 		lsl	r4, r4, lr
 245:Drivers/STM32L4xx_HAL_Driver/Src/stm32l4xx_hal_gpio.c ****       GPIOx->MODER = temp;
 385              		.loc 1 245 12 view .LVU160
 386 015a 44EA0C04 		orr	r4, r4, ip
 387              	.LVL43:
 246:Drivers/STM32L4xx_HAL_Driver/Src/stm32l4xx_hal_gpio.c **** 
 388              		.loc 1 246 7 is_stmt 1 view .LVU161
 246:Drivers/STM32L4xx_HAL_Driver/Src/stm32l4xx_hal_gpio.c **** 
 389              		.loc 1 246 20 is_stmt 0 view .LVU162
 390 015e 0460     		str	r4, [r0]
 250:Drivers/STM32L4xx_HAL_Driver/Src/stm32l4xx_hal_gpio.c ****       {
 391              		.loc 1 250 7 is_stmt 1 view .LVU163
 250:Drivers/STM32L4xx_HAL_Driver/Src/stm32l4xx_hal_gpio.c ****       {
 392              		.loc 1 250 21 is_stmt 0 view .LVU164
ARM GAS  /tmp/cctl12IJ.s 			page 14


 393 0160 4C68     		ldr	r4, [r1, #4]
 394              	.LVL44:
 250:Drivers/STM32L4xx_HAL_Driver/Src/stm32l4xx_hal_gpio.c ****       {
 395              		.loc 1 250 10 view .LVU165
 396 0162 14F4403F 		tst	r4, #196608
 397 0166 BAD0     		beq	.L3
 253:Drivers/STM32L4xx_HAL_Driver/Src/stm32l4xx_hal_gpio.c **** 
 398              		.loc 1 253 9 is_stmt 1 view .LVU166
 399              	.LBB2:
 253:Drivers/STM32L4xx_HAL_Driver/Src/stm32l4xx_hal_gpio.c **** 
 400              		.loc 1 253 9 view .LVU167
 253:Drivers/STM32L4xx_HAL_Driver/Src/stm32l4xx_hal_gpio.c **** 
 401              		.loc 1 253 9 view .LVU168
 402 0168 234C     		ldr	r4, .L27+8
 403 016a 256E     		ldr	r5, [r4, #96]
 404 016c 45F00105 		orr	r5, r5, #1
 405 0170 2566     		str	r5, [r4, #96]
 406              	.LVL45:
 253:Drivers/STM32L4xx_HAL_Driver/Src/stm32l4xx_hal_gpio.c **** 
 407              		.loc 1 253 9 view .LVU169
 408 0172 246E     		ldr	r4, [r4, #96]
 409 0174 04F00104 		and	r4, r4, #1
 410 0178 0194     		str	r4, [sp, #4]
 253:Drivers/STM32L4xx_HAL_Driver/Src/stm32l4xx_hal_gpio.c **** 
 411              		.loc 1 253 9 view .LVU170
 412 017a 019C     		ldr	r4, [sp, #4]
 413              	.LBE2:
 253:Drivers/STM32L4xx_HAL_Driver/Src/stm32l4xx_hal_gpio.c **** 
 414              		.loc 1 253 9 view .LVU171
 255:Drivers/STM32L4xx_HAL_Driver/Src/stm32l4xx_hal_gpio.c ****         temp &= ~(0x0FuL << (4u * (position & 0x03u)));
 415              		.loc 1 255 9 view .LVU172
 255:Drivers/STM32L4xx_HAL_Driver/Src/stm32l4xx_hal_gpio.c ****         temp &= ~(0x0FuL << (4u * (position & 0x03u)));
 416              		.loc 1 255 40 is_stmt 0 view .LVU173
 417 017c 4FEA930C 		lsr	ip, r3, #2
 255:Drivers/STM32L4xx_HAL_Driver/Src/stm32l4xx_hal_gpio.c ****         temp &= ~(0x0FuL << (4u * (position & 0x03u)));
 418              		.loc 1 255 14 view .LVU174
 419 0180 0CF10205 		add	r5, ip, #2
 420 0184 1A4C     		ldr	r4, .L27
 421 0186 54F82550 		ldr	r5, [r4, r5, lsl #2]
 422              	.LVL46:
 256:Drivers/STM32L4xx_HAL_Driver/Src/stm32l4xx_hal_gpio.c ****         temp |= (GPIO_GET_INDEX(GPIOx) << (4u * (position & 0x03u)));
 423              		.loc 1 256 9 is_stmt 1 view .LVU175
 256:Drivers/STM32L4xx_HAL_Driver/Src/stm32l4xx_hal_gpio.c ****         temp |= (GPIO_GET_INDEX(GPIOx) << (4u * (position & 0x03u)));
 424              		.loc 1 256 45 is_stmt 0 view .LVU176
 425 018a 03F00304 		and	r4, r3, #3
 256:Drivers/STM32L4xx_HAL_Driver/Src/stm32l4xx_hal_gpio.c ****         temp |= (GPIO_GET_INDEX(GPIOx) << (4u * (position & 0x03u)));
 426              		.loc 1 256 33 view .LVU177
 427 018e 4FEA840E 		lsl	lr, r4, #2
 256:Drivers/STM32L4xx_HAL_Driver/Src/stm32l4xx_hal_gpio.c ****         temp |= (GPIO_GET_INDEX(GPIOx) << (4u * (position & 0x03u)));
 428              		.loc 1 256 26 view .LVU178
 429 0192 0F24     		movs	r4, #15
 430 0194 04FA0EF4 		lsl	r4, r4, lr
 256:Drivers/STM32L4xx_HAL_Driver/Src/stm32l4xx_hal_gpio.c ****         temp |= (GPIO_GET_INDEX(GPIOx) << (4u * (position & 0x03u)));
 431              		.loc 1 256 14 view .LVU179
 432 0198 25EA0405 		bic	r5, r5, r4
 433              	.LVL47:
 257:Drivers/STM32L4xx_HAL_Driver/Src/stm32l4xx_hal_gpio.c ****         SYSCFG->EXTICR[position >> 2u] = temp;
ARM GAS  /tmp/cctl12IJ.s 			page 15


 434              		.loc 1 257 9 is_stmt 1 view .LVU180
 257:Drivers/STM32L4xx_HAL_Driver/Src/stm32l4xx_hal_gpio.c ****         SYSCFG->EXTICR[position >> 2u] = temp;
 435              		.loc 1 257 18 is_stmt 0 view .LVU181
 436 019c B0F1904F 		cmp	r0, #1207959552
 437 01a0 3FF467AF 		beq	.L14
 257:Drivers/STM32L4xx_HAL_Driver/Src/stm32l4xx_hal_gpio.c ****         SYSCFG->EXTICR[position >> 2u] = temp;
 438              		.loc 1 257 18 discriminator 1 view .LVU182
 439 01a4 154C     		ldr	r4, .L27+12
 440 01a6 A042     		cmp	r0, r4
 441 01a8 16D0     		beq	.L15
 257:Drivers/STM32L4xx_HAL_Driver/Src/stm32l4xx_hal_gpio.c ****         SYSCFG->EXTICR[position >> 2u] = temp;
 442              		.loc 1 257 18 discriminator 3 view .LVU183
 443 01aa 04F58064 		add	r4, r4, #1024
 444 01ae A042     		cmp	r0, r4
 445 01b0 14D0     		beq	.L16
 257:Drivers/STM32L4xx_HAL_Driver/Src/stm32l4xx_hal_gpio.c ****         SYSCFG->EXTICR[position >> 2u] = temp;
 446              		.loc 1 257 18 discriminator 5 view .LVU184
 447 01b2 04F58064 		add	r4, r4, #1024
 448 01b6 A042     		cmp	r0, r4
 449 01b8 12D0     		beq	.L17
 257:Drivers/STM32L4xx_HAL_Driver/Src/stm32l4xx_hal_gpio.c ****         SYSCFG->EXTICR[position >> 2u] = temp;
 450              		.loc 1 257 18 discriminator 7 view .LVU185
 451 01ba 04F58064 		add	r4, r4, #1024
 452 01be A042     		cmp	r0, r4
 453 01c0 10D0     		beq	.L18
 257:Drivers/STM32L4xx_HAL_Driver/Src/stm32l4xx_hal_gpio.c ****         SYSCFG->EXTICR[position >> 2u] = temp;
 454              		.loc 1 257 18 discriminator 9 view .LVU186
 455 01c2 04F58064 		add	r4, r4, #1024
 456 01c6 A042     		cmp	r0, r4
 457 01c8 0ED0     		beq	.L19
 257:Drivers/STM32L4xx_HAL_Driver/Src/stm32l4xx_hal_gpio.c ****         SYSCFG->EXTICR[position >> 2u] = temp;
 458              		.loc 1 257 18 discriminator 11 view .LVU187
 459 01ca 04F58064 		add	r4, r4, #1024
 460 01ce A042     		cmp	r0, r4
 461 01d0 3FF44DAF 		beq	.L26
 257:Drivers/STM32L4xx_HAL_Driver/Src/stm32l4xx_hal_gpio.c ****         SYSCFG->EXTICR[position >> 2u] = temp;
 462              		.loc 1 257 18 view .LVU188
 463 01d4 0724     		movs	r4, #7
 464 01d6 4DE7     		b	.L8
 465              	.L15:
 466 01d8 0124     		movs	r4, #1
 467 01da 4BE7     		b	.L8
 468              	.L16:
 469 01dc 0224     		movs	r4, #2
 470 01de 49E7     		b	.L8
 471              	.L17:
 472 01e0 0324     		movs	r4, #3
 473 01e2 47E7     		b	.L8
 474              	.L18:
 475 01e4 0424     		movs	r4, #4
 476 01e6 45E7     		b	.L8
 477              	.L19:
 478 01e8 0524     		movs	r4, #5
 479 01ea 43E7     		b	.L8
 480              	.LVL48:
 481              	.L22:
 297:Drivers/STM32L4xx_HAL_Driver/Src/stm32l4xx_hal_gpio.c ****   }
ARM GAS  /tmp/cctl12IJ.s 			page 16


 298:Drivers/STM32L4xx_HAL_Driver/Src/stm32l4xx_hal_gpio.c **** }
 482              		.loc 1 298 1 view .LVU189
 483 01ec 03B0     		add	sp, sp, #12
 484              	.LCFI2:
 485              		.cfi_def_cfa_offset 20
 486              		@ sp needed
 487 01ee F0BD     		pop	{r4, r5, r6, r7, pc}
 488              	.L28:
 489              		.align	2
 490              	.L27:
 491 01f0 00000140 		.word	1073807360
 492 01f4 00040140 		.word	1073808384
 493 01f8 00100240 		.word	1073876992
 494 01fc 00040048 		.word	1207960576
 495              		.cfi_endproc
 496              	.LFE132:
 498              		.section	.text.HAL_GPIO_DeInit,"ax",%progbits
 499              		.align	1
 500              		.global	HAL_GPIO_DeInit
 501              		.syntax unified
 502              		.thumb
 503              		.thumb_func
 504              		.fpu fpv4-sp-d16
 506              	HAL_GPIO_DeInit:
 507              	.LVL49:
 508              	.LFB133:
 299:Drivers/STM32L4xx_HAL_Driver/Src/stm32l4xx_hal_gpio.c **** 
 300:Drivers/STM32L4xx_HAL_Driver/Src/stm32l4xx_hal_gpio.c **** /**
 301:Drivers/STM32L4xx_HAL_Driver/Src/stm32l4xx_hal_gpio.c ****   * @brief  De-initialize the GPIOx peripheral registers to their default reset values.
 302:Drivers/STM32L4xx_HAL_Driver/Src/stm32l4xx_hal_gpio.c ****   * @param  GPIOx where x can be (A..H) to select the GPIO peripheral for STM32L4 family
 303:Drivers/STM32L4xx_HAL_Driver/Src/stm32l4xx_hal_gpio.c ****   * @param  GPIO_Pin specifies the port bit to be written.
 304:Drivers/STM32L4xx_HAL_Driver/Src/stm32l4xx_hal_gpio.c ****   *         This parameter can be any combination of GPIO_Pin_x where x can be (0..15).
 305:Drivers/STM32L4xx_HAL_Driver/Src/stm32l4xx_hal_gpio.c ****   * @retval None
 306:Drivers/STM32L4xx_HAL_Driver/Src/stm32l4xx_hal_gpio.c ****   */
 307:Drivers/STM32L4xx_HAL_Driver/Src/stm32l4xx_hal_gpio.c **** void HAL_GPIO_DeInit(GPIO_TypeDef  *GPIOx, uint32_t GPIO_Pin)
 308:Drivers/STM32L4xx_HAL_Driver/Src/stm32l4xx_hal_gpio.c **** {
 509              		.loc 1 308 1 is_stmt 1 view -0
 510              		.cfi_startproc
 511              		@ args = 0, pretend = 0, frame = 0
 512              		@ frame_needed = 0, uses_anonymous_args = 0
 309:Drivers/STM32L4xx_HAL_Driver/Src/stm32l4xx_hal_gpio.c ****   uint32_t position = 0x00u;
 513              		.loc 1 309 3 view .LVU191
 310:Drivers/STM32L4xx_HAL_Driver/Src/stm32l4xx_hal_gpio.c ****   uint32_t iocurrent;
 514              		.loc 1 310 3 view .LVU192
 311:Drivers/STM32L4xx_HAL_Driver/Src/stm32l4xx_hal_gpio.c ****   uint32_t tmp;
 515              		.loc 1 311 3 view .LVU193
 312:Drivers/STM32L4xx_HAL_Driver/Src/stm32l4xx_hal_gpio.c **** 
 313:Drivers/STM32L4xx_HAL_Driver/Src/stm32l4xx_hal_gpio.c ****   /* Check the parameters */
 314:Drivers/STM32L4xx_HAL_Driver/Src/stm32l4xx_hal_gpio.c ****   assert_param(IS_GPIO_ALL_INSTANCE(GPIOx));
 516              		.loc 1 314 3 view .LVU194
 315:Drivers/STM32L4xx_HAL_Driver/Src/stm32l4xx_hal_gpio.c ****   assert_param(IS_GPIO_PIN(GPIO_Pin));
 517              		.loc 1 315 3 view .LVU195
 316:Drivers/STM32L4xx_HAL_Driver/Src/stm32l4xx_hal_gpio.c **** 
 317:Drivers/STM32L4xx_HAL_Driver/Src/stm32l4xx_hal_gpio.c ****   /* Configure the port pins */
 318:Drivers/STM32L4xx_HAL_Driver/Src/stm32l4xx_hal_gpio.c ****   while ((GPIO_Pin >> position) != 0x00u)
 518              		.loc 1 318 3 view .LVU196
 309:Drivers/STM32L4xx_HAL_Driver/Src/stm32l4xx_hal_gpio.c ****   uint32_t iocurrent;
ARM GAS  /tmp/cctl12IJ.s 			page 17


 519              		.loc 1 309 12 is_stmt 0 view .LVU197
 520 0000 0023     		movs	r3, #0
 521              	.LVL50:
 522              		.loc 1 318 9 is_stmt 1 view .LVU198
 523 0002 31FA03F2 		lsrs	r2, r1, r3
 524 0006 00F08B80 		beq	.L45
 308:Drivers/STM32L4xx_HAL_Driver/Src/stm32l4xx_hal_gpio.c ****   uint32_t position = 0x00u;
 525              		.loc 1 308 1 is_stmt 0 view .LVU199
 526 000a F0B5     		push	{r4, r5, r6, r7, lr}
 527              	.LCFI3:
 528              		.cfi_def_cfa_offset 20
 529              		.cfi_offset 4, -20
 530              		.cfi_offset 5, -16
 531              		.cfi_offset 6, -12
 532              		.cfi_offset 7, -8
 533              		.cfi_offset 14, -4
 534 000c 32E0     		b	.L34
 535              	.LVL51:
 536              	.L48:
 319:Drivers/STM32L4xx_HAL_Driver/Src/stm32l4xx_hal_gpio.c ****   {
 320:Drivers/STM32L4xx_HAL_Driver/Src/stm32l4xx_hal_gpio.c ****     /* Get current io position */
 321:Drivers/STM32L4xx_HAL_Driver/Src/stm32l4xx_hal_gpio.c ****     iocurrent = (GPIO_Pin) & (1uL << position);
 322:Drivers/STM32L4xx_HAL_Driver/Src/stm32l4xx_hal_gpio.c **** 
 323:Drivers/STM32L4xx_HAL_Driver/Src/stm32l4xx_hal_gpio.c ****     if (iocurrent != 0x00u)
 324:Drivers/STM32L4xx_HAL_Driver/Src/stm32l4xx_hal_gpio.c ****     {
 325:Drivers/STM32L4xx_HAL_Driver/Src/stm32l4xx_hal_gpio.c ****       /*------------------------- EXTI Mode Configuration --------------------*/
 326:Drivers/STM32L4xx_HAL_Driver/Src/stm32l4xx_hal_gpio.c ****       /* Clear the External Interrupt or Event for the current IO */
 327:Drivers/STM32L4xx_HAL_Driver/Src/stm32l4xx_hal_gpio.c **** 
 328:Drivers/STM32L4xx_HAL_Driver/Src/stm32l4xx_hal_gpio.c ****       tmp = SYSCFG->EXTICR[position >> 2u];
 329:Drivers/STM32L4xx_HAL_Driver/Src/stm32l4xx_hal_gpio.c ****       tmp &= (0x0FuL << (4u * (position & 0x03u)));
 330:Drivers/STM32L4xx_HAL_Driver/Src/stm32l4xx_hal_gpio.c ****       if (tmp == (GPIO_GET_INDEX(GPIOx) << (4u * (position & 0x03u))))
 537              		.loc 1 330 19 view .LVU200
 538 000e 0625     		movs	r5, #6
 539 0010 00E0     		b	.L32
 540              	.L35:
 541 0012 0025     		movs	r5, #0
 542              	.L32:
 543              		.loc 1 330 41 discriminator 28 view .LVU201
 544 0014 05FA0CFC 		lsl	ip, r5, ip
 545              		.loc 1 330 10 discriminator 28 view .LVU202
 546 0018 A445     		cmp	ip, r4
 547 001a 65D0     		beq	.L46
 548              	.LVL52:
 549              	.L33:
 331:Drivers/STM32L4xx_HAL_Driver/Src/stm32l4xx_hal_gpio.c ****       {
 332:Drivers/STM32L4xx_HAL_Driver/Src/stm32l4xx_hal_gpio.c ****         /* Clear EXTI line configuration */
 333:Drivers/STM32L4xx_HAL_Driver/Src/stm32l4xx_hal_gpio.c ****         EXTI->IMR1 &= ~(iocurrent);
 334:Drivers/STM32L4xx_HAL_Driver/Src/stm32l4xx_hal_gpio.c ****         EXTI->EMR1 &= ~(iocurrent);
 335:Drivers/STM32L4xx_HAL_Driver/Src/stm32l4xx_hal_gpio.c **** 
 336:Drivers/STM32L4xx_HAL_Driver/Src/stm32l4xx_hal_gpio.c ****         /* Clear Rising Falling edge configuration */
 337:Drivers/STM32L4xx_HAL_Driver/Src/stm32l4xx_hal_gpio.c ****         EXTI->FTSR1 &= ~(iocurrent);
 338:Drivers/STM32L4xx_HAL_Driver/Src/stm32l4xx_hal_gpio.c ****         EXTI->RTSR1 &= ~(iocurrent);
 339:Drivers/STM32L4xx_HAL_Driver/Src/stm32l4xx_hal_gpio.c **** 
 340:Drivers/STM32L4xx_HAL_Driver/Src/stm32l4xx_hal_gpio.c ****         tmp = 0x0FuL << (4u * (position & 0x03u));
 341:Drivers/STM32L4xx_HAL_Driver/Src/stm32l4xx_hal_gpio.c ****         SYSCFG->EXTICR[position >> 2u] &= ~tmp;
 342:Drivers/STM32L4xx_HAL_Driver/Src/stm32l4xx_hal_gpio.c ****       }
 343:Drivers/STM32L4xx_HAL_Driver/Src/stm32l4xx_hal_gpio.c **** 
ARM GAS  /tmp/cctl12IJ.s 			page 18


 344:Drivers/STM32L4xx_HAL_Driver/Src/stm32l4xx_hal_gpio.c ****       /*------------------------- GPIO Mode Configuration --------------------*/
 345:Drivers/STM32L4xx_HAL_Driver/Src/stm32l4xx_hal_gpio.c ****       /* Configure IO in Analog Mode */
 346:Drivers/STM32L4xx_HAL_Driver/Src/stm32l4xx_hal_gpio.c ****       GPIOx->MODER |= (GPIO_MODER_MODE0 << (position * 2u));
 550              		.loc 1 346 7 is_stmt 1 view .LVU203
 551              		.loc 1 346 20 is_stmt 0 view .LVU204
 552 001c 0468     		ldr	r4, [r0]
 553              		.loc 1 346 54 view .LVU205
 554 001e 5D00     		lsls	r5, r3, #1
 555              		.loc 1 346 41 view .LVU206
 556 0020 4FF0030C 		mov	ip, #3
 557 0024 0CFA05FC 		lsl	ip, ip, r5
 558              		.loc 1 346 20 view .LVU207
 559 0028 44EA0C04 		orr	r4, r4, ip
 560 002c 0460     		str	r4, [r0]
 347:Drivers/STM32L4xx_HAL_Driver/Src/stm32l4xx_hal_gpio.c **** 
 348:Drivers/STM32L4xx_HAL_Driver/Src/stm32l4xx_hal_gpio.c ****       /* Configure the default Alternate Function in current IO */
 349:Drivers/STM32L4xx_HAL_Driver/Src/stm32l4xx_hal_gpio.c ****       GPIOx->AFR[position >> 3u] &= ~(0xFu << ((position & 0x07u) * 4u)) ;
 561              		.loc 1 349 7 is_stmt 1 view .LVU208
 562              		.loc 1 349 34 is_stmt 0 view .LVU209
 563 002e 4FEAD30E 		lsr	lr, r3, #3
 564 0032 0EF1080E 		add	lr, lr, #8
 565 0036 50F82E40 		ldr	r4, [r0, lr, lsl #2]
 566              		.loc 1 349 58 view .LVU210
 567 003a 03F00705 		and	r5, r3, #7
 568              		.loc 1 349 67 view .LVU211
 569 003e AE00     		lsls	r6, r5, #2
 570              		.loc 1 349 44 view .LVU212
 571 0040 0F25     		movs	r5, #15
 572 0042 B540     		lsls	r5, r5, r6
 573              		.loc 1 349 34 view .LVU213
 574 0044 24EA0504 		bic	r4, r4, r5
 575 0048 40F82E40 		str	r4, [r0, lr, lsl #2]
 350:Drivers/STM32L4xx_HAL_Driver/Src/stm32l4xx_hal_gpio.c **** 
 351:Drivers/STM32L4xx_HAL_Driver/Src/stm32l4xx_hal_gpio.c ****       /* Configure the default value for IO Speed */
 352:Drivers/STM32L4xx_HAL_Driver/Src/stm32l4xx_hal_gpio.c ****       GPIOx->OSPEEDR &= ~(GPIO_OSPEEDR_OSPEED0 << (position * 2u));
 576              		.loc 1 352 7 is_stmt 1 view .LVU214
 577              		.loc 1 352 22 is_stmt 0 view .LVU215
 578 004c 8468     		ldr	r4, [r0, #8]
 579 004e 24EA0C04 		bic	r4, r4, ip
 580 0052 8460     		str	r4, [r0, #8]
 353:Drivers/STM32L4xx_HAL_Driver/Src/stm32l4xx_hal_gpio.c **** 
 354:Drivers/STM32L4xx_HAL_Driver/Src/stm32l4xx_hal_gpio.c ****       /* Configure the default value IO Output Type */
 355:Drivers/STM32L4xx_HAL_Driver/Src/stm32l4xx_hal_gpio.c ****       GPIOx->OTYPER  &= ~(GPIO_OTYPER_OT0 << position) ;
 581              		.loc 1 355 7 is_stmt 1 view .LVU216
 582              		.loc 1 355 22 is_stmt 0 view .LVU217
 583 0054 4468     		ldr	r4, [r0, #4]
 584 0056 24EA0204 		bic	r4, r4, r2
 585 005a 4460     		str	r4, [r0, #4]
 356:Drivers/STM32L4xx_HAL_Driver/Src/stm32l4xx_hal_gpio.c **** 
 357:Drivers/STM32L4xx_HAL_Driver/Src/stm32l4xx_hal_gpio.c ****       /* Deactivate the Pull-up and Pull-down resistor for the current IO */
 358:Drivers/STM32L4xx_HAL_Driver/Src/stm32l4xx_hal_gpio.c ****       GPIOx->PUPDR &= ~(GPIO_PUPDR_PUPD0 << (position * 2u));
 586              		.loc 1 358 7 is_stmt 1 view .LVU218
 587              		.loc 1 358 20 is_stmt 0 view .LVU219
 588 005c C468     		ldr	r4, [r0, #12]
 589 005e 24EA0C04 		bic	r4, r4, ip
 590 0062 C460     		str	r4, [r0, #12]
 359:Drivers/STM32L4xx_HAL_Driver/Src/stm32l4xx_hal_gpio.c **** 
ARM GAS  /tmp/cctl12IJ.s 			page 19


 360:Drivers/STM32L4xx_HAL_Driver/Src/stm32l4xx_hal_gpio.c **** #if defined(STM32L471xx) || defined(STM32L475xx) || defined(STM32L476xx) || defined(STM32L485xx) ||
 361:Drivers/STM32L4xx_HAL_Driver/Src/stm32l4xx_hal_gpio.c ****       /* Deactivate the Control bit of Analog mode for the current IO */
 362:Drivers/STM32L4xx_HAL_Driver/Src/stm32l4xx_hal_gpio.c ****       GPIOx->ASCR &= ~(GPIO_ASCR_ASC0<< position);
 591              		.loc 1 362 7 is_stmt 1 view .LVU220
 592              		.loc 1 362 19 is_stmt 0 view .LVU221
 593 0064 C46A     		ldr	r4, [r0, #44]
 594 0066 24EA0202 		bic	r2, r4, r2
 595              	.LVL53:
 596              		.loc 1 362 19 view .LVU222
 597 006a C262     		str	r2, [r0, #44]
 598              	.L31:
 363:Drivers/STM32L4xx_HAL_Driver/Src/stm32l4xx_hal_gpio.c **** #endif /* STM32L471xx || STM32L475xx || STM32L476xx || STM32L485xx || STM32L486xx */
 364:Drivers/STM32L4xx_HAL_Driver/Src/stm32l4xx_hal_gpio.c ****     }
 365:Drivers/STM32L4xx_HAL_Driver/Src/stm32l4xx_hal_gpio.c **** 
 366:Drivers/STM32L4xx_HAL_Driver/Src/stm32l4xx_hal_gpio.c ****     position++;
 599              		.loc 1 366 5 is_stmt 1 view .LVU223
 600              		.loc 1 366 13 is_stmt 0 view .LVU224
 601 006c 0133     		adds	r3, r3, #1
 602              	.LVL54:
 318:Drivers/STM32L4xx_HAL_Driver/Src/stm32l4xx_hal_gpio.c ****   {
 603              		.loc 1 318 9 is_stmt 1 view .LVU225
 604 006e 31FA03F2 		lsrs	r2, r1, r3
 605 0072 54D0     		beq	.L47
 606              	.LVL55:
 607              	.L34:
 321:Drivers/STM32L4xx_HAL_Driver/Src/stm32l4xx_hal_gpio.c **** 
 608              		.loc 1 321 5 view .LVU226
 321:Drivers/STM32L4xx_HAL_Driver/Src/stm32l4xx_hal_gpio.c **** 
 609              		.loc 1 321 35 is_stmt 0 view .LVU227
 610 0074 0122     		movs	r2, #1
 611 0076 9A40     		lsls	r2, r2, r3
 612              	.LVL56:
 323:Drivers/STM32L4xx_HAL_Driver/Src/stm32l4xx_hal_gpio.c ****     {
 613              		.loc 1 323 5 is_stmt 1 view .LVU228
 323:Drivers/STM32L4xx_HAL_Driver/Src/stm32l4xx_hal_gpio.c ****     {
 614              		.loc 1 323 8 is_stmt 0 view .LVU229
 615 0078 12EA0107 		ands	r7, r2, r1
 616              	.LVL57:
 323:Drivers/STM32L4xx_HAL_Driver/Src/stm32l4xx_hal_gpio.c ****     {
 617              		.loc 1 323 8 view .LVU230
 618 007c F6D0     		beq	.L31
 328:Drivers/STM32L4xx_HAL_Driver/Src/stm32l4xx_hal_gpio.c ****       tmp &= (0x0FuL << (4u * (position & 0x03u)));
 619              		.loc 1 328 7 is_stmt 1 view .LVU231
 328:Drivers/STM32L4xx_HAL_Driver/Src/stm32l4xx_hal_gpio.c ****       tmp &= (0x0FuL << (4u * (position & 0x03u)));
 620              		.loc 1 328 37 is_stmt 0 view .LVU232
 621 007e 4FEA930E 		lsr	lr, r3, #2
 328:Drivers/STM32L4xx_HAL_Driver/Src/stm32l4xx_hal_gpio.c ****       tmp &= (0x0FuL << (4u * (position & 0x03u)));
 622              		.loc 1 328 11 view .LVU233
 623 0082 0EF10205 		add	r5, lr, #2
 624 0086 274C     		ldr	r4, .L49
 625 0088 54F82540 		ldr	r4, [r4, r5, lsl #2]
 626              	.LVL58:
 329:Drivers/STM32L4xx_HAL_Driver/Src/stm32l4xx_hal_gpio.c ****       if (tmp == (GPIO_GET_INDEX(GPIOx) << (4u * (position & 0x03u))))
 627              		.loc 1 329 7 is_stmt 1 view .LVU234
 329:Drivers/STM32L4xx_HAL_Driver/Src/stm32l4xx_hal_gpio.c ****       if (tmp == (GPIO_GET_INDEX(GPIOx) << (4u * (position & 0x03u))))
 628              		.loc 1 329 41 is_stmt 0 view .LVU235
 629 008c 03F0030C 		and	ip, r3, #3
ARM GAS  /tmp/cctl12IJ.s 			page 20


 329:Drivers/STM32L4xx_HAL_Driver/Src/stm32l4xx_hal_gpio.c ****       if (tmp == (GPIO_GET_INDEX(GPIOx) << (4u * (position & 0x03u))))
 630              		.loc 1 329 29 view .LVU236
 631 0090 4FEA8C0C 		lsl	ip, ip, #2
 329:Drivers/STM32L4xx_HAL_Driver/Src/stm32l4xx_hal_gpio.c ****       if (tmp == (GPIO_GET_INDEX(GPIOx) << (4u * (position & 0x03u))))
 632              		.loc 1 329 22 view .LVU237
 633 0094 0F25     		movs	r5, #15
 634 0096 05FA0CF6 		lsl	r6, r5, ip
 329:Drivers/STM32L4xx_HAL_Driver/Src/stm32l4xx_hal_gpio.c ****       if (tmp == (GPIO_GET_INDEX(GPIOx) << (4u * (position & 0x03u))))
 635              		.loc 1 329 11 view .LVU238
 636 009a 3440     		ands	r4, r4, r6
 637              	.LVL59:
 330:Drivers/STM32L4xx_HAL_Driver/Src/stm32l4xx_hal_gpio.c ****       {
 638              		.loc 1 330 7 is_stmt 1 view .LVU239
 330:Drivers/STM32L4xx_HAL_Driver/Src/stm32l4xx_hal_gpio.c ****       {
 639              		.loc 1 330 19 is_stmt 0 view .LVU240
 640 009c B0F1904F 		cmp	r0, #1207959552
 641 00a0 B7D0     		beq	.L35
 330:Drivers/STM32L4xx_HAL_Driver/Src/stm32l4xx_hal_gpio.c ****       {
 642              		.loc 1 330 19 discriminator 1 view .LVU241
 643 00a2 214D     		ldr	r5, .L49+4
 644 00a4 A842     		cmp	r0, r5
 645 00a6 15D0     		beq	.L36
 330:Drivers/STM32L4xx_HAL_Driver/Src/stm32l4xx_hal_gpio.c ****       {
 646              		.loc 1 330 19 discriminator 3 view .LVU242
 647 00a8 05F58065 		add	r5, r5, #1024
 648 00ac A842     		cmp	r0, r5
 649 00ae 13D0     		beq	.L37
 330:Drivers/STM32L4xx_HAL_Driver/Src/stm32l4xx_hal_gpio.c ****       {
 650              		.loc 1 330 19 discriminator 5 view .LVU243
 651 00b0 05F58065 		add	r5, r5, #1024
 652 00b4 A842     		cmp	r0, r5
 653 00b6 11D0     		beq	.L38
 330:Drivers/STM32L4xx_HAL_Driver/Src/stm32l4xx_hal_gpio.c ****       {
 654              		.loc 1 330 19 discriminator 7 view .LVU244
 655 00b8 05F58065 		add	r5, r5, #1024
 656 00bc A842     		cmp	r0, r5
 657 00be 0FD0     		beq	.L39
 330:Drivers/STM32L4xx_HAL_Driver/Src/stm32l4xx_hal_gpio.c ****       {
 658              		.loc 1 330 19 discriminator 9 view .LVU245
 659 00c0 05F58065 		add	r5, r5, #1024
 660 00c4 A842     		cmp	r0, r5
 661 00c6 0DD0     		beq	.L40
 330:Drivers/STM32L4xx_HAL_Driver/Src/stm32l4xx_hal_gpio.c ****       {
 662              		.loc 1 330 19 discriminator 11 view .LVU246
 663 00c8 05F58065 		add	r5, r5, #1024
 664 00cc A842     		cmp	r0, r5
 665 00ce 9ED0     		beq	.L48
 330:Drivers/STM32L4xx_HAL_Driver/Src/stm32l4xx_hal_gpio.c ****       {
 666              		.loc 1 330 19 view .LVU247
 667 00d0 0725     		movs	r5, #7
 668 00d2 9FE7     		b	.L32
 669              	.L36:
 670 00d4 0125     		movs	r5, #1
 671 00d6 9DE7     		b	.L32
 672              	.L37:
 673 00d8 0225     		movs	r5, #2
 674 00da 9BE7     		b	.L32
ARM GAS  /tmp/cctl12IJ.s 			page 21


 675              	.L38:
 676 00dc 0325     		movs	r5, #3
 677 00de 99E7     		b	.L32
 678              	.L39:
 679 00e0 0425     		movs	r5, #4
 680 00e2 97E7     		b	.L32
 681              	.L40:
 682 00e4 0525     		movs	r5, #5
 683 00e6 95E7     		b	.L32
 684              	.L46:
 333:Drivers/STM32L4xx_HAL_Driver/Src/stm32l4xx_hal_gpio.c ****         EXTI->EMR1 &= ~(iocurrent);
 685              		.loc 1 333 9 is_stmt 1 view .LVU248
 333:Drivers/STM32L4xx_HAL_Driver/Src/stm32l4xx_hal_gpio.c ****         EXTI->EMR1 &= ~(iocurrent);
 686              		.loc 1 333 20 is_stmt 0 view .LVU249
 687 00e8 104C     		ldr	r4, .L49+8
 688              	.LVL60:
 333:Drivers/STM32L4xx_HAL_Driver/Src/stm32l4xx_hal_gpio.c ****         EXTI->EMR1 &= ~(iocurrent);
 689              		.loc 1 333 20 view .LVU250
 690 00ea 2568     		ldr	r5, [r4]
 691 00ec 25EA0705 		bic	r5, r5, r7
 692 00f0 2560     		str	r5, [r4]
 334:Drivers/STM32L4xx_HAL_Driver/Src/stm32l4xx_hal_gpio.c **** 
 693              		.loc 1 334 9 is_stmt 1 view .LVU251
 334:Drivers/STM32L4xx_HAL_Driver/Src/stm32l4xx_hal_gpio.c **** 
 694              		.loc 1 334 20 is_stmt 0 view .LVU252
 695 00f2 6568     		ldr	r5, [r4, #4]
 696 00f4 25EA0705 		bic	r5, r5, r7
 697 00f8 6560     		str	r5, [r4, #4]
 337:Drivers/STM32L4xx_HAL_Driver/Src/stm32l4xx_hal_gpio.c ****         EXTI->RTSR1 &= ~(iocurrent);
 698              		.loc 1 337 9 is_stmt 1 view .LVU253
 337:Drivers/STM32L4xx_HAL_Driver/Src/stm32l4xx_hal_gpio.c ****         EXTI->RTSR1 &= ~(iocurrent);
 699              		.loc 1 337 21 is_stmt 0 view .LVU254
 700 00fa E568     		ldr	r5, [r4, #12]
 701 00fc 25EA0705 		bic	r5, r5, r7
 702 0100 E560     		str	r5, [r4, #12]
 338:Drivers/STM32L4xx_HAL_Driver/Src/stm32l4xx_hal_gpio.c **** 
 703              		.loc 1 338 9 is_stmt 1 view .LVU255
 338:Drivers/STM32L4xx_HAL_Driver/Src/stm32l4xx_hal_gpio.c **** 
 704              		.loc 1 338 21 is_stmt 0 view .LVU256
 705 0102 A568     		ldr	r5, [r4, #8]
 706 0104 25EA0707 		bic	r7, r5, r7
 707              	.LVL61:
 338:Drivers/STM32L4xx_HAL_Driver/Src/stm32l4xx_hal_gpio.c **** 
 708              		.loc 1 338 21 view .LVU257
 709 0108 A760     		str	r7, [r4, #8]
 340:Drivers/STM32L4xx_HAL_Driver/Src/stm32l4xx_hal_gpio.c ****         SYSCFG->EXTICR[position >> 2u] &= ~tmp;
 710              		.loc 1 340 9 is_stmt 1 view .LVU258
 711              	.LVL62:
 341:Drivers/STM32L4xx_HAL_Driver/Src/stm32l4xx_hal_gpio.c ****       }
 712              		.loc 1 341 9 view .LVU259
 341:Drivers/STM32L4xx_HAL_Driver/Src/stm32l4xx_hal_gpio.c ****       }
 713              		.loc 1 341 40 is_stmt 0 view .LVU260
 714 010a 064F     		ldr	r7, .L49
 715 010c 0EF10204 		add	r4, lr, #2
 716 0110 57F82450 		ldr	r5, [r7, r4, lsl #2]
 717 0114 25EA0605 		bic	r5, r5, r6
 718 0118 47F82450 		str	r5, [r7, r4, lsl #2]
ARM GAS  /tmp/cctl12IJ.s 			page 22


 719 011c 7EE7     		b	.L33
 720              	.LVL63:
 721              	.L47:
 367:Drivers/STM32L4xx_HAL_Driver/Src/stm32l4xx_hal_gpio.c ****   }
 368:Drivers/STM32L4xx_HAL_Driver/Src/stm32l4xx_hal_gpio.c **** }
 722              		.loc 1 368 1 view .LVU261
 723 011e F0BD     		pop	{r4, r5, r6, r7, pc}
 724              	.LVL64:
 725              	.L45:
 726              	.LCFI4:
 727              		.cfi_def_cfa_offset 0
 728              		.cfi_restore 4
 729              		.cfi_restore 5
 730              		.cfi_restore 6
 731              		.cfi_restore 7
 732              		.cfi_restore 14
 733              		.loc 1 368 1 view .LVU262
 734 0120 7047     		bx	lr
 735              	.L50:
 736 0122 00BF     		.align	2
 737              	.L49:
 738 0124 00000140 		.word	1073807360
 739 0128 00040048 		.word	1207960576
 740 012c 00040140 		.word	1073808384
 741              		.cfi_endproc
 742              	.LFE133:
 744              		.section	.text.HAL_GPIO_ReadPin,"ax",%progbits
 745              		.align	1
 746              		.global	HAL_GPIO_ReadPin
 747              		.syntax unified
 748              		.thumb
 749              		.thumb_func
 750              		.fpu fpv4-sp-d16
 752              	HAL_GPIO_ReadPin:
 753              	.LVL65:
 754              	.LFB134:
 369:Drivers/STM32L4xx_HAL_Driver/Src/stm32l4xx_hal_gpio.c **** 
 370:Drivers/STM32L4xx_HAL_Driver/Src/stm32l4xx_hal_gpio.c **** /**
 371:Drivers/STM32L4xx_HAL_Driver/Src/stm32l4xx_hal_gpio.c ****   * @}
 372:Drivers/STM32L4xx_HAL_Driver/Src/stm32l4xx_hal_gpio.c ****   */
 373:Drivers/STM32L4xx_HAL_Driver/Src/stm32l4xx_hal_gpio.c **** 
 374:Drivers/STM32L4xx_HAL_Driver/Src/stm32l4xx_hal_gpio.c **** /** @defgroup GPIO_Exported_Functions_Group2 IO operation functions
 375:Drivers/STM32L4xx_HAL_Driver/Src/stm32l4xx_hal_gpio.c ****  *  @brief GPIO Read, Write, Toggle, Lock and EXTI management functions.
 376:Drivers/STM32L4xx_HAL_Driver/Src/stm32l4xx_hal_gpio.c ****  *
 377:Drivers/STM32L4xx_HAL_Driver/Src/stm32l4xx_hal_gpio.c **** @verbatim
 378:Drivers/STM32L4xx_HAL_Driver/Src/stm32l4xx_hal_gpio.c ****  ===============================================================================
 379:Drivers/STM32L4xx_HAL_Driver/Src/stm32l4xx_hal_gpio.c ****                        ##### IO operation functions #####
 380:Drivers/STM32L4xx_HAL_Driver/Src/stm32l4xx_hal_gpio.c ****  ===============================================================================
 381:Drivers/STM32L4xx_HAL_Driver/Src/stm32l4xx_hal_gpio.c **** 
 382:Drivers/STM32L4xx_HAL_Driver/Src/stm32l4xx_hal_gpio.c **** @endverbatim
 383:Drivers/STM32L4xx_HAL_Driver/Src/stm32l4xx_hal_gpio.c ****   * @{
 384:Drivers/STM32L4xx_HAL_Driver/Src/stm32l4xx_hal_gpio.c ****   */
 385:Drivers/STM32L4xx_HAL_Driver/Src/stm32l4xx_hal_gpio.c **** 
 386:Drivers/STM32L4xx_HAL_Driver/Src/stm32l4xx_hal_gpio.c **** /**
 387:Drivers/STM32L4xx_HAL_Driver/Src/stm32l4xx_hal_gpio.c ****   * @brief  Read the specified input port pin.
 388:Drivers/STM32L4xx_HAL_Driver/Src/stm32l4xx_hal_gpio.c ****   * @param  GPIOx where x can be (A..H) to select the GPIO peripheral for STM32L4 family
 389:Drivers/STM32L4xx_HAL_Driver/Src/stm32l4xx_hal_gpio.c ****   * @param  GPIO_Pin specifies the port bit to read.
ARM GAS  /tmp/cctl12IJ.s 			page 23


 390:Drivers/STM32L4xx_HAL_Driver/Src/stm32l4xx_hal_gpio.c ****   *         This parameter can be any combination of GPIO_Pin_x where x can be (0..15).
 391:Drivers/STM32L4xx_HAL_Driver/Src/stm32l4xx_hal_gpio.c ****   * @retval The input port pin value.
 392:Drivers/STM32L4xx_HAL_Driver/Src/stm32l4xx_hal_gpio.c ****   */
 393:Drivers/STM32L4xx_HAL_Driver/Src/stm32l4xx_hal_gpio.c **** GPIO_PinState HAL_GPIO_ReadPin(GPIO_TypeDef* GPIOx, uint16_t GPIO_Pin)
 394:Drivers/STM32L4xx_HAL_Driver/Src/stm32l4xx_hal_gpio.c **** {
 755              		.loc 1 394 1 is_stmt 1 view -0
 756              		.cfi_startproc
 757              		@ args = 0, pretend = 0, frame = 0
 758              		@ frame_needed = 0, uses_anonymous_args = 0
 759              		@ link register save eliminated.
 395:Drivers/STM32L4xx_HAL_Driver/Src/stm32l4xx_hal_gpio.c ****   GPIO_PinState bitstatus;
 760              		.loc 1 395 3 view .LVU264
 396:Drivers/STM32L4xx_HAL_Driver/Src/stm32l4xx_hal_gpio.c **** 
 397:Drivers/STM32L4xx_HAL_Driver/Src/stm32l4xx_hal_gpio.c ****   /* Check the parameters */
 398:Drivers/STM32L4xx_HAL_Driver/Src/stm32l4xx_hal_gpio.c ****   assert_param(IS_GPIO_PIN(GPIO_Pin));
 761              		.loc 1 398 3 view .LVU265
 399:Drivers/STM32L4xx_HAL_Driver/Src/stm32l4xx_hal_gpio.c **** 
 400:Drivers/STM32L4xx_HAL_Driver/Src/stm32l4xx_hal_gpio.c ****   if ((GPIOx->IDR & GPIO_Pin) != 0x00u)
 762              		.loc 1 400 3 view .LVU266
 763              		.loc 1 400 13 is_stmt 0 view .LVU267
 764 0000 0369     		ldr	r3, [r0, #16]
 765              		.loc 1 400 6 view .LVU268
 766 0002 1942     		tst	r1, r3
 767 0004 01D0     		beq	.L53
 401:Drivers/STM32L4xx_HAL_Driver/Src/stm32l4xx_hal_gpio.c ****   {
 402:Drivers/STM32L4xx_HAL_Driver/Src/stm32l4xx_hal_gpio.c ****     bitstatus = GPIO_PIN_SET;
 768              		.loc 1 402 15 view .LVU269
 769 0006 0120     		movs	r0, #1
 770              	.LVL66:
 771              		.loc 1 402 15 view .LVU270
 772 0008 7047     		bx	lr
 773              	.LVL67:
 774              	.L53:
 403:Drivers/STM32L4xx_HAL_Driver/Src/stm32l4xx_hal_gpio.c ****   }
 404:Drivers/STM32L4xx_HAL_Driver/Src/stm32l4xx_hal_gpio.c ****   else
 405:Drivers/STM32L4xx_HAL_Driver/Src/stm32l4xx_hal_gpio.c ****   {
 406:Drivers/STM32L4xx_HAL_Driver/Src/stm32l4xx_hal_gpio.c ****     bitstatus = GPIO_PIN_RESET;
 775              		.loc 1 406 15 view .LVU271
 776 000a 0020     		movs	r0, #0
 777              	.LVL68:
 407:Drivers/STM32L4xx_HAL_Driver/Src/stm32l4xx_hal_gpio.c ****   }
 408:Drivers/STM32L4xx_HAL_Driver/Src/stm32l4xx_hal_gpio.c ****   return bitstatus;
 778              		.loc 1 408 3 is_stmt 1 view .LVU272
 409:Drivers/STM32L4xx_HAL_Driver/Src/stm32l4xx_hal_gpio.c **** }
 779              		.loc 1 409 1 is_stmt 0 view .LVU273
 780 000c 7047     		bx	lr
 781              		.cfi_endproc
 782              	.LFE134:
 784              		.section	.text.HAL_GPIO_WritePin,"ax",%progbits
 785              		.align	1
 786              		.global	HAL_GPIO_WritePin
 787              		.syntax unified
 788              		.thumb
 789              		.thumb_func
 790              		.fpu fpv4-sp-d16
 792              	HAL_GPIO_WritePin:
 793              	.LVL69:
ARM GAS  /tmp/cctl12IJ.s 			page 24


 794              	.LFB135:
 410:Drivers/STM32L4xx_HAL_Driver/Src/stm32l4xx_hal_gpio.c **** 
 411:Drivers/STM32L4xx_HAL_Driver/Src/stm32l4xx_hal_gpio.c **** /**
 412:Drivers/STM32L4xx_HAL_Driver/Src/stm32l4xx_hal_gpio.c ****   * @brief  Set or clear the selected data port bit.
 413:Drivers/STM32L4xx_HAL_Driver/Src/stm32l4xx_hal_gpio.c ****   *
 414:Drivers/STM32L4xx_HAL_Driver/Src/stm32l4xx_hal_gpio.c ****   * @note   This function uses GPIOx_BSRR and GPIOx_BRR registers to allow atomic read/modify
 415:Drivers/STM32L4xx_HAL_Driver/Src/stm32l4xx_hal_gpio.c ****   *         accesses. In this way, there is no risk of an IRQ occurring between
 416:Drivers/STM32L4xx_HAL_Driver/Src/stm32l4xx_hal_gpio.c ****   *         the read and the modify access.
 417:Drivers/STM32L4xx_HAL_Driver/Src/stm32l4xx_hal_gpio.c ****   *
 418:Drivers/STM32L4xx_HAL_Driver/Src/stm32l4xx_hal_gpio.c ****   * @param  GPIOx where x can be (A..H) to select the GPIO peripheral for STM32L4 family
 419:Drivers/STM32L4xx_HAL_Driver/Src/stm32l4xx_hal_gpio.c ****   * @param  GPIO_Pin specifies the port bit to be written.
 420:Drivers/STM32L4xx_HAL_Driver/Src/stm32l4xx_hal_gpio.c ****   *         This parameter can be any combination of GPIO_Pin_x where x can be (0..15).
 421:Drivers/STM32L4xx_HAL_Driver/Src/stm32l4xx_hal_gpio.c ****   * @param  PinState specifies the value to be written to the selected bit.
 422:Drivers/STM32L4xx_HAL_Driver/Src/stm32l4xx_hal_gpio.c ****   *         This parameter can be one of the GPIO_PinState enum values:
 423:Drivers/STM32L4xx_HAL_Driver/Src/stm32l4xx_hal_gpio.c ****   *            @arg GPIO_PIN_RESET: to clear the port pin
 424:Drivers/STM32L4xx_HAL_Driver/Src/stm32l4xx_hal_gpio.c ****   *            @arg GPIO_PIN_SET: to set the port pin
 425:Drivers/STM32L4xx_HAL_Driver/Src/stm32l4xx_hal_gpio.c ****   * @retval None
 426:Drivers/STM32L4xx_HAL_Driver/Src/stm32l4xx_hal_gpio.c ****   */
 427:Drivers/STM32L4xx_HAL_Driver/Src/stm32l4xx_hal_gpio.c **** void HAL_GPIO_WritePin(GPIO_TypeDef* GPIOx, uint16_t GPIO_Pin, GPIO_PinState PinState)
 428:Drivers/STM32L4xx_HAL_Driver/Src/stm32l4xx_hal_gpio.c **** {
 795              		.loc 1 428 1 is_stmt 1 view -0
 796              		.cfi_startproc
 797              		@ args = 0, pretend = 0, frame = 0
 798              		@ frame_needed = 0, uses_anonymous_args = 0
 799              		@ link register save eliminated.
 429:Drivers/STM32L4xx_HAL_Driver/Src/stm32l4xx_hal_gpio.c ****   /* Check the parameters */
 430:Drivers/STM32L4xx_HAL_Driver/Src/stm32l4xx_hal_gpio.c ****   assert_param(IS_GPIO_PIN(GPIO_Pin));
 800              		.loc 1 430 3 view .LVU275
 431:Drivers/STM32L4xx_HAL_Driver/Src/stm32l4xx_hal_gpio.c ****   assert_param(IS_GPIO_PIN_ACTION(PinState));
 801              		.loc 1 431 3 view .LVU276
 432:Drivers/STM32L4xx_HAL_Driver/Src/stm32l4xx_hal_gpio.c **** 
 433:Drivers/STM32L4xx_HAL_Driver/Src/stm32l4xx_hal_gpio.c ****   if(PinState != GPIO_PIN_RESET)
 802              		.loc 1 433 3 view .LVU277
 803              		.loc 1 433 5 is_stmt 0 view .LVU278
 804 0000 0AB1     		cbz	r2, .L55
 434:Drivers/STM32L4xx_HAL_Driver/Src/stm32l4xx_hal_gpio.c ****   {
 435:Drivers/STM32L4xx_HAL_Driver/Src/stm32l4xx_hal_gpio.c ****     GPIOx->BSRR = (uint32_t)GPIO_Pin;
 805              		.loc 1 435 5 is_stmt 1 view .LVU279
 806              		.loc 1 435 17 is_stmt 0 view .LVU280
 807 0002 8161     		str	r1, [r0, #24]
 808 0004 7047     		bx	lr
 809              	.L55:
 436:Drivers/STM32L4xx_HAL_Driver/Src/stm32l4xx_hal_gpio.c ****   }
 437:Drivers/STM32L4xx_HAL_Driver/Src/stm32l4xx_hal_gpio.c ****   else
 438:Drivers/STM32L4xx_HAL_Driver/Src/stm32l4xx_hal_gpio.c ****   {
 439:Drivers/STM32L4xx_HAL_Driver/Src/stm32l4xx_hal_gpio.c ****     GPIOx->BRR = (uint32_t)GPIO_Pin;
 810              		.loc 1 439 5 is_stmt 1 view .LVU281
 811              		.loc 1 439 16 is_stmt 0 view .LVU282
 812 0006 8162     		str	r1, [r0, #40]
 440:Drivers/STM32L4xx_HAL_Driver/Src/stm32l4xx_hal_gpio.c ****   }
 441:Drivers/STM32L4xx_HAL_Driver/Src/stm32l4xx_hal_gpio.c **** }
 813              		.loc 1 441 1 view .LVU283
 814 0008 7047     		bx	lr
 815              		.cfi_endproc
 816              	.LFE135:
 818              		.section	.text.HAL_GPIO_TogglePin,"ax",%progbits
 819              		.align	1
ARM GAS  /tmp/cctl12IJ.s 			page 25


 820              		.global	HAL_GPIO_TogglePin
 821              		.syntax unified
 822              		.thumb
 823              		.thumb_func
 824              		.fpu fpv4-sp-d16
 826              	HAL_GPIO_TogglePin:
 827              	.LVL70:
 828              	.LFB136:
 442:Drivers/STM32L4xx_HAL_Driver/Src/stm32l4xx_hal_gpio.c **** 
 443:Drivers/STM32L4xx_HAL_Driver/Src/stm32l4xx_hal_gpio.c **** /**
 444:Drivers/STM32L4xx_HAL_Driver/Src/stm32l4xx_hal_gpio.c ****   * @brief  Toggle the specified GPIO pin.
 445:Drivers/STM32L4xx_HAL_Driver/Src/stm32l4xx_hal_gpio.c ****   * @param  GPIOx where x can be (A..H) to select the GPIO peripheral for STM32L4 family
 446:Drivers/STM32L4xx_HAL_Driver/Src/stm32l4xx_hal_gpio.c ****   * @param  GPIO_Pin specifies the pin to be toggled.
 447:Drivers/STM32L4xx_HAL_Driver/Src/stm32l4xx_hal_gpio.c ****   * @retval None
 448:Drivers/STM32L4xx_HAL_Driver/Src/stm32l4xx_hal_gpio.c ****   */
 449:Drivers/STM32L4xx_HAL_Driver/Src/stm32l4xx_hal_gpio.c **** void HAL_GPIO_TogglePin(GPIO_TypeDef* GPIOx, uint16_t GPIO_Pin)
 450:Drivers/STM32L4xx_HAL_Driver/Src/stm32l4xx_hal_gpio.c **** {
 829              		.loc 1 450 1 is_stmt 1 view -0
 830              		.cfi_startproc
 831              		@ args = 0, pretend = 0, frame = 0
 832              		@ frame_needed = 0, uses_anonymous_args = 0
 833              		@ link register save eliminated.
 451:Drivers/STM32L4xx_HAL_Driver/Src/stm32l4xx_hal_gpio.c ****   uint32_t odr;
 834              		.loc 1 451 3 view .LVU285
 452:Drivers/STM32L4xx_HAL_Driver/Src/stm32l4xx_hal_gpio.c **** 
 453:Drivers/STM32L4xx_HAL_Driver/Src/stm32l4xx_hal_gpio.c ****   /* Check the parameters */
 454:Drivers/STM32L4xx_HAL_Driver/Src/stm32l4xx_hal_gpio.c ****   assert_param(IS_GPIO_PIN(GPIO_Pin));
 835              		.loc 1 454 3 view .LVU286
 455:Drivers/STM32L4xx_HAL_Driver/Src/stm32l4xx_hal_gpio.c **** 
 456:Drivers/STM32L4xx_HAL_Driver/Src/stm32l4xx_hal_gpio.c ****   /* get current Output Data Register value */
 457:Drivers/STM32L4xx_HAL_Driver/Src/stm32l4xx_hal_gpio.c ****   odr = GPIOx->ODR;
 836              		.loc 1 457 3 view .LVU287
 837              		.loc 1 457 7 is_stmt 0 view .LVU288
 838 0000 4369     		ldr	r3, [r0, #20]
 839              	.LVL71:
 458:Drivers/STM32L4xx_HAL_Driver/Src/stm32l4xx_hal_gpio.c **** 
 459:Drivers/STM32L4xx_HAL_Driver/Src/stm32l4xx_hal_gpio.c ****   /* Set selected pins that were at low level, and reset ones that were high */
 460:Drivers/STM32L4xx_HAL_Driver/Src/stm32l4xx_hal_gpio.c ****   GPIOx->BSRR = ((odr & GPIO_Pin) << GPIO_NUMBER) | (~odr & GPIO_Pin);
 840              		.loc 1 460 3 is_stmt 1 view .LVU289
 841              		.loc 1 460 23 is_stmt 0 view .LVU290
 842 0002 01EA0302 		and	r2, r1, r3
 843              		.loc 1 460 59 view .LVU291
 844 0006 21EA0301 		bic	r1, r1, r3
 845              	.LVL72:
 846              		.loc 1 460 51 view .LVU292
 847 000a 41EA0241 		orr	r1, r1, r2, lsl #16
 848              		.loc 1 460 15 view .LVU293
 849 000e 8161     		str	r1, [r0, #24]
 461:Drivers/STM32L4xx_HAL_Driver/Src/stm32l4xx_hal_gpio.c **** }
 850              		.loc 1 461 1 view .LVU294
 851 0010 7047     		bx	lr
 852              		.cfi_endproc
 853              	.LFE136:
 855              		.section	.text.HAL_GPIO_LockPin,"ax",%progbits
 856              		.align	1
 857              		.global	HAL_GPIO_LockPin
 858              		.syntax unified
ARM GAS  /tmp/cctl12IJ.s 			page 26


 859              		.thumb
 860              		.thumb_func
 861              		.fpu fpv4-sp-d16
 863              	HAL_GPIO_LockPin:
 864              	.LVL73:
 865              	.LFB137:
 462:Drivers/STM32L4xx_HAL_Driver/Src/stm32l4xx_hal_gpio.c **** 
 463:Drivers/STM32L4xx_HAL_Driver/Src/stm32l4xx_hal_gpio.c **** /**
 464:Drivers/STM32L4xx_HAL_Driver/Src/stm32l4xx_hal_gpio.c **** * @brief  Lock GPIO Pins configuration registers.
 465:Drivers/STM32L4xx_HAL_Driver/Src/stm32l4xx_hal_gpio.c ****   * @note   The locked registers are GPIOx_MODER, GPIOx_OTYPER, GPIOx_OSPEEDR,
 466:Drivers/STM32L4xx_HAL_Driver/Src/stm32l4xx_hal_gpio.c ****   *         GPIOx_PUPDR, GPIOx_AFRL and GPIOx_AFRH.
 467:Drivers/STM32L4xx_HAL_Driver/Src/stm32l4xx_hal_gpio.c ****   * @note   The configuration of the locked GPIO pins can no longer be modified
 468:Drivers/STM32L4xx_HAL_Driver/Src/stm32l4xx_hal_gpio.c ****   *         until the next reset.
 469:Drivers/STM32L4xx_HAL_Driver/Src/stm32l4xx_hal_gpio.c ****   * @param  GPIOx where x can be (A..H) to select the GPIO peripheral for STM32L4 family
 470:Drivers/STM32L4xx_HAL_Driver/Src/stm32l4xx_hal_gpio.c ****   * @param  GPIO_Pin specifies the port bits to be locked.
 471:Drivers/STM32L4xx_HAL_Driver/Src/stm32l4xx_hal_gpio.c ****   *         This parameter can be any combination of GPIO_Pin_x where x can be (0..15).
 472:Drivers/STM32L4xx_HAL_Driver/Src/stm32l4xx_hal_gpio.c ****   * @retval None
 473:Drivers/STM32L4xx_HAL_Driver/Src/stm32l4xx_hal_gpio.c ****   */
 474:Drivers/STM32L4xx_HAL_Driver/Src/stm32l4xx_hal_gpio.c **** HAL_StatusTypeDef HAL_GPIO_LockPin(GPIO_TypeDef* GPIOx, uint16_t GPIO_Pin)
 475:Drivers/STM32L4xx_HAL_Driver/Src/stm32l4xx_hal_gpio.c **** {
 866              		.loc 1 475 1 is_stmt 1 view -0
 867              		.cfi_startproc
 868              		@ args = 0, pretend = 0, frame = 8
 869              		@ frame_needed = 0, uses_anonymous_args = 0
 870              		@ link register save eliminated.
 871              		.loc 1 475 1 is_stmt 0 view .LVU296
 872 0000 82B0     		sub	sp, sp, #8
 873              	.LCFI5:
 874              		.cfi_def_cfa_offset 8
 476:Drivers/STM32L4xx_HAL_Driver/Src/stm32l4xx_hal_gpio.c ****   __IO uint32_t tmp = GPIO_LCKR_LCKK;
 875              		.loc 1 476 3 is_stmt 1 view .LVU297
 876              		.loc 1 476 17 is_stmt 0 view .LVU298
 877 0002 4FF48033 		mov	r3, #65536
 878 0006 0193     		str	r3, [sp, #4]
 477:Drivers/STM32L4xx_HAL_Driver/Src/stm32l4xx_hal_gpio.c **** 
 478:Drivers/STM32L4xx_HAL_Driver/Src/stm32l4xx_hal_gpio.c ****   /* Check the parameters */
 479:Drivers/STM32L4xx_HAL_Driver/Src/stm32l4xx_hal_gpio.c ****   assert_param(IS_GPIO_LOCK_INSTANCE(GPIOx));
 879              		.loc 1 479 3 is_stmt 1 view .LVU299
 480:Drivers/STM32L4xx_HAL_Driver/Src/stm32l4xx_hal_gpio.c ****   assert_param(IS_GPIO_PIN(GPIO_Pin));
 880              		.loc 1 480 3 view .LVU300
 481:Drivers/STM32L4xx_HAL_Driver/Src/stm32l4xx_hal_gpio.c **** 
 482:Drivers/STM32L4xx_HAL_Driver/Src/stm32l4xx_hal_gpio.c ****   /* Apply lock key write sequence */
 483:Drivers/STM32L4xx_HAL_Driver/Src/stm32l4xx_hal_gpio.c ****   tmp |= GPIO_Pin;
 881              		.loc 1 483 3 view .LVU301
 882              		.loc 1 483 7 is_stmt 0 view .LVU302
 883 0008 019B     		ldr	r3, [sp, #4]
 884 000a 0B43     		orrs	r3, r3, r1
 885 000c 0193     		str	r3, [sp, #4]
 484:Drivers/STM32L4xx_HAL_Driver/Src/stm32l4xx_hal_gpio.c ****   /* Set LCKx bit(s): LCKK='1' + LCK[15-0] */
 485:Drivers/STM32L4xx_HAL_Driver/Src/stm32l4xx_hal_gpio.c ****   GPIOx->LCKR = tmp;
 886              		.loc 1 485 3 is_stmt 1 view .LVU303
 887              		.loc 1 485 15 is_stmt 0 view .LVU304
 888 000e 019B     		ldr	r3, [sp, #4]
 889 0010 C361     		str	r3, [r0, #28]
 486:Drivers/STM32L4xx_HAL_Driver/Src/stm32l4xx_hal_gpio.c ****   /* Reset LCKx bit(s): LCKK='0' + LCK[15-0] */
 487:Drivers/STM32L4xx_HAL_Driver/Src/stm32l4xx_hal_gpio.c ****   GPIOx->LCKR = GPIO_Pin;
 890              		.loc 1 487 3 is_stmt 1 view .LVU305
ARM GAS  /tmp/cctl12IJ.s 			page 27


 891              		.loc 1 487 15 is_stmt 0 view .LVU306
 892 0012 C161     		str	r1, [r0, #28]
 488:Drivers/STM32L4xx_HAL_Driver/Src/stm32l4xx_hal_gpio.c ****   /* Set LCKx bit(s): LCKK='1' + LCK[15-0] */
 489:Drivers/STM32L4xx_HAL_Driver/Src/stm32l4xx_hal_gpio.c ****   GPIOx->LCKR = tmp;
 893              		.loc 1 489 3 is_stmt 1 view .LVU307
 894              		.loc 1 489 15 is_stmt 0 view .LVU308
 895 0014 019B     		ldr	r3, [sp, #4]
 896 0016 C361     		str	r3, [r0, #28]
 490:Drivers/STM32L4xx_HAL_Driver/Src/stm32l4xx_hal_gpio.c ****   /* Read LCKK register. This read is mandatory to complete key lock sequence */
 491:Drivers/STM32L4xx_HAL_Driver/Src/stm32l4xx_hal_gpio.c ****   tmp = GPIOx->LCKR;
 897              		.loc 1 491 3 is_stmt 1 view .LVU309
 898              		.loc 1 491 14 is_stmt 0 view .LVU310
 899 0018 C369     		ldr	r3, [r0, #28]
 900              		.loc 1 491 7 view .LVU311
 901 001a 0193     		str	r3, [sp, #4]
 492:Drivers/STM32L4xx_HAL_Driver/Src/stm32l4xx_hal_gpio.c **** 
 493:Drivers/STM32L4xx_HAL_Driver/Src/stm32l4xx_hal_gpio.c ****   /* Read again in order to confirm lock is active */
 494:Drivers/STM32L4xx_HAL_Driver/Src/stm32l4xx_hal_gpio.c ****   if ((GPIOx->LCKR & GPIO_LCKR_LCKK) != 0x00u)
 902              		.loc 1 494 3 is_stmt 1 view .LVU312
 903              		.loc 1 494 13 is_stmt 0 view .LVU313
 904 001c C369     		ldr	r3, [r0, #28]
 905              		.loc 1 494 6 view .LVU314
 906 001e 13F4803F 		tst	r3, #65536
 907 0022 02D0     		beq	.L60
 495:Drivers/STM32L4xx_HAL_Driver/Src/stm32l4xx_hal_gpio.c ****   {
 496:Drivers/STM32L4xx_HAL_Driver/Src/stm32l4xx_hal_gpio.c ****     return HAL_OK;
 908              		.loc 1 496 12 view .LVU315
 909 0024 0020     		movs	r0, #0
 910              	.LVL74:
 911              	.L59:
 497:Drivers/STM32L4xx_HAL_Driver/Src/stm32l4xx_hal_gpio.c ****   }
 498:Drivers/STM32L4xx_HAL_Driver/Src/stm32l4xx_hal_gpio.c ****   else
 499:Drivers/STM32L4xx_HAL_Driver/Src/stm32l4xx_hal_gpio.c ****   {
 500:Drivers/STM32L4xx_HAL_Driver/Src/stm32l4xx_hal_gpio.c ****     return HAL_ERROR;
 501:Drivers/STM32L4xx_HAL_Driver/Src/stm32l4xx_hal_gpio.c ****   }
 502:Drivers/STM32L4xx_HAL_Driver/Src/stm32l4xx_hal_gpio.c **** }
 912              		.loc 1 502 1 view .LVU316
 913 0026 02B0     		add	sp, sp, #8
 914              	.LCFI6:
 915              		.cfi_remember_state
 916              		.cfi_def_cfa_offset 0
 917              		@ sp needed
 918 0028 7047     		bx	lr
 919              	.LVL75:
 920              	.L60:
 921              	.LCFI7:
 922              		.cfi_restore_state
 500:Drivers/STM32L4xx_HAL_Driver/Src/stm32l4xx_hal_gpio.c ****   }
 923              		.loc 1 500 12 view .LVU317
 924 002a 0120     		movs	r0, #1
 925              	.LVL76:
 500:Drivers/STM32L4xx_HAL_Driver/Src/stm32l4xx_hal_gpio.c ****   }
 926              		.loc 1 500 12 view .LVU318
 927 002c FBE7     		b	.L59
 928              		.cfi_endproc
 929              	.LFE137:
 931              		.section	.text.HAL_GPIO_EXTI_Callback,"ax",%progbits
ARM GAS  /tmp/cctl12IJ.s 			page 28


 932              		.align	1
 933              		.weak	HAL_GPIO_EXTI_Callback
 934              		.syntax unified
 935              		.thumb
 936              		.thumb_func
 937              		.fpu fpv4-sp-d16
 939              	HAL_GPIO_EXTI_Callback:
 940              	.LVL77:
 941              	.LFB139:
 503:Drivers/STM32L4xx_HAL_Driver/Src/stm32l4xx_hal_gpio.c **** 
 504:Drivers/STM32L4xx_HAL_Driver/Src/stm32l4xx_hal_gpio.c **** /**
 505:Drivers/STM32L4xx_HAL_Driver/Src/stm32l4xx_hal_gpio.c ****   * @brief  Handle EXTI interrupt request.
 506:Drivers/STM32L4xx_HAL_Driver/Src/stm32l4xx_hal_gpio.c ****   * @param  GPIO_Pin Specifies the port pin connected to corresponding EXTI line.
 507:Drivers/STM32L4xx_HAL_Driver/Src/stm32l4xx_hal_gpio.c ****   * @retval None
 508:Drivers/STM32L4xx_HAL_Driver/Src/stm32l4xx_hal_gpio.c ****   */
 509:Drivers/STM32L4xx_HAL_Driver/Src/stm32l4xx_hal_gpio.c **** void HAL_GPIO_EXTI_IRQHandler(uint16_t GPIO_Pin)
 510:Drivers/STM32L4xx_HAL_Driver/Src/stm32l4xx_hal_gpio.c **** {
 511:Drivers/STM32L4xx_HAL_Driver/Src/stm32l4xx_hal_gpio.c ****   /* EXTI line interrupt detected */
 512:Drivers/STM32L4xx_HAL_Driver/Src/stm32l4xx_hal_gpio.c ****   if(__HAL_GPIO_EXTI_GET_IT(GPIO_Pin) != 0x00u)
 513:Drivers/STM32L4xx_HAL_Driver/Src/stm32l4xx_hal_gpio.c ****   {
 514:Drivers/STM32L4xx_HAL_Driver/Src/stm32l4xx_hal_gpio.c ****     __HAL_GPIO_EXTI_CLEAR_IT(GPIO_Pin);
 515:Drivers/STM32L4xx_HAL_Driver/Src/stm32l4xx_hal_gpio.c ****     HAL_GPIO_EXTI_Callback(GPIO_Pin);
 516:Drivers/STM32L4xx_HAL_Driver/Src/stm32l4xx_hal_gpio.c ****   }
 517:Drivers/STM32L4xx_HAL_Driver/Src/stm32l4xx_hal_gpio.c **** }
 518:Drivers/STM32L4xx_HAL_Driver/Src/stm32l4xx_hal_gpio.c **** 
 519:Drivers/STM32L4xx_HAL_Driver/Src/stm32l4xx_hal_gpio.c **** /**
 520:Drivers/STM32L4xx_HAL_Driver/Src/stm32l4xx_hal_gpio.c ****   * @brief  EXTI line detection callback.
 521:Drivers/STM32L4xx_HAL_Driver/Src/stm32l4xx_hal_gpio.c ****   * @param  GPIO_Pin Specifies the port pin connected to corresponding EXTI line.
 522:Drivers/STM32L4xx_HAL_Driver/Src/stm32l4xx_hal_gpio.c ****   * @retval None
 523:Drivers/STM32L4xx_HAL_Driver/Src/stm32l4xx_hal_gpio.c ****   */
 524:Drivers/STM32L4xx_HAL_Driver/Src/stm32l4xx_hal_gpio.c **** __weak void HAL_GPIO_EXTI_Callback(uint16_t GPIO_Pin)
 525:Drivers/STM32L4xx_HAL_Driver/Src/stm32l4xx_hal_gpio.c **** {
 942              		.loc 1 525 1 is_stmt 1 view -0
 943              		.cfi_startproc
 944              		@ args = 0, pretend = 0, frame = 0
 945              		@ frame_needed = 0, uses_anonymous_args = 0
 946              		@ link register save eliminated.
 526:Drivers/STM32L4xx_HAL_Driver/Src/stm32l4xx_hal_gpio.c ****   /* Prevent unused argument(s) compilation warning */
 527:Drivers/STM32L4xx_HAL_Driver/Src/stm32l4xx_hal_gpio.c ****   UNUSED(GPIO_Pin);
 947              		.loc 1 527 3 view .LVU320
 528:Drivers/STM32L4xx_HAL_Driver/Src/stm32l4xx_hal_gpio.c **** 
 529:Drivers/STM32L4xx_HAL_Driver/Src/stm32l4xx_hal_gpio.c ****   /* NOTE: This function should not be modified, when the callback is needed,
 530:Drivers/STM32L4xx_HAL_Driver/Src/stm32l4xx_hal_gpio.c ****            the HAL_GPIO_EXTI_Callback could be implemented in the user file
 531:Drivers/STM32L4xx_HAL_Driver/Src/stm32l4xx_hal_gpio.c ****    */
 532:Drivers/STM32L4xx_HAL_Driver/Src/stm32l4xx_hal_gpio.c **** }
 948              		.loc 1 532 1 is_stmt 0 view .LVU321
 949 0000 7047     		bx	lr
 950              		.cfi_endproc
 951              	.LFE139:
 953              		.section	.text.HAL_GPIO_EXTI_IRQHandler,"ax",%progbits
 954              		.align	1
 955              		.global	HAL_GPIO_EXTI_IRQHandler
 956              		.syntax unified
 957              		.thumb
 958              		.thumb_func
 959              		.fpu fpv4-sp-d16
 961              	HAL_GPIO_EXTI_IRQHandler:
ARM GAS  /tmp/cctl12IJ.s 			page 29


 962              	.LVL78:
 963              	.LFB138:
 510:Drivers/STM32L4xx_HAL_Driver/Src/stm32l4xx_hal_gpio.c ****   /* EXTI line interrupt detected */
 964              		.loc 1 510 1 is_stmt 1 view -0
 965              		.cfi_startproc
 966              		@ args = 0, pretend = 0, frame = 0
 967              		@ frame_needed = 0, uses_anonymous_args = 0
 510:Drivers/STM32L4xx_HAL_Driver/Src/stm32l4xx_hal_gpio.c ****   /* EXTI line interrupt detected */
 968              		.loc 1 510 1 is_stmt 0 view .LVU323
 969 0000 08B5     		push	{r3, lr}
 970              	.LCFI8:
 971              		.cfi_def_cfa_offset 8
 972              		.cfi_offset 3, -8
 973              		.cfi_offset 14, -4
 512:Drivers/STM32L4xx_HAL_Driver/Src/stm32l4xx_hal_gpio.c ****   {
 974              		.loc 1 512 3 is_stmt 1 view .LVU324
 512:Drivers/STM32L4xx_HAL_Driver/Src/stm32l4xx_hal_gpio.c ****   {
 975              		.loc 1 512 6 is_stmt 0 view .LVU325
 976 0002 054B     		ldr	r3, .L67
 977 0004 5B69     		ldr	r3, [r3, #20]
 512:Drivers/STM32L4xx_HAL_Driver/Src/stm32l4xx_hal_gpio.c ****   {
 978              		.loc 1 512 5 view .LVU326
 979 0006 0342     		tst	r3, r0
 980 0008 00D1     		bne	.L66
 981              	.LVL79:
 982              	.L63:
 517:Drivers/STM32L4xx_HAL_Driver/Src/stm32l4xx_hal_gpio.c **** 
 983              		.loc 1 517 1 view .LVU327
 984 000a 08BD     		pop	{r3, pc}
 985              	.LVL80:
 986              	.L66:
 514:Drivers/STM32L4xx_HAL_Driver/Src/stm32l4xx_hal_gpio.c ****     HAL_GPIO_EXTI_Callback(GPIO_Pin);
 987              		.loc 1 514 5 is_stmt 1 view .LVU328
 988 000c 024B     		ldr	r3, .L67
 989 000e 5861     		str	r0, [r3, #20]
 515:Drivers/STM32L4xx_HAL_Driver/Src/stm32l4xx_hal_gpio.c ****   }
 990              		.loc 1 515 5 view .LVU329
 991 0010 FFF7FEFF 		bl	HAL_GPIO_EXTI_Callback
 992              	.LVL81:
 517:Drivers/STM32L4xx_HAL_Driver/Src/stm32l4xx_hal_gpio.c **** 
 993              		.loc 1 517 1 is_stmt 0 view .LVU330
 994 0014 F9E7     		b	.L63
 995              	.L68:
 996 0016 00BF     		.align	2
 997              	.L67:
 998 0018 00040140 		.word	1073808384
 999              		.cfi_endproc
 1000              	.LFE138:
 1002              		.text
 1003              	.Letext0:
 1004              		.file 2 "/home/dev/gcc-arm-none-eabi-10-2020-q4-major/arm-none-eabi/include/machine/_default_types
 1005              		.file 3 "/home/dev/gcc-arm-none-eabi-10-2020-q4-major/arm-none-eabi/include/sys/_stdint.h"
 1006              		.file 4 "Drivers/CMSIS/Device/ST/STM32L4xx/Include/stm32l475xx.h"
 1007              		.file 5 "Drivers/STM32L4xx_HAL_Driver/Inc/stm32l4xx_hal_def.h"
 1008              		.file 6 "Drivers/STM32L4xx_HAL_Driver/Inc/stm32l4xx_hal_gpio.h"
ARM GAS  /tmp/cctl12IJ.s 			page 30


DEFINED SYMBOLS
                            *ABS*:0000000000000000 stm32l4xx_hal_gpio.c
     /tmp/cctl12IJ.s:18     .text.HAL_GPIO_Init:0000000000000000 $t
     /tmp/cctl12IJ.s:26     .text.HAL_GPIO_Init:0000000000000000 HAL_GPIO_Init
     /tmp/cctl12IJ.s:491    .text.HAL_GPIO_Init:00000000000001f0 $d
     /tmp/cctl12IJ.s:499    .text.HAL_GPIO_DeInit:0000000000000000 $t
     /tmp/cctl12IJ.s:506    .text.HAL_GPIO_DeInit:0000000000000000 HAL_GPIO_DeInit
     /tmp/cctl12IJ.s:738    .text.HAL_GPIO_DeInit:0000000000000124 $d
     /tmp/cctl12IJ.s:745    .text.HAL_GPIO_ReadPin:0000000000000000 $t
     /tmp/cctl12IJ.s:752    .text.HAL_GPIO_ReadPin:0000000000000000 HAL_GPIO_ReadPin
     /tmp/cctl12IJ.s:785    .text.HAL_GPIO_WritePin:0000000000000000 $t
     /tmp/cctl12IJ.s:792    .text.HAL_GPIO_WritePin:0000000000000000 HAL_GPIO_WritePin
     /tmp/cctl12IJ.s:819    .text.HAL_GPIO_TogglePin:0000000000000000 $t
     /tmp/cctl12IJ.s:826    .text.HAL_GPIO_TogglePin:0000000000000000 HAL_GPIO_TogglePin
     /tmp/cctl12IJ.s:856    .text.HAL_GPIO_LockPin:0000000000000000 $t
     /tmp/cctl12IJ.s:863    .text.HAL_GPIO_LockPin:0000000000000000 HAL_GPIO_LockPin
     /tmp/cctl12IJ.s:932    .text.HAL_GPIO_EXTI_Callback:0000000000000000 $t
     /tmp/cctl12IJ.s:939    .text.HAL_GPIO_EXTI_Callback:0000000000000000 HAL_GPIO_EXTI_Callback
     /tmp/cctl12IJ.s:954    .text.HAL_GPIO_EXTI_IRQHandler:0000000000000000 $t
     /tmp/cctl12IJ.s:961    .text.HAL_GPIO_EXTI_IRQHandler:0000000000000000 HAL_GPIO_EXTI_IRQHandler
     /tmp/cctl12IJ.s:998    .text.HAL_GPIO_EXTI_IRQHandler:0000000000000018 $d

NO UNDEFINED SYMBOLS
